{
	"contracts/Sensor.sol": {
		"SensorContract": {
			"abi": [
				{
					"inputs": [],
					"name": "humidity",
					"outputs": [
						{
							"internalType": "uint256",
							"name": "",
							"type": "uint256"
						}
					],
					"stateMutability": "view",
					"type": "function"
				},
				{
					"inputs": [],
					"name": "isContractActive",
					"outputs": [
						{
							"internalType": "bool",
							"name": "",
							"type": "bool"
						}
					],
					"stateMutability": "view",
					"type": "function"
				},
				{
					"inputs": [],
					"name": "lastVibrationTime",
					"outputs": [
						{
							"internalType": "uint256",
							"name": "",
							"type": "uint256"
						}
					],
					"stateMutability": "view",
					"type": "function"
				},
				{
					"inputs": [],
					"name": "pressure",
					"outputs": [
						{
							"internalType": "uint256",
							"name": "",
							"type": "uint256"
						}
					],
					"stateMutability": "view",
					"type": "function"
				},
				{
					"inputs": [
						{
							"internalType": "uint256",
							"name": "_temperature",
							"type": "uint256"
						},
						{
							"internalType": "uint256",
							"name": "_humidity",
							"type": "uint256"
						},
						{
							"internalType": "uint256",
							"name": "_pressure",
							"type": "uint256"
						},
						{
							"internalType": "uint256",
							"name": "_vibration",
							"type": "uint256"
						}
					],
					"name": "setSensorValues",
					"outputs": [],
					"stateMutability": "nonpayable",
					"type": "function"
				},
				{
					"inputs": [],
					"name": "temperature",
					"outputs": [
						{
							"internalType": "uint256",
							"name": "",
							"type": "uint256"
						}
					],
					"stateMutability": "view",
					"type": "function"
				},
				{
					"inputs": [],
					"name": "vibration",
					"outputs": [
						{
							"internalType": "uint256",
							"name": "",
							"type": "uint256"
						}
					],
					"stateMutability": "view",
					"type": "function"
				}
			],
			"devdoc": {
				"kind": "dev",
				"methods": {},
				"version": 1
			},
			"evm": {
				"assembly": "    /* \"contracts/Sensor.sol\":27:912  contract SensorContract {\r... */\n  mstore(0x40, 0x80)\n    /* \"contracts/Sensor.sol\":252:256  true */\n  0x01\n    /* \"contracts/Sensor.sol\":221:256  bool public isContractActive = true */\n  0x05\n  exp(0x0100, 0x00)\n  dup2\n  sload\n  dup2\n  0xff\n  mul\n  not\n  and\n  swap1\n  dup4\n  iszero\n  iszero\n  mul\n  or\n  swap1\n  sstore\n  pop\n    /* \"contracts/Sensor.sol\":27:912  contract SensorContract {\r... */\n  callvalue\n  dup1\n  iszero\n  tag_1\n  jumpi\n  0x00\n  dup1\n  revert\ntag_1:\n  pop\n  dataSize(sub_0)\n  dup1\n  dataOffset(sub_0)\n  0x00\n  codecopy\n  0x00\n  return\nstop\n\nsub_0: assembly {\n        /* \"contracts/Sensor.sol\":27:912  contract SensorContract {\r... */\n      mstore(0x40, 0x80)\n      callvalue\n      dup1\n      iszero\n      tag_1\n      jumpi\n      0x00\n      dup1\n      revert\n    tag_1:\n      pop\n      jumpi(tag_2, lt(calldatasize, 0x04))\n      shr(0xe0, calldataload(0x00))\n      dup1\n      0xa113efa3\n      gt\n      tag_10\n      jumpi\n      dup1\n      0xa113efa3\n      eq\n      tag_6\n      jumpi\n      dup1\n      0xab09891d\n      eq\n      tag_7\n      jumpi\n      dup1\n      0xadccea12\n      eq\n      tag_8\n      jumpi\n      dup1\n      0xd75acda1\n      eq\n      tag_9\n      jumpi\n      jump(tag_2)\n    tag_10:\n      dup1\n      0x52b74691\n      eq\n      tag_3\n      jumpi\n      dup1\n      0x8f5949f9\n      eq\n      tag_4\n      jumpi\n      dup1\n      0x96af2ca6\n      eq\n      tag_5\n      jumpi\n    tag_2:\n      0x00\n      dup1\n      revert\n        /* \"contracts/Sensor.sol\":182:214  uint256 public lastVibrationTime */\n    tag_3:\n      tag_11\n      tag_12\n      jump\t// in\n    tag_11:\n      mload(0x40)\n      tag_13\n      swap2\n      swap1\n      tag_14\n      jump\t// in\n    tag_13:\n      mload(0x40)\n      dup1\n      swap2\n      sub\n      swap1\n      return\n        /* \"contracts/Sensor.sol\":221:256  bool public isContractActive = true */\n    tag_4:\n      tag_15\n      tag_16\n      jump\t// in\n    tag_15:\n      mload(0x40)\n      tag_17\n      swap2\n      swap1\n      tag_18\n      jump\t// in\n    tag_17:\n      mload(0x40)\n      dup1\n      swap2\n      sub\n      swap1\n      return\n        /* \"contracts/Sensor.sol\":265:909  function setSensorValues(uint256 _temperature, uint256 _humidity, uint256 _pressure, uint256 _vibration) public {\r... */\n    tag_5:\n      tag_19\n      0x04\n      dup1\n      calldatasize\n      sub\n      dup2\n      add\n      swap1\n      tag_20\n      swap2\n      swap1\n      tag_21\n      jump\t// in\n    tag_20:\n      tag_22\n      jump\t// in\n    tag_19:\n      stop\n        /* \"contracts/Sensor.sol\":91:114  uint256 public humidity */\n    tag_6:\n      tag_23\n      tag_24\n      jump\t// in\n    tag_23:\n      mload(0x40)\n      tag_25\n      swap2\n      swap1\n      tag_14\n      jump\t// in\n    tag_25:\n      mload(0x40)\n      dup1\n      swap2\n      sub\n      swap1\n      return\n        /* \"contracts/Sensor.sol\":121:144  uint256 public pressure */\n    tag_7:\n      tag_26\n      tag_27\n      jump\t// in\n    tag_26:\n      mload(0x40)\n      tag_28\n      swap2\n      swap1\n      tag_14\n      jump\t// in\n    tag_28:\n      mload(0x40)\n      dup1\n      swap2\n      sub\n      swap1\n      return\n        /* \"contracts/Sensor.sol\":58:84  uint256 public temperature */\n    tag_8:\n      tag_29\n      tag_30\n      jump\t// in\n    tag_29:\n      mload(0x40)\n      tag_31\n      swap2\n      swap1\n      tag_14\n      jump\t// in\n    tag_31:\n      mload(0x40)\n      dup1\n      swap2\n      sub\n      swap1\n      return\n        /* \"contracts/Sensor.sol\":151:175  uint256 public vibration */\n    tag_9:\n      tag_32\n      tag_33\n      jump\t// in\n    tag_32:\n      mload(0x40)\n      tag_34\n      swap2\n      swap1\n      tag_14\n      jump\t// in\n    tag_34:\n      mload(0x40)\n      dup1\n      swap2\n      sub\n      swap1\n      return\n        /* \"contracts/Sensor.sol\":182:214  uint256 public lastVibrationTime */\n    tag_12:\n      sload(0x04)\n      dup2\n      jump\t// out\n        /* \"contracts/Sensor.sol\":221:256  bool public isContractActive = true */\n    tag_16:\n      0x05\n      0x00\n      swap1\n      sload\n      swap1\n      0x0100\n      exp\n      swap1\n      div\n      0xff\n      and\n      dup2\n      jump\t// out\n        /* \"contracts/Sensor.sol\":265:909  function setSensorValues(uint256 _temperature, uint256 _humidity, uint256 _pressure, uint256 _vibration) public {\r... */\n    tag_22:\n        /* \"contracts/Sensor.sol\":402:414  _temperature */\n      dup4\n        /* \"contracts/Sensor.sol\":388:399  temperature */\n      0x00\n        /* \"contracts/Sensor.sol\":388:414  temperature = _temperature */\n      dup2\n      swap1\n      sstore\n      pop\n        /* \"contracts/Sensor.sol\":436:445  _humidity */\n      dup3\n        /* \"contracts/Sensor.sol\":425:433  humidity */\n      0x01\n        /* \"contracts/Sensor.sol\":425:445  humidity = _humidity */\n      dup2\n      swap1\n      sstore\n      pop\n        /* \"contracts/Sensor.sol\":467:476  _pressure */\n      dup2\n        /* \"contracts/Sensor.sol\":456:464  pressure */\n      0x02\n        /* \"contracts/Sensor.sol\":456:476  pressure = _pressure */\n      dup2\n      swap1\n      sstore\n      pop\n        /* \"contracts/Sensor.sol\":499:509  _vibration */\n      dup1\n        /* \"contracts/Sensor.sol\":487:496  vibration */\n      0x03\n        /* \"contracts/Sensor.sol\":487:509  vibration = _vibration */\n      dup2\n      swap1\n      sstore\n      pop\n        /* \"contracts/Sensor.sol\":548:549  9 */\n      0x09\n        /* \"contracts/Sensor.sol\":534:545  temperature */\n      sload(0x00)\n        /* \"contracts/Sensor.sol\":534:549  temperature < 9 */\n      lt\n        /* \"contracts/Sensor.sol\":534:569  temperature < 9 || temperature > 26 */\n      dup1\n      tag_36\n      jumpi\n      pop\n        /* \"contracts/Sensor.sol\":567:569  26 */\n      0x1a\n        /* \"contracts/Sensor.sol\":553:564  temperature */\n      sload(0x00)\n        /* \"contracts/Sensor.sol\":553:569  temperature > 26 */\n      gt\n        /* \"contracts/Sensor.sol\":534:569  temperature < 9 || temperature > 26 */\n    tag_36:\n        /* \"contracts/Sensor.sol\":534:586  temperature < 9 || temperature > 26 || pressure < 70 */\n      dup1\n      tag_37\n      jumpi\n      pop\n        /* \"contracts/Sensor.sol\":584:586  70 */\n      0x46\n        /* \"contracts/Sensor.sol\":573:581  pressure */\n      sload(0x02)\n        /* \"contracts/Sensor.sol\":573:586  pressure < 70 */\n      lt\n        /* \"contracts/Sensor.sol\":534:586  temperature < 9 || temperature > 26 || pressure < 70 */\n    tag_37:\n        /* \"contracts/Sensor.sol\":534:604  temperature < 9 || temperature > 26 || pressure < 70 || pressure > 110 */\n      dup1\n      tag_38\n      jumpi\n      pop\n        /* \"contracts/Sensor.sol\":601:604  110 */\n      0x6e\n        /* \"contracts/Sensor.sol\":590:598  pressure */\n      sload(0x02)\n        /* \"contracts/Sensor.sol\":590:604  pressure > 110 */\n      gt\n        /* \"contracts/Sensor.sol\":534:604  temperature < 9 || temperature > 26 || pressure < 70 || pressure > 110 */\n    tag_38:\n        /* \"contracts/Sensor.sol\":534:622  temperature < 9 || temperature > 26 || pressure < 70 || pressure > 110 || vibration == 1 */\n      dup1\n      tag_39\n      jumpi\n      pop\n        /* \"contracts/Sensor.sol\":621:622  1 */\n      0x01\n        /* \"contracts/Sensor.sol\":608:617  vibration */\n      sload(0x03)\n        /* \"contracts/Sensor.sol\":608:622  vibration == 1 */\n      eq\n        /* \"contracts/Sensor.sol\":534:622  temperature < 9 || temperature > 26 || pressure < 70 || pressure > 110 || vibration == 1 */\n    tag_39:\n        /* \"contracts/Sensor.sol\":530:675  if (temperature < 9 || temperature > 26 || pressure < 70 || pressure > 110 || vibration == 1) {\r... */\n      iszero\n      tag_40\n      jumpi\n        /* \"contracts/Sensor.sol\":658:663  false */\n      0x00\n        /* \"contracts/Sensor.sol\":639:655  isContractActive */\n      0x05\n      0x00\n        /* \"contracts/Sensor.sol\":639:663  isContractActive = false */\n      0x0100\n      exp\n      dup2\n      sload\n      dup2\n      0xff\n      mul\n      not\n      and\n      swap1\n      dup4\n      iszero\n      iszero\n      mul\n      or\n      swap1\n      sstore\n      pop\n        /* \"contracts/Sensor.sol\":530:675  if (temperature < 9 || temperature > 26 || pressure < 70 || pressure > 110 || vibration == 1) {\r... */\n    tag_40:\n        /* \"contracts/Sensor.sol\":712:713  1 */\n      0x01\n        /* \"contracts/Sensor.sol\":699:708  vibration */\n      sload(0x03)\n        /* \"contracts/Sensor.sol\":699:713  vibration == 1 */\n      eq\n        /* \"contracts/Sensor.sol\":695:777  if (vibration == 1) {\r... */\n      iszero\n      tag_41\n      jumpi\n        /* \"contracts/Sensor.sol\":750:765  block.timestamp */\n      timestamp\n        /* \"contracts/Sensor.sol\":730:747  lastVibrationTime */\n      0x04\n        /* \"contracts/Sensor.sol\":730:765  lastVibrationTime = block.timestamp */\n      dup2\n      swap1\n      sstore\n      pop\n        /* \"contracts/Sensor.sol\":695:777  if (vibration == 1) {\r... */\n    tag_41:\n        /* \"contracts/Sensor.sol\":839:849  10 seconds */\n      0x0a\n        /* \"contracts/Sensor.sol\":819:836  lastVibrationTime */\n      sload(0x04)\n        /* \"contracts/Sensor.sol\":801:816  block.timestamp */\n      timestamp\n        /* \"contracts/Sensor.sol\":801:836  block.timestamp - lastVibrationTime */\n      tag_42\n      swap2\n      swap1\n      tag_43\n      jump\t// in\n    tag_42:\n        /* \"contracts/Sensor.sol\":801:849  block.timestamp - lastVibrationTime > 10 seconds */\n      gt\n        /* \"contracts/Sensor.sol\":797:902  if (block.timestamp - lastVibrationTime > 10 seconds) {\r... */\n      iszero\n      tag_44\n      jumpi\n        /* \"contracts/Sensor.sol\":885:890  false */\n      0x00\n        /* \"contracts/Sensor.sol\":866:882  isContractActive */\n      0x05\n      0x00\n        /* \"contracts/Sensor.sol\":866:890  isContractActive = false */\n      0x0100\n      exp\n      dup2\n      sload\n      dup2\n      0xff\n      mul\n      not\n      and\n      swap1\n      dup4\n      iszero\n      iszero\n      mul\n      or\n      swap1\n      sstore\n      pop\n        /* \"contracts/Sensor.sol\":797:902  if (block.timestamp - lastVibrationTime > 10 seconds) {\r... */\n    tag_44:\n        /* \"contracts/Sensor.sol\":265:909  function setSensorValues(uint256 _temperature, uint256 _humidity, uint256 _pressure, uint256 _vibration) public {\r... */\n      pop\n      pop\n      pop\n      pop\n      jump\t// out\n        /* \"contracts/Sensor.sol\":91:114  uint256 public humidity */\n    tag_24:\n      sload(0x01)\n      dup2\n      jump\t// out\n        /* \"contracts/Sensor.sol\":121:144  uint256 public pressure */\n    tag_27:\n      sload(0x02)\n      dup2\n      jump\t// out\n        /* \"contracts/Sensor.sol\":58:84  uint256 public temperature */\n    tag_30:\n      sload(0x00)\n      dup2\n      jump\t// out\n        /* \"contracts/Sensor.sol\":151:175  uint256 public vibration */\n    tag_33:\n      sload(0x03)\n      dup2\n      jump\t// out\n        /* \"#utility.yul\":7:146   */\n    tag_46:\n      0x00\n        /* \"#utility.yul\":91:97   */\n      dup2\n        /* \"#utility.yul\":78:98   */\n      calldataload\n        /* \"#utility.yul\":69:98   */\n      swap1\n      pop\n        /* \"#utility.yul\":107:140   */\n      tag_48\n        /* \"#utility.yul\":134:139   */\n      dup2\n        /* \"#utility.yul\":107:140   */\n      tag_49\n      jump\t// in\n    tag_48:\n        /* \"#utility.yul\":59:146   */\n      swap3\n      swap2\n      pop\n      pop\n      jump\t// out\n        /* \"#utility.yul\":152:850   */\n    tag_21:\n      0x00\n      dup1\n      0x00\n      dup1\n        /* \"#utility.yul\":311:314   */\n      0x80\n        /* \"#utility.yul\":299:308   */\n      dup6\n        /* \"#utility.yul\":290:297   */\n      dup8\n        /* \"#utility.yul\":286:309   */\n      sub\n        /* \"#utility.yul\":282:315   */\n      slt\n        /* \"#utility.yul\":279:281   */\n      iszero\n      tag_51\n      jumpi\n        /* \"#utility.yul\":328:329   */\n      0x00\n        /* \"#utility.yul\":325:326   */\n      dup1\n        /* \"#utility.yul\":318:330   */\n      revert\n        /* \"#utility.yul\":279:281   */\n    tag_51:\n        /* \"#utility.yul\":371:372   */\n      0x00\n        /* \"#utility.yul\":396:449   */\n      tag_52\n        /* \"#utility.yul\":441:448   */\n      dup8\n        /* \"#utility.yul\":432:438   */\n      dup3\n        /* \"#utility.yul\":421:430   */\n      dup9\n        /* \"#utility.yul\":417:439   */\n      add\n        /* \"#utility.yul\":396:449   */\n      tag_46\n      jump\t// in\n    tag_52:\n        /* \"#utility.yul\":386:449   */\n      swap5\n      pop\n        /* \"#utility.yul\":342:459   */\n      pop\n        /* \"#utility.yul\":498:500   */\n      0x20\n        /* \"#utility.yul\":524:577   */\n      tag_53\n        /* \"#utility.yul\":569:576   */\n      dup8\n        /* \"#utility.yul\":560:566   */\n      dup3\n        /* \"#utility.yul\":549:558   */\n      dup9\n        /* \"#utility.yul\":545:567   */\n      add\n        /* \"#utility.yul\":524:577   */\n      tag_46\n      jump\t// in\n    tag_53:\n        /* \"#utility.yul\":514:577   */\n      swap4\n      pop\n        /* \"#utility.yul\":469:587   */\n      pop\n        /* \"#utility.yul\":626:628   */\n      0x40\n        /* \"#utility.yul\":652:705   */\n      tag_54\n        /* \"#utility.yul\":697:704   */\n      dup8\n        /* \"#utility.yul\":688:694   */\n      dup3\n        /* \"#utility.yul\":677:686   */\n      dup9\n        /* \"#utility.yul\":673:695   */\n      add\n        /* \"#utility.yul\":652:705   */\n      tag_46\n      jump\t// in\n    tag_54:\n        /* \"#utility.yul\":642:705   */\n      swap3\n      pop\n        /* \"#utility.yul\":597:715   */\n      pop\n        /* \"#utility.yul\":754:756   */\n      0x60\n        /* \"#utility.yul\":780:833   */\n      tag_55\n        /* \"#utility.yul\":825:832   */\n      dup8\n        /* \"#utility.yul\":816:822   */\n      dup3\n        /* \"#utility.yul\":805:814   */\n      dup9\n        /* \"#utility.yul\":801:823   */\n      add\n        /* \"#utility.yul\":780:833   */\n      tag_46\n      jump\t// in\n    tag_55:\n        /* \"#utility.yul\":770:833   */\n      swap2\n      pop\n        /* \"#utility.yul\":725:843   */\n      pop\n        /* \"#utility.yul\":269:850   */\n      swap3\n      swap6\n      swap2\n      swap5\n      pop\n      swap3\n      pop\n      jump\t// out\n        /* \"#utility.yul\":856:965   */\n    tag_56:\n        /* \"#utility.yul\":937:958   */\n      tag_58\n        /* \"#utility.yul\":952:957   */\n      dup2\n        /* \"#utility.yul\":937:958   */\n      tag_59\n      jump\t// in\n    tag_58:\n        /* \"#utility.yul\":932:935   */\n      dup3\n        /* \"#utility.yul\":925:959   */\n      mstore\n        /* \"#utility.yul\":915:965   */\n      pop\n      pop\n      jump\t// out\n        /* \"#utility.yul\":971:1089   */\n    tag_60:\n        /* \"#utility.yul\":1058:1082   */\n      tag_62\n        /* \"#utility.yul\":1076:1081   */\n      dup2\n        /* \"#utility.yul\":1058:1082   */\n      tag_63\n      jump\t// in\n    tag_62:\n        /* \"#utility.yul\":1053:1056   */\n      dup3\n        /* \"#utility.yul\":1046:1083   */\n      mstore\n        /* \"#utility.yul\":1036:1089   */\n      pop\n      pop\n      jump\t// out\n        /* \"#utility.yul\":1095:1305   */\n    tag_18:\n      0x00\n        /* \"#utility.yul\":1220:1222   */\n      0x20\n        /* \"#utility.yul\":1209:1218   */\n      dup3\n        /* \"#utility.yul\":1205:1223   */\n      add\n        /* \"#utility.yul\":1197:1223   */\n      swap1\n      pop\n        /* \"#utility.yul\":1233:1298   */\n      tag_65\n        /* \"#utility.yul\":1295:1296   */\n      0x00\n        /* \"#utility.yul\":1284:1293   */\n      dup4\n        /* \"#utility.yul\":1280:1297   */\n      add\n        /* \"#utility.yul\":1271:1277   */\n      dup5\n        /* \"#utility.yul\":1233:1298   */\n      tag_56\n      jump\t// in\n    tag_65:\n        /* \"#utility.yul\":1187:1305   */\n      swap3\n      swap2\n      pop\n      pop\n      jump\t// out\n        /* \"#utility.yul\":1311:1533   */\n    tag_14:\n      0x00\n        /* \"#utility.yul\":1442:1444   */\n      0x20\n        /* \"#utility.yul\":1431:1440   */\n      dup3\n        /* \"#utility.yul\":1427:1445   */\n      add\n        /* \"#utility.yul\":1419:1445   */\n      swap1\n      pop\n        /* \"#utility.yul\":1455:1526   */\n      tag_67\n        /* \"#utility.yul\":1523:1524   */\n      0x00\n        /* \"#utility.yul\":1512:1521   */\n      dup4\n        /* \"#utility.yul\":1508:1525   */\n      add\n        /* \"#utility.yul\":1499:1505   */\n      dup5\n        /* \"#utility.yul\":1455:1526   */\n      tag_60\n      jump\t// in\n    tag_67:\n        /* \"#utility.yul\":1409:1533   */\n      swap3\n      swap2\n      pop\n      pop\n      jump\t// out\n        /* \"#utility.yul\":1539:1730   */\n    tag_43:\n      0x00\n        /* \"#utility.yul\":1599:1619   */\n      tag_69\n        /* \"#utility.yul\":1617:1618   */\n      dup3\n        /* \"#utility.yul\":1599:1619   */\n      tag_63\n      jump\t// in\n    tag_69:\n        /* \"#utility.yul\":1594:1619   */\n      swap2\n      pop\n        /* \"#utility.yul\":1633:1653   */\n      tag_70\n        /* \"#utility.yul\":1651:1652   */\n      dup4\n        /* \"#utility.yul\":1633:1653   */\n      tag_63\n      jump\t// in\n    tag_70:\n        /* \"#utility.yul\":1628:1653   */\n      swap3\n      pop\n        /* \"#utility.yul\":1672:1673   */\n      dup3\n        /* \"#utility.yul\":1669:1670   */\n      dup3\n        /* \"#utility.yul\":1666:1674   */\n      lt\n        /* \"#utility.yul\":1663:1665   */\n      iszero\n      tag_71\n      jumpi\n        /* \"#utility.yul\":1677:1695   */\n      tag_72\n      tag_73\n      jump\t// in\n    tag_72:\n        /* \"#utility.yul\":1663:1665   */\n    tag_71:\n        /* \"#utility.yul\":1722:1723   */\n      dup3\n        /* \"#utility.yul\":1719:1720   */\n      dup3\n        /* \"#utility.yul\":1715:1724   */\n      sub\n        /* \"#utility.yul\":1707:1724   */\n      swap1\n      pop\n        /* \"#utility.yul\":1584:1730   */\n      swap3\n      swap2\n      pop\n      pop\n      jump\t// out\n        /* \"#utility.yul\":1736:1826   */\n    tag_59:\n      0x00\n        /* \"#utility.yul\":1813:1818   */\n      dup2\n        /* \"#utility.yul\":1806:1819   */\n      iszero\n        /* \"#utility.yul\":1799:1820   */\n      iszero\n        /* \"#utility.yul\":1788:1820   */\n      swap1\n      pop\n        /* \"#utility.yul\":1778:1826   */\n      swap2\n      swap1\n      pop\n      jump\t// out\n        /* \"#utility.yul\":1832:1909   */\n    tag_63:\n      0x00\n        /* \"#utility.yul\":1898:1903   */\n      dup2\n        /* \"#utility.yul\":1887:1903   */\n      swap1\n      pop\n        /* \"#utility.yul\":1877:1909   */\n      swap2\n      swap1\n      pop\n      jump\t// out\n        /* \"#utility.yul\":1915:2095   */\n    tag_73:\n        /* \"#utility.yul\":1963:2040   */\n      0x4e487b7100000000000000000000000000000000000000000000000000000000\n        /* \"#utility.yul\":1960:1961   */\n      0x00\n        /* \"#utility.yul\":1953:2041   */\n      mstore\n        /* \"#utility.yul\":2060:2064   */\n      0x11\n        /* \"#utility.yul\":2057:2058   */\n      0x04\n        /* \"#utility.yul\":2050:2065   */\n      mstore\n        /* \"#utility.yul\":2084:2088   */\n      0x24\n        /* \"#utility.yul\":2081:2082   */\n      0x00\n        /* \"#utility.yul\":2074:2089   */\n      revert\n        /* \"#utility.yul\":2101:2223   */\n    tag_49:\n        /* \"#utility.yul\":2174:2198   */\n      tag_78\n        /* \"#utility.yul\":2192:2197   */\n      dup2\n        /* \"#utility.yul\":2174:2198   */\n      tag_63\n      jump\t// in\n    tag_78:\n        /* \"#utility.yul\":2167:2172   */\n      dup2\n        /* \"#utility.yul\":2164:2199   */\n      eq\n        /* \"#utility.yul\":2154:2156   */\n      tag_79\n      jumpi\n        /* \"#utility.yul\":2213:2214   */\n      0x00\n        /* \"#utility.yul\":2210:2211   */\n      dup1\n        /* \"#utility.yul\":2203:2215   */\n      revert\n        /* \"#utility.yul\":2154:2156   */\n    tag_79:\n        /* \"#utility.yul\":2144:2223   */\n      pop\n      jump\t// out\n\n    auxdata: 0xa2646970667358221220e6bc52c7b06768fbe7cf74119453f4043b426f61201f13587bf2f2010db174ef64736f6c63430008000033\n}\n",
				"bytecode": {
					"linkReferences": {},
					"object": "60806040526001600560006101000a81548160ff02191690831515021790555034801561002b57600080fd5b506103d78061003b6000396000f3fe608060405234801561001057600080fd5b506004361061007d5760003560e01c8063a113efa31161005b578063a113efa3146100da578063ab09891d146100f8578063adccea1214610116578063d75acda1146101345761007d565b806352b74691146100825780638f5949f9146100a057806396af2ca6146100be575b600080fd5b61008a610152565b60405161009791906102f6565b60405180910390f35b6100a8610158565b6040516100b591906102db565b60405180910390f35b6100d860048036038101906100d3919061025a565b61016b565b005b6100e261022d565b6040516100ef91906102f6565b60405180910390f35b610100610233565b60405161010d91906102f6565b60405180910390f35b61011e610239565b60405161012b91906102f6565b60405180910390f35b61013c61023f565b60405161014991906102f6565b60405180910390f35b60045481565b600560009054906101000a900460ff1681565b836000819055508260018190555081600281905550806003819055506009600054108061019a5750601a600054115b806101a757506046600254105b806101b45750606e600254115b806101c157506001600354145b156101e2576000600560006101000a81548160ff0219169083151502179055505b600160035414156101f557426004819055505b600a600454426102059190610311565b1115610227576000600560006101000a81548160ff0219169083151502179055505b50505050565b60015481565b60025481565b60005481565b60035481565b6000813590506102548161038a565b92915050565b6000806000806080858703121561027057600080fd5b600061027e87828801610245565b945050602061028f87828801610245565b93505060406102a087828801610245565b92505060606102b187828801610245565b91505092959194509250565b6102c681610345565b82525050565b6102d581610351565b82525050565b60006020820190506102f060008301846102bd565b92915050565b600060208201905061030b60008301846102cc565b92915050565b600061031c82610351565b915061032783610351565b92508282101561033a5761033961035b565b5b828203905092915050565b60008115159050919050565b6000819050919050565b7f4e487b7100000000000000000000000000000000000000000000000000000000600052601160045260246000fd5b61039381610351565b811461039e57600080fd5b5056fea2646970667358221220e6bc52c7b06768fbe7cf74119453f4043b426f61201f13587bf2f2010db174ef64736f6c63430008000033",
					"opcodes": "PUSH1 0x80 PUSH1 0x40 MSTORE PUSH1 0x1 PUSH1 0x5 PUSH1 0x0 PUSH2 0x100 EXP DUP2 SLOAD DUP2 PUSH1 0xFF MUL NOT AND SWAP1 DUP4 ISZERO ISZERO MUL OR SWAP1 SSTORE POP CALLVALUE DUP1 ISZERO PUSH2 0x2B JUMPI PUSH1 0x0 DUP1 REVERT JUMPDEST POP PUSH2 0x3D7 DUP1 PUSH2 0x3B PUSH1 0x0 CODECOPY PUSH1 0x0 RETURN INVALID PUSH1 0x80 PUSH1 0x40 MSTORE CALLVALUE DUP1 ISZERO PUSH2 0x10 JUMPI PUSH1 0x0 DUP1 REVERT JUMPDEST POP PUSH1 0x4 CALLDATASIZE LT PUSH2 0x7D JUMPI PUSH1 0x0 CALLDATALOAD PUSH1 0xE0 SHR DUP1 PUSH4 0xA113EFA3 GT PUSH2 0x5B JUMPI DUP1 PUSH4 0xA113EFA3 EQ PUSH2 0xDA JUMPI DUP1 PUSH4 0xAB09891D EQ PUSH2 0xF8 JUMPI DUP1 PUSH4 0xADCCEA12 EQ PUSH2 0x116 JUMPI DUP1 PUSH4 0xD75ACDA1 EQ PUSH2 0x134 JUMPI PUSH2 0x7D JUMP JUMPDEST DUP1 PUSH4 0x52B74691 EQ PUSH2 0x82 JUMPI DUP1 PUSH4 0x8F5949F9 EQ PUSH2 0xA0 JUMPI DUP1 PUSH4 0x96AF2CA6 EQ PUSH2 0xBE JUMPI JUMPDEST PUSH1 0x0 DUP1 REVERT JUMPDEST PUSH2 0x8A PUSH2 0x152 JUMP JUMPDEST PUSH1 0x40 MLOAD PUSH2 0x97 SWAP2 SWAP1 PUSH2 0x2F6 JUMP JUMPDEST PUSH1 0x40 MLOAD DUP1 SWAP2 SUB SWAP1 RETURN JUMPDEST PUSH2 0xA8 PUSH2 0x158 JUMP JUMPDEST PUSH1 0x40 MLOAD PUSH2 0xB5 SWAP2 SWAP1 PUSH2 0x2DB JUMP JUMPDEST PUSH1 0x40 MLOAD DUP1 SWAP2 SUB SWAP1 RETURN JUMPDEST PUSH2 0xD8 PUSH1 0x4 DUP1 CALLDATASIZE SUB DUP2 ADD SWAP1 PUSH2 0xD3 SWAP2 SWAP1 PUSH2 0x25A JUMP JUMPDEST PUSH2 0x16B JUMP JUMPDEST STOP JUMPDEST PUSH2 0xE2 PUSH2 0x22D JUMP JUMPDEST PUSH1 0x40 MLOAD PUSH2 0xEF SWAP2 SWAP1 PUSH2 0x2F6 JUMP JUMPDEST PUSH1 0x40 MLOAD DUP1 SWAP2 SUB SWAP1 RETURN JUMPDEST PUSH2 0x100 PUSH2 0x233 JUMP JUMPDEST PUSH1 0x40 MLOAD PUSH2 0x10D SWAP2 SWAP1 PUSH2 0x2F6 JUMP JUMPDEST PUSH1 0x40 MLOAD DUP1 SWAP2 SUB SWAP1 RETURN JUMPDEST PUSH2 0x11E PUSH2 0x239 JUMP JUMPDEST PUSH1 0x40 MLOAD PUSH2 0x12B SWAP2 SWAP1 PUSH2 0x2F6 JUMP JUMPDEST PUSH1 0x40 MLOAD DUP1 SWAP2 SUB SWAP1 RETURN JUMPDEST PUSH2 0x13C PUSH2 0x23F JUMP JUMPDEST PUSH1 0x40 MLOAD PUSH2 0x149 SWAP2 SWAP1 PUSH2 0x2F6 JUMP JUMPDEST PUSH1 0x40 MLOAD DUP1 SWAP2 SUB SWAP1 RETURN JUMPDEST PUSH1 0x4 SLOAD DUP2 JUMP JUMPDEST PUSH1 0x5 PUSH1 0x0 SWAP1 SLOAD SWAP1 PUSH2 0x100 EXP SWAP1 DIV PUSH1 0xFF AND DUP2 JUMP JUMPDEST DUP4 PUSH1 0x0 DUP2 SWAP1 SSTORE POP DUP3 PUSH1 0x1 DUP2 SWAP1 SSTORE POP DUP2 PUSH1 0x2 DUP2 SWAP1 SSTORE POP DUP1 PUSH1 0x3 DUP2 SWAP1 SSTORE POP PUSH1 0x9 PUSH1 0x0 SLOAD LT DUP1 PUSH2 0x19A JUMPI POP PUSH1 0x1A PUSH1 0x0 SLOAD GT JUMPDEST DUP1 PUSH2 0x1A7 JUMPI POP PUSH1 0x46 PUSH1 0x2 SLOAD LT JUMPDEST DUP1 PUSH2 0x1B4 JUMPI POP PUSH1 0x6E PUSH1 0x2 SLOAD GT JUMPDEST DUP1 PUSH2 0x1C1 JUMPI POP PUSH1 0x1 PUSH1 0x3 SLOAD EQ JUMPDEST ISZERO PUSH2 0x1E2 JUMPI PUSH1 0x0 PUSH1 0x5 PUSH1 0x0 PUSH2 0x100 EXP DUP2 SLOAD DUP2 PUSH1 0xFF MUL NOT AND SWAP1 DUP4 ISZERO ISZERO MUL OR SWAP1 SSTORE POP JUMPDEST PUSH1 0x1 PUSH1 0x3 SLOAD EQ ISZERO PUSH2 0x1F5 JUMPI TIMESTAMP PUSH1 0x4 DUP2 SWAP1 SSTORE POP JUMPDEST PUSH1 0xA PUSH1 0x4 SLOAD TIMESTAMP PUSH2 0x205 SWAP2 SWAP1 PUSH2 0x311 JUMP JUMPDEST GT ISZERO PUSH2 0x227 JUMPI PUSH1 0x0 PUSH1 0x5 PUSH1 0x0 PUSH2 0x100 EXP DUP2 SLOAD DUP2 PUSH1 0xFF MUL NOT AND SWAP1 DUP4 ISZERO ISZERO MUL OR SWAP1 SSTORE POP JUMPDEST POP POP POP POP JUMP JUMPDEST PUSH1 0x1 SLOAD DUP2 JUMP JUMPDEST PUSH1 0x2 SLOAD DUP2 JUMP JUMPDEST PUSH1 0x0 SLOAD DUP2 JUMP JUMPDEST PUSH1 0x3 SLOAD DUP2 JUMP JUMPDEST PUSH1 0x0 DUP2 CALLDATALOAD SWAP1 POP PUSH2 0x254 DUP2 PUSH2 0x38A JUMP JUMPDEST SWAP3 SWAP2 POP POP JUMP JUMPDEST PUSH1 0x0 DUP1 PUSH1 0x0 DUP1 PUSH1 0x80 DUP6 DUP8 SUB SLT ISZERO PUSH2 0x270 JUMPI PUSH1 0x0 DUP1 REVERT JUMPDEST PUSH1 0x0 PUSH2 0x27E DUP8 DUP3 DUP9 ADD PUSH2 0x245 JUMP JUMPDEST SWAP5 POP POP PUSH1 0x20 PUSH2 0x28F DUP8 DUP3 DUP9 ADD PUSH2 0x245 JUMP JUMPDEST SWAP4 POP POP PUSH1 0x40 PUSH2 0x2A0 DUP8 DUP3 DUP9 ADD PUSH2 0x245 JUMP JUMPDEST SWAP3 POP POP PUSH1 0x60 PUSH2 0x2B1 DUP8 DUP3 DUP9 ADD PUSH2 0x245 JUMP JUMPDEST SWAP2 POP POP SWAP3 SWAP6 SWAP2 SWAP5 POP SWAP3 POP JUMP JUMPDEST PUSH2 0x2C6 DUP2 PUSH2 0x345 JUMP JUMPDEST DUP3 MSTORE POP POP JUMP JUMPDEST PUSH2 0x2D5 DUP2 PUSH2 0x351 JUMP JUMPDEST DUP3 MSTORE POP POP JUMP JUMPDEST PUSH1 0x0 PUSH1 0x20 DUP3 ADD SWAP1 POP PUSH2 0x2F0 PUSH1 0x0 DUP4 ADD DUP5 PUSH2 0x2BD JUMP JUMPDEST SWAP3 SWAP2 POP POP JUMP JUMPDEST PUSH1 0x0 PUSH1 0x20 DUP3 ADD SWAP1 POP PUSH2 0x30B PUSH1 0x0 DUP4 ADD DUP5 PUSH2 0x2CC JUMP JUMPDEST SWAP3 SWAP2 POP POP JUMP JUMPDEST PUSH1 0x0 PUSH2 0x31C DUP3 PUSH2 0x351 JUMP JUMPDEST SWAP2 POP PUSH2 0x327 DUP4 PUSH2 0x351 JUMP JUMPDEST SWAP3 POP DUP3 DUP3 LT ISZERO PUSH2 0x33A JUMPI PUSH2 0x339 PUSH2 0x35B JUMP JUMPDEST JUMPDEST DUP3 DUP3 SUB SWAP1 POP SWAP3 SWAP2 POP POP JUMP JUMPDEST PUSH1 0x0 DUP2 ISZERO ISZERO SWAP1 POP SWAP2 SWAP1 POP JUMP JUMPDEST PUSH1 0x0 DUP2 SWAP1 POP SWAP2 SWAP1 POP JUMP JUMPDEST PUSH32 0x4E487B7100000000000000000000000000000000000000000000000000000000 PUSH1 0x0 MSTORE PUSH1 0x11 PUSH1 0x4 MSTORE PUSH1 0x24 PUSH1 0x0 REVERT JUMPDEST PUSH2 0x393 DUP2 PUSH2 0x351 JUMP JUMPDEST DUP2 EQ PUSH2 0x39E JUMPI PUSH1 0x0 DUP1 REVERT JUMPDEST POP JUMP INVALID LOG2 PUSH5 0x6970667358 0x22 SLT KECCAK256 0xE6 0xBC MSTORE 0xC7 0xB0 PUSH8 0x68FBE7CF74119453 DELEGATECALL DIV EXTCODESIZE TIMESTAMP PUSH16 0x61201F13587BF2F2010DB174EF64736F PUSH13 0x63430008000033000000000000 "
				},
				"gasEstimates": {
					"creation": {
						"codeDepositCost": "196600",
						"executionCost": "21105",
						"totalCost": "217705"
					},
					"external": {
						"humidity()": "1129",
						"isContractActive()": "1194",
						"lastVibrationTime()": "1130",
						"pressure()": "1151",
						"setSensorValues(uint256,uint256,uint256,uint256)": "infinite",
						"temperature()": "1173",
						"vibration()": "1195"
					}
				},
				"methodIdentifiers": {
					"humidity()": "a113efa3",
					"isContractActive()": "8f5949f9",
					"lastVibrationTime()": "52b74691",
					"pressure()": "ab09891d",
					"setSensorValues(uint256,uint256,uint256,uint256)": "96af2ca6",
					"temperature()": "adccea12",
					"vibration()": "d75acda1"
				}
			},
			"storageLayout": {
				"storage": [
					{
						"astId": 3,
						"contract": "contracts/Sensor.sol:SensorContract",
						"label": "temperature",
						"offset": 0,
						"slot": "0",
						"type": "t_uint256"
					},
					{
						"astId": 5,
						"contract": "contracts/Sensor.sol:SensorContract",
						"label": "humidity",
						"offset": 0,
						"slot": "1",
						"type": "t_uint256"
					},
					{
						"astId": 7,
						"contract": "contracts/Sensor.sol:SensorContract",
						"label": "pressure",
						"offset": 0,
						"slot": "2",
						"type": "t_uint256"
					},
					{
						"astId": 9,
						"contract": "contracts/Sensor.sol:SensorContract",
						"label": "vibration",
						"offset": 0,
						"slot": "3",
						"type": "t_uint256"
					},
					{
						"astId": 11,
						"contract": "contracts/Sensor.sol:SensorContract",
						"label": "lastVibrationTime",
						"offset": 0,
						"slot": "4",
						"type": "t_uint256"
					},
					{
						"astId": 14,
						"contract": "contracts/Sensor.sol:SensorContract",
						"label": "isContractActive",
						"offset": 0,
						"slot": "5",
						"type": "t_bool"
					}
				],
				"types": {
					"t_bool": {
						"encoding": "inplace",
						"label": "bool",
						"numberOfBytes": "1"
					},
					"t_uint256": {
						"encoding": "inplace",
						"label": "uint256",
						"numberOfBytes": "32"
					}
				}
			},
			"userdoc": {
				"kind": "user",
				"methods": {},
				"version": 1
			}
		}
	}
}