{
	"contracts/dvd.sol": {
		"SensorContract": {
			"abi": [
				{
					"inputs": [
						{
							"internalType": "address payable",
							"name": "_productOwner",
							"type": "address"
						}
					],
					"stateMutability": "payable",
					"type": "constructor"
				},
				{
					"inputs": [],
					"name": "checkContractExpiry",
					"outputs": [],
					"stateMutability": "nonpayable",
					"type": "function"
				},
				{
					"inputs": [],
					"name": "conditionViolated",
					"outputs": [
						{
							"internalType": "bool",
							"name": "",
							"type": "bool"
						}
					],
					"stateMutability": "view",
					"type": "function"
				},
				{
					"inputs": [],
					"name": "contractCost",
					"outputs": [
						{
							"internalType": "uint256",
							"name": "",
							"type": "uint256"
						}
					],
					"stateMutability": "view",
					"type": "function"
				},
				{
					"inputs": [],
					"name": "contractExpired",
					"outputs": [
						{
							"internalType": "bool",
							"name": "",
							"type": "bool"
						}
					],
					"stateMutability": "view",
					"type": "function"
				},
				{
					"inputs": [],
					"name": "endTime",
					"outputs": [
						{
							"internalType": "uint256",
							"name": "",
							"type": "uint256"
						}
					],
					"stateMutability": "view",
					"type": "function"
				},
				{
					"inputs": [],
					"name": "getHumidity",
					"outputs": [
						{
							"internalType": "uint256",
							"name": "",
							"type": "uint256"
						}
					],
					"stateMutability": "view",
					"type": "function"
				},
				{
					"inputs": [],
					"name": "getPressure",
					"outputs": [
						{
							"internalType": "uint256",
							"name": "",
							"type": "uint256"
						}
					],
					"stateMutability": "view",
					"type": "function"
				},
				{
					"inputs": [],
					"name": "getTemperature",
					"outputs": [
						{
							"internalType": "uint256",
							"name": "",
							"type": "uint256"
						}
					],
					"stateMutability": "view",
					"type": "function"
				},
				{
					"inputs": [],
					"name": "getVibration",
					"outputs": [
						{
							"internalType": "uint256",
							"name": "",
							"type": "uint256"
						}
					],
					"stateMutability": "view",
					"type": "function"
				},
				{
					"inputs": [],
					"name": "isContractActive",
					"outputs": [
						{
							"internalType": "bool",
							"name": "",
							"type": "bool"
						}
					],
					"stateMutability": "view",
					"type": "function"
				},
				{
					"inputs": [],
					"name": "productOwner",
					"outputs": [
						{
							"internalType": "address payable",
							"name": "",
							"type": "address"
						}
					],
					"stateMutability": "view",
					"type": "function"
				},
				{
					"inputs": [],
					"name": "startTime",
					"outputs": [
						{
							"internalType": "uint256",
							"name": "",
							"type": "uint256"
						}
					],
					"stateMutability": "view",
					"type": "function"
				},
				{
					"inputs": [],
					"name": "transporter",
					"outputs": [
						{
							"internalType": "address payable",
							"name": "",
							"type": "address"
						}
					],
					"stateMutability": "view",
					"type": "function"
				},
				{
					"inputs": [
						{
							"internalType": "uint256",
							"name": "_temperature",
							"type": "uint256"
						},
						{
							"internalType": "uint256",
							"name": "_humidity",
							"type": "uint256"
						},
						{
							"internalType": "uint256",
							"name": "_pressure",
							"type": "uint256"
						},
						{
							"internalType": "uint256",
							"name": "_vibration",
							"type": "uint256"
						}
					],
					"name": "updateConditions",
					"outputs": [],
					"stateMutability": "nonpayable",
					"type": "function"
				}
			],
			"devdoc": {
				"kind": "dev",
				"methods": {},
				"version": 1
			},
			"evm": {
				"assembly": "    /* \"contracts/dvd.sol\":62:2398  contract SensorContract{\r... */\n  mstore(0x40, 0x80)\n    /* \"contracts/dvd.sol\":267:274  2 ether */\n  0x1bc16d674ec80000\n    /* \"contracts/dvd.sol\":237:274  uint256 public contractCost = 2 ether */\n  0x04\n  sstore\n    /* \"contracts/dvd.sol\":311:316  false */\n  0x00\n    /* \"contracts/dvd.sol\":281:316  bool public contractExpired = false */\n  0x05\n  exp(0x0100, 0x00)\n  dup2\n  sload\n  dup2\n  0xff\n  mul\n  not\n  and\n  swap1\n  dup4\n  iszero\n  iszero\n  mul\n  or\n  swap1\n  sstore\n  pop\n    /* \"contracts/dvd.sol\":355:360  false */\n  0x00\n    /* \"contracts/dvd.sol\":323:360  bool public conditionViolated = false */\n  0x05\n  exp(0x0100, 0x01)\n  dup2\n  sload\n  dup2\n  0xff\n  mul\n  not\n  and\n  swap1\n  dup4\n  iszero\n  iszero\n  mul\n  or\n  swap1\n  sstore\n  pop\n    /* \"contracts/dvd.sol\":526:530  true */\n  0x01\n    /* \"contracts/dvd.sol\":495:530  bool public isContractActive = true */\n  0x0a\n  exp(0x0100, 0x00)\n  dup2\n  sload\n  dup2\n  0xff\n  mul\n  not\n  and\n  swap1\n  dup4\n  iszero\n  iszero\n  mul\n  or\n  swap1\n  sstore\n  pop\n    /* \"contracts/dvd.sol\":539:838  constructor(address payable _productOwner) payable {\r... */\n  mload(0x40)\n  sub(codesize, bytecodeSize)\n  dup1\n  bytecodeSize\n  dup4\n  codecopy\n  dup2\n  dup2\n  add\n  0x40\n  mstore\n  dup2\n  add\n  swap1\n  tag_1\n  swap2\n  swap1\n  tag_2\n  jump\t// in\ntag_1:\n    /* \"contracts/dvd.sol\":622:634  contractCost */\n  sload(0x04)\n    /* \"contracts/dvd.sol\":609:618  msg.value */\n  callvalue\n    /* \"contracts/dvd.sol\":609:634  msg.value == contractCost */\n  eq\n    /* \"contracts/dvd.sol\":601:668  require(msg.value == contractCost, \"Contract cost must be 2 ether\") */\n  tag_5\n  jumpi\n  mload(0x40)\n  0x08c379a000000000000000000000000000000000000000000000000000000000\n  dup2\n  mstore\n  0x04\n  add\n  tag_6\n  swap1\n  tag_7\n  jump\t// in\ntag_6:\n  mload(0x40)\n  dup1\n  swap2\n  sub\n  swap1\n  revert\ntag_5:\n    /* \"contracts/dvd.sol\":701:711  msg.sender */\n  caller\n    /* \"contracts/dvd.sol\":679:690  transporter */\n  0x00\n  dup1\n    /* \"contracts/dvd.sol\":679:712  transporter = payable(msg.sender) */\n  0x0100\n  exp\n  dup2\n  sload\n  dup2\n  0xffffffffffffffffffffffffffffffffffffffff\n  mul\n  not\n  and\n  swap1\n  dup4\n  0xffffffffffffffffffffffffffffffffffffffff\n  and\n  mul\n  or\n  swap1\n  sstore\n  pop\n    /* \"contracts/dvd.sol\":738:751  _productOwner */\n  dup1\n    /* \"contracts/dvd.sol\":723:735  productOwner */\n  0x01\n  0x00\n    /* \"contracts/dvd.sol\":723:751  productOwner = _productOwner */\n  0x0100\n  exp\n  dup2\n  sload\n  dup2\n  0xffffffffffffffffffffffffffffffffffffffff\n  mul\n  not\n  and\n  swap1\n  dup4\n  0xffffffffffffffffffffffffffffffffffffffff\n  and\n  mul\n  or\n  swap1\n  sstore\n  pop\n    /* \"contracts/dvd.sol\":774:789  block.timestamp */\n  timestamp\n    /* \"contracts/dvd.sol\":762:771  startTime */\n  0x02\n    /* \"contracts/dvd.sol\":762:789  startTime = block.timestamp */\n  dup2\n  swap1\n  sstore\n  pop\n    /* \"contracts/dvd.sol\":822:830  48 hours */\n  0x02a300\n    /* \"contracts/dvd.sol\":810:819  startTime */\n  sload(0x02)\n    /* \"contracts/dvd.sol\":810:830  startTime + 48 hours */\n  tag_8\n  swap2\n  swap1\n  tag_9\n  jump\t// in\ntag_8:\n    /* \"contracts/dvd.sol\":800:807  endTime */\n  0x03\n    /* \"contracts/dvd.sol\":800:830  endTime = startTime + 48 hours */\n  dup2\n  swap1\n  sstore\n  pop\n    /* \"contracts/dvd.sol\":539:838  constructor(address payable _productOwner) payable {\r... */\n  pop\n    /* \"contracts/dvd.sol\":62:2398  contract SensorContract{\r... */\n  jump(tag_10)\n    /* \"#utility.yul\":7:166   */\ntag_12:\n  0x00\n    /* \"#utility.yul\":103:109   */\n  dup2\n    /* \"#utility.yul\":97:110   */\n  mload\n    /* \"#utility.yul\":88:110   */\n  swap1\n  pop\n    /* \"#utility.yul\":119:160   */\n  tag_14\n    /* \"#utility.yul\":154:159   */\n  dup2\n    /* \"#utility.yul\":119:160   */\n  tag_15\n  jump\t// in\ntag_14:\n    /* \"#utility.yul\":78:166   */\n  swap3\n  swap2\n  pop\n  pop\n  jump\t// out\n    /* \"#utility.yul\":172:472   */\ntag_2:\n  0x00\n    /* \"#utility.yul\":299:301   */\n  0x20\n    /* \"#utility.yul\":287:296   */\n  dup3\n    /* \"#utility.yul\":278:285   */\n  dup5\n    /* \"#utility.yul\":274:297   */\n  sub\n    /* \"#utility.yul\":270:302   */\n  slt\n    /* \"#utility.yul\":267:269   */\n  iszero\n  tag_17\n  jumpi\n    /* \"#utility.yul\":315:316   */\n  0x00\n    /* \"#utility.yul\":312:313   */\n  dup1\n    /* \"#utility.yul\":305:317   */\n  revert\n    /* \"#utility.yul\":267:269   */\ntag_17:\n    /* \"#utility.yul\":358:359   */\n  0x00\n    /* \"#utility.yul\":383:455   */\n  tag_18\n    /* \"#utility.yul\":447:454   */\n  dup5\n    /* \"#utility.yul\":438:444   */\n  dup3\n    /* \"#utility.yul\":427:436   */\n  dup6\n    /* \"#utility.yul\":423:445   */\n  add\n    /* \"#utility.yul\":383:455   */\n  tag_12\n  jump\t// in\ntag_18:\n    /* \"#utility.yul\":373:455   */\n  swap2\n  pop\n    /* \"#utility.yul\":329:465   */\n  pop\n    /* \"#utility.yul\":257:472   */\n  swap3\n  swap2\n  pop\n  pop\n  jump\t// out\n    /* \"#utility.yul\":478:844   */\ntag_19:\n  0x00\n    /* \"#utility.yul\":641:708   */\n  tag_21\n    /* \"#utility.yul\":705:707   */\n  0x1d\n    /* \"#utility.yul\":700:703   */\n  dup4\n    /* \"#utility.yul\":641:708   */\n  tag_22\n  jump\t// in\ntag_21:\n    /* \"#utility.yul\":634:708   */\n  swap2\n  pop\n    /* \"#utility.yul\":717:810   */\n  tag_23\n    /* \"#utility.yul\":806:809   */\n  dup3\n    /* \"#utility.yul\":717:810   */\n  tag_24\n  jump\t// in\ntag_23:\n    /* \"#utility.yul\":835:837   */\n  0x20\n    /* \"#utility.yul\":830:833   */\n  dup3\n    /* \"#utility.yul\":826:838   */\n  add\n    /* \"#utility.yul\":819:838   */\n  swap1\n  pop\n    /* \"#utility.yul\":624:844   */\n  swap2\n  swap1\n  pop\n  jump\t// out\n    /* \"#utility.yul\":850:1269   */\ntag_7:\n  0x00\n    /* \"#utility.yul\":1054:1056   */\n  0x20\n    /* \"#utility.yul\":1043:1052   */\n  dup3\n    /* \"#utility.yul\":1039:1057   */\n  add\n    /* \"#utility.yul\":1031:1057   */\n  swap1\n  pop\n    /* \"#utility.yul\":1103:1112   */\n  dup2\n    /* \"#utility.yul\":1097:1101   */\n  dup2\n    /* \"#utility.yul\":1093:1113   */\n  sub\n    /* \"#utility.yul\":1089:1090   */\n  0x00\n    /* \"#utility.yul\":1078:1087   */\n  dup4\n    /* \"#utility.yul\":1074:1091   */\n  add\n    /* \"#utility.yul\":1067:1114   */\n  mstore\n    /* \"#utility.yul\":1131:1262   */\n  tag_26\n    /* \"#utility.yul\":1257:1261   */\n  dup2\n    /* \"#utility.yul\":1131:1262   */\n  tag_19\n  jump\t// in\ntag_26:\n    /* \"#utility.yul\":1123:1262   */\n  swap1\n  pop\n    /* \"#utility.yul\":1021:1269   */\n  swap2\n  swap1\n  pop\n  jump\t// out\n    /* \"#utility.yul\":1275:1444   */\ntag_22:\n  0x00\n    /* \"#utility.yul\":1393:1399   */\n  dup3\n    /* \"#utility.yul\":1388:1391   */\n  dup3\n    /* \"#utility.yul\":1381:1400   */\n  mstore\n    /* \"#utility.yul\":1433:1437   */\n  0x20\n    /* \"#utility.yul\":1428:1431   */\n  dup3\n    /* \"#utility.yul\":1424:1438   */\n  add\n    /* \"#utility.yul\":1409:1438   */\n  swap1\n  pop\n    /* \"#utility.yul\":1371:1444   */\n  swap3\n  swap2\n  pop\n  pop\n  jump\t// out\n    /* \"#utility.yul\":1450:1755   */\ntag_9:\n  0x00\n    /* \"#utility.yul\":1509:1529   */\n  tag_29\n    /* \"#utility.yul\":1527:1528   */\n  dup3\n    /* \"#utility.yul\":1509:1529   */\n  tag_30\n  jump\t// in\ntag_29:\n    /* \"#utility.yul\":1504:1529   */\n  swap2\n  pop\n    /* \"#utility.yul\":1543:1563   */\n  tag_31\n    /* \"#utility.yul\":1561:1562   */\n  dup4\n    /* \"#utility.yul\":1543:1563   */\n  tag_30\n  jump\t// in\ntag_31:\n    /* \"#utility.yul\":1538:1563   */\n  swap3\n  pop\n    /* \"#utility.yul\":1697:1698   */\n  dup3\n    /* \"#utility.yul\":1629:1695   */\n  0xffffffffffffffffffffffffffffffffffffffffffffffffffffffffffffffff\n    /* \"#utility.yul\":1625:1699   */\n  sub\n    /* \"#utility.yul\":1622:1623   */\n  dup3\n    /* \"#utility.yul\":1619:1700   */\n  gt\n    /* \"#utility.yul\":1616:1618   */\n  iszero\n  tag_32\n  jumpi\n    /* \"#utility.yul\":1703:1721   */\n  tag_33\n  tag_34\n  jump\t// in\ntag_33:\n    /* \"#utility.yul\":1616:1618   */\ntag_32:\n    /* \"#utility.yul\":1747:1748   */\n  dup3\n    /* \"#utility.yul\":1744:1745   */\n  dup3\n    /* \"#utility.yul\":1740:1749   */\n  add\n    /* \"#utility.yul\":1733:1749   */\n  swap1\n  pop\n    /* \"#utility.yul\":1494:1755   */\n  swap3\n  swap2\n  pop\n  pop\n  jump\t// out\n    /* \"#utility.yul\":1761:1865   */\ntag_35:\n  0x00\n    /* \"#utility.yul\":1835:1859   */\n  tag_37\n    /* \"#utility.yul\":1853:1858   */\n  dup3\n    /* \"#utility.yul\":1835:1859   */\n  tag_38\n  jump\t// in\ntag_37:\n    /* \"#utility.yul\":1824:1859   */\n  swap1\n  pop\n    /* \"#utility.yul\":1814:1865   */\n  swap2\n  swap1\n  pop\n  jump\t// out\n    /* \"#utility.yul\":1871:1997   */\ntag_38:\n  0x00\n    /* \"#utility.yul\":1948:1990   */\n  0xffffffffffffffffffffffffffffffffffffffff\n    /* \"#utility.yul\":1941:1946   */\n  dup3\n    /* \"#utility.yul\":1937:1991   */\n  and\n    /* \"#utility.yul\":1926:1991   */\n  swap1\n  pop\n    /* \"#utility.yul\":1916:1997   */\n  swap2\n  swap1\n  pop\n  jump\t// out\n    /* \"#utility.yul\":2003:2080   */\ntag_30:\n  0x00\n    /* \"#utility.yul\":2069:2074   */\n  dup2\n    /* \"#utility.yul\":2058:2074   */\n  swap1\n  pop\n    /* \"#utility.yul\":2048:2080   */\n  swap2\n  swap1\n  pop\n  jump\t// out\n    /* \"#utility.yul\":2086:2266   */\ntag_34:\n    /* \"#utility.yul\":2134:2211   */\n  0x4e487b7100000000000000000000000000000000000000000000000000000000\n    /* \"#utility.yul\":2131:2132   */\n  0x00\n    /* \"#utility.yul\":2124:2212   */\n  mstore\n    /* \"#utility.yul\":2231:2235   */\n  0x11\n    /* \"#utility.yul\":2228:2229   */\n  0x04\n    /* \"#utility.yul\":2221:2236   */\n  mstore\n    /* \"#utility.yul\":2255:2259   */\n  0x24\n    /* \"#utility.yul\":2252:2253   */\n  0x00\n    /* \"#utility.yul\":2245:2260   */\n  revert\n    /* \"#utility.yul\":2272:2451   */\ntag_24:\n    /* \"#utility.yul\":2412:2443   */\n  0x436f6e747261637420636f7374206d7573742062652032206574686572000000\n    /* \"#utility.yul\":2408:2409   */\n  0x00\n    /* \"#utility.yul\":2400:2406   */\n  dup3\n    /* \"#utility.yul\":2396:2410   */\n  add\n    /* \"#utility.yul\":2389:2444   */\n  mstore\n    /* \"#utility.yul\":2378:2451   */\n  pop\n  jump\t// out\n    /* \"#utility.yul\":2457:2595   */\ntag_15:\n    /* \"#utility.yul\":2538:2570   */\n  tag_44\n    /* \"#utility.yul\":2564:2569   */\n  dup2\n    /* \"#utility.yul\":2538:2570   */\n  tag_35\n  jump\t// in\ntag_44:\n    /* \"#utility.yul\":2531:2536   */\n  dup2\n    /* \"#utility.yul\":2528:2571   */\n  eq\n    /* \"#utility.yul\":2518:2520   */\n  tag_45\n  jumpi\n    /* \"#utility.yul\":2585:2586   */\n  0x00\n    /* \"#utility.yul\":2582:2583   */\n  dup1\n    /* \"#utility.yul\":2575:2587   */\n  revert\n    /* \"#utility.yul\":2518:2520   */\ntag_45:\n    /* \"#utility.yul\":2508:2595   */\n  pop\n  jump\t// out\n    /* \"contracts/dvd.sol\":62:2398  contract SensorContract{\r... */\ntag_10:\n  dataSize(sub_0)\n  dup1\n  dataOffset(sub_0)\n  0x00\n  codecopy\n  0x00\n  return\nstop\n\nsub_0: assembly {\n        /* \"contracts/dvd.sol\":62:2398  contract SensorContract{\r... */\n      mstore(0x40, 0x80)\n      callvalue\n      dup1\n      iszero\n      tag_1\n      jumpi\n      0x00\n      dup1\n      revert\n    tag_1:\n      pop\n      jumpi(tag_2, lt(calldatasize, 0x04))\n      shr(0xe0, calldataload(0x00))\n      dup1\n      0x9209bb88\n      gt\n      tag_17\n      jumpi\n      dup1\n      0xbb91e9b1\n      gt\n      tag_18\n      jumpi\n      dup1\n      0xbb91e9b1\n      eq\n      tag_13\n      jumpi\n      dup1\n      0xd0d5d9df\n      eq\n      tag_14\n      jumpi\n      dup1\n      0xe42b0212\n      eq\n      tag_15\n      jumpi\n      dup1\n      0xfd8ba935\n      eq\n      tag_16\n      jumpi\n      jump(tag_2)\n    tag_18:\n      dup1\n      0x9209bb88\n      eq\n      tag_10\n      jumpi\n      dup1\n      0xb4f7919b\n      eq\n      tag_11\n      jumpi\n      dup1\n      0xb9ea4213\n      eq\n      tag_12\n      jumpi\n      jump(tag_2)\n    tag_17:\n      dup1\n      0x3428a9fc\n      gt\n      tag_19\n      jumpi\n      dup1\n      0x3428a9fc\n      eq\n      tag_6\n      jumpi\n      dup1\n      0x6421d04b\n      eq\n      tag_7\n      jumpi\n      dup1\n      0x78e97925\n      eq\n      tag_8\n      jumpi\n      dup1\n      0x8f5949f9\n      eq\n      tag_9\n      jumpi\n      jump(tag_2)\n    tag_19:\n      dup1\n      0x2006f675\n      eq\n      tag_3\n      jumpi\n      dup1\n      0x3197cbb6\n      eq\n      tag_4\n      jumpi\n      dup1\n      0x32bde4b0\n      eq\n      tag_5\n      jumpi\n    tag_2:\n      0x00\n      dup1\n      revert\n        /* \"contracts/dvd.sol\":2211:2298  function getPressure() public view returns (uint256) {\r... */\n    tag_3:\n      tag_20\n      tag_21\n      jump\t// in\n    tag_20:\n      mload(0x40)\n      tag_22\n      swap2\n      swap1\n      tag_23\n      jump\t// in\n    tag_22:\n      mload(0x40)\n      dup1\n      swap2\n      sub\n      swap1\n      return\n        /* \"contracts/dvd.sol\":208:230  uint256 public endTime */\n    tag_4:\n      tag_24\n      tag_25\n      jump\t// in\n    tag_24:\n      mload(0x40)\n      tag_26\n      swap2\n      swap1\n      tag_23\n      jump\t// in\n    tag_26:\n      mload(0x40)\n      dup1\n      swap2\n      sub\n      swap1\n      return\n        /* \"contracts/dvd.sol\":2306:2395  function getVibration() public view returns (uint256) {\r... */\n    tag_5:\n      tag_27\n      tag_28\n      jump\t// in\n    tag_27:\n      mload(0x40)\n      tag_29\n      swap2\n      swap1\n      tag_23\n      jump\t// in\n    tag_29:\n      mload(0x40)\n      dup1\n      swap2\n      sub\n      swap1\n      return\n        /* \"contracts/dvd.sol\":2116:2203  function getHumidity() public view returns (uint256) {\r... */\n    tag_6:\n      tag_30\n      tag_31\n      jump\t// in\n    tag_30:\n      mload(0x40)\n      tag_32\n      swap2\n      swap1\n      tag_23\n      jump\t// in\n    tag_32:\n      mload(0x40)\n      dup1\n      swap2\n      sub\n      swap1\n      return\n        /* \"contracts/dvd.sol\":2015:2108  function getTemperature() public view returns (uint256) {\r... */\n    tag_7:\n      tag_33\n      tag_34\n      jump\t// in\n    tag_33:\n      mload(0x40)\n      tag_35\n      swap2\n      swap1\n      tag_23\n      jump\t// in\n    tag_35:\n      mload(0x40)\n      dup1\n      swap2\n      sub\n      swap1\n      return\n        /* \"contracts/dvd.sol\":177:201  uint256 public startTime */\n    tag_8:\n      tag_36\n      tag_37\n      jump\t// in\n    tag_36:\n      mload(0x40)\n      tag_38\n      swap2\n      swap1\n      tag_23\n      jump\t// in\n    tag_38:\n      mload(0x40)\n      dup1\n      swap2\n      sub\n      swap1\n      return\n        /* \"contracts/dvd.sol\":495:530  bool public isContractActive = true */\n    tag_9:\n      tag_39\n      tag_40\n      jump\t// in\n    tag_39:\n      mload(0x40)\n      tag_41\n      swap2\n      swap1\n      tag_42\n      jump\t// in\n    tag_41:\n      mload(0x40)\n      dup1\n      swap2\n      sub\n      swap1\n      return\n        /* \"contracts/dvd.sol\":135:170  address payable public productOwner */\n    tag_10:\n      tag_43\n      tag_44\n      jump\t// in\n    tag_43:\n      mload(0x40)\n      tag_45\n      swap2\n      swap1\n      tag_46\n      jump\t// in\n    tag_45:\n      mload(0x40)\n      dup1\n      swap2\n      sub\n      swap1\n      return\n        /* \"contracts/dvd.sol\":323:360  bool public conditionViolated = false */\n    tag_11:\n      tag_47\n      tag_48\n      jump\t// in\n    tag_47:\n      mload(0x40)\n      tag_49\n      swap2\n      swap1\n      tag_42\n      jump\t// in\n    tag_49:\n      mload(0x40)\n      dup1\n      swap2\n      sub\n      swap1\n      return\n        /* \"contracts/dvd.sol\":1622:2009  function checkContractExpiry() public {\r... */\n    tag_12:\n      tag_50\n      tag_51\n      jump\t// in\n    tag_50:\n      stop\n        /* \"contracts/dvd.sol\":846:1616  function updateConditions(\r... */\n    tag_13:\n      tag_52\n      0x04\n      dup1\n      calldatasize\n      sub\n      dup2\n      add\n      swap1\n      tag_53\n      swap2\n      swap1\n      tag_54\n      jump\t// in\n    tag_53:\n      tag_55\n      jump\t// in\n    tag_52:\n      stop\n        /* \"contracts/dvd.sol\":281:316  bool public contractExpired = false */\n    tag_14:\n      tag_56\n      tag_57\n      jump\t// in\n    tag_56:\n      mload(0x40)\n      tag_58\n      swap2\n      swap1\n      tag_42\n      jump\t// in\n    tag_58:\n      mload(0x40)\n      dup1\n      swap2\n      sub\n      swap1\n      return\n        /* \"contracts/dvd.sol\":94:128  address payable public transporter */\n    tag_15:\n      tag_59\n      tag_60\n      jump\t// in\n    tag_59:\n      mload(0x40)\n      tag_61\n      swap2\n      swap1\n      tag_46\n      jump\t// in\n    tag_61:\n      mload(0x40)\n      dup1\n      swap2\n      sub\n      swap1\n      return\n        /* \"contracts/dvd.sol\":237:274  uint256 public contractCost = 2 ether */\n    tag_16:\n      tag_62\n      tag_63\n      jump\t// in\n    tag_62:\n      mload(0x40)\n      tag_64\n      swap2\n      swap1\n      tag_23\n      jump\t// in\n    tag_64:\n      mload(0x40)\n      dup1\n      swap2\n      sub\n      swap1\n      return\n        /* \"contracts/dvd.sol\":2211:2298  function getPressure() public view returns (uint256) {\r... */\n    tag_21:\n        /* \"contracts/dvd.sol\":2255:2262  uint256 */\n      0x00\n        /* \"contracts/dvd.sol\":2282:2290  pressure */\n      sload(0x08)\n        /* \"contracts/dvd.sol\":2275:2290  return pressure */\n      swap1\n      pop\n        /* \"contracts/dvd.sol\":2211:2298  function getPressure() public view returns (uint256) {\r... */\n      swap1\n      jump\t// out\n        /* \"contracts/dvd.sol\":208:230  uint256 public endTime */\n    tag_25:\n      sload(0x03)\n      dup2\n      jump\t// out\n        /* \"contracts/dvd.sol\":2306:2395  function getVibration() public view returns (uint256) {\r... */\n    tag_28:\n        /* \"contracts/dvd.sol\":2351:2358  uint256 */\n      0x00\n        /* \"contracts/dvd.sol\":2378:2387  vibration */\n      sload(0x09)\n        /* \"contracts/dvd.sol\":2371:2387  return vibration */\n      swap1\n      pop\n        /* \"contracts/dvd.sol\":2306:2395  function getVibration() public view returns (uint256) {\r... */\n      swap1\n      jump\t// out\n        /* \"contracts/dvd.sol\":2116:2203  function getHumidity() public view returns (uint256) {\r... */\n    tag_31:\n        /* \"contracts/dvd.sol\":2160:2167  uint256 */\n      0x00\n        /* \"contracts/dvd.sol\":2187:2195  humidity */\n      sload(0x07)\n        /* \"contracts/dvd.sol\":2180:2195  return humidity */\n      swap1\n      pop\n        /* \"contracts/dvd.sol\":2116:2203  function getHumidity() public view returns (uint256) {\r... */\n      swap1\n      jump\t// out\n        /* \"contracts/dvd.sol\":2015:2108  function getTemperature() public view returns (uint256) {\r... */\n    tag_34:\n        /* \"contracts/dvd.sol\":2062:2069  uint256 */\n      0x00\n        /* \"contracts/dvd.sol\":2089:2100  temperature */\n      sload(0x06)\n        /* \"contracts/dvd.sol\":2082:2100  return temperature */\n      swap1\n      pop\n        /* \"contracts/dvd.sol\":2015:2108  function getTemperature() public view returns (uint256) {\r... */\n      swap1\n      jump\t// out\n        /* \"contracts/dvd.sol\":177:201  uint256 public startTime */\n    tag_37:\n      sload(0x02)\n      dup2\n      jump\t// out\n        /* \"contracts/dvd.sol\":495:530  bool public isContractActive = true */\n    tag_40:\n      0x0a\n      0x00\n      swap1\n      sload\n      swap1\n      0x0100\n      exp\n      swap1\n      div\n      0xff\n      and\n      dup2\n      jump\t// out\n        /* \"contracts/dvd.sol\":135:170  address payable public productOwner */\n    tag_44:\n      0x01\n      0x00\n      swap1\n      sload\n      swap1\n      0x0100\n      exp\n      swap1\n      div\n      0xffffffffffffffffffffffffffffffffffffffff\n      and\n      dup2\n      jump\t// out\n        /* \"contracts/dvd.sol\":323:360  bool public conditionViolated = false */\n    tag_48:\n      0x05\n      0x01\n      swap1\n      sload\n      swap1\n      0x0100\n      exp\n      swap1\n      div\n      0xff\n      and\n      dup2\n      jump\t// out\n        /* \"contracts/dvd.sol\":1622:2009  function checkContractExpiry() public {\r... */\n    tag_51:\n        /* \"contracts/dvd.sol\":1680:1695  contractExpired */\n      0x05\n      0x00\n      swap1\n      sload\n      swap1\n      0x0100\n      exp\n      swap1\n      div\n      0xff\n      and\n        /* \"contracts/dvd.sol\":1679:1695  !contractExpired */\n      iszero\n        /* \"contracts/dvd.sol\":1671:1728  require(!contractExpired, \"Contract has already expired\") */\n      tag_70\n      jumpi\n      mload(0x40)\n      0x08c379a000000000000000000000000000000000000000000000000000000000\n      dup2\n      mstore\n      0x04\n      add\n      tag_71\n      swap1\n      tag_72\n      jump\t// in\n    tag_71:\n      mload(0x40)\n      dup1\n      swap2\n      sub\n      swap1\n      revert\n    tag_70:\n        /* \"contracts/dvd.sol\":1762:1769  endTime */\n      sload(0x03)\n        /* \"contracts/dvd.sol\":1743:1758  block.timestamp */\n      timestamp\n        /* \"contracts/dvd.sol\":1743:1769  block.timestamp >= endTime */\n      lt\n        /* \"contracts/dvd.sol\":1739:2002  if (block.timestamp >= endTime) {\r... */\n      tag_73\n      jumpi\n        /* \"contracts/dvd.sol\":1804:1808  true */\n      0x01\n        /* \"contracts/dvd.sol\":1786:1801  contractExpired */\n      0x05\n      0x00\n        /* \"contracts/dvd.sol\":1786:1808  contractExpired = true */\n      0x0100\n      exp\n      dup2\n      sload\n      dup2\n      0xff\n      mul\n      not\n      and\n      swap1\n      dup4\n      iszero\n      iszero\n      mul\n      or\n      swap1\n      sstore\n      pop\n        /* \"contracts/dvd.sol\":1827:1844  conditionViolated */\n      0x05\n      0x01\n      swap1\n      sload\n      swap1\n      0x0100\n      exp\n      swap1\n      div\n      0xff\n      and\n        /* \"contracts/dvd.sol\":1823:1991  if (conditionViolated) {\r... */\n      iszero\n      tag_74\n      jumpi\n        /* \"contracts/dvd.sol\":1865:1877  productOwner */\n      0x01\n      0x00\n      swap1\n      sload\n      swap1\n      0x0100\n      exp\n      swap1\n      div\n      0xffffffffffffffffffffffffffffffffffffffff\n      and\n        /* \"contracts/dvd.sol\":1865:1886  productOwner.transfer */\n      0xffffffffffffffffffffffffffffffffffffffff\n      and\n        /* \"contracts/dvd.sol\":1865:1900  productOwner.transfer(contractCost) */\n      0x08fc\n        /* \"contracts/dvd.sol\":1887:1899  contractCost */\n      sload(0x04)\n        /* \"contracts/dvd.sol\":1865:1900  productOwner.transfer(contractCost) */\n      swap1\n      dup2\n      iszero\n      mul\n      swap1\n      mload(0x40)\n      0x00\n      mload(0x40)\n      dup1\n      dup4\n      sub\n      dup2\n      dup6\n      dup9\n      dup9\n      call\n      swap4\n      pop\n      pop\n      pop\n      pop\n      iszero\n      dup1\n      iszero\n      tag_76\n      jumpi\n      returndatasize\n      0x00\n      dup1\n      returndatacopy\n      revert(0x00, returndatasize)\n    tag_76:\n      pop\n        /* \"contracts/dvd.sol\":1823:1991  if (conditionViolated) {\r... */\n      jump(tag_77)\n    tag_74:\n        /* \"contracts/dvd.sol\":1941:1952  transporter */\n      0x00\n      dup1\n      sload\n      swap1\n      0x0100\n      exp\n      swap1\n      div\n      0xffffffffffffffffffffffffffffffffffffffff\n      and\n        /* \"contracts/dvd.sol\":1941:1961  transporter.transfer */\n      0xffffffffffffffffffffffffffffffffffffffff\n      and\n        /* \"contracts/dvd.sol\":1941:1975  transporter.transfer(contractCost) */\n      0x08fc\n        /* \"contracts/dvd.sol\":1962:1974  contractCost */\n      sload(0x04)\n        /* \"contracts/dvd.sol\":1941:1975  transporter.transfer(contractCost) */\n      swap1\n      dup2\n      iszero\n      mul\n      swap1\n      mload(0x40)\n      0x00\n      mload(0x40)\n      dup1\n      dup4\n      sub\n      dup2\n      dup6\n      dup9\n      dup9\n      call\n      swap4\n      pop\n      pop\n      pop\n      pop\n      iszero\n      dup1\n      iszero\n      tag_79\n      jumpi\n      returndatasize\n      0x00\n      dup1\n      returndatacopy\n      revert(0x00, returndatasize)\n    tag_79:\n      pop\n        /* \"contracts/dvd.sol\":1823:1991  if (conditionViolated) {\r... */\n    tag_77:\n        /* \"contracts/dvd.sol\":1739:2002  if (block.timestamp >= endTime) {\r... */\n    tag_73:\n        /* \"contracts/dvd.sol\":1622:2009  function checkContractExpiry() public {\r... */\n      jump\t// out\n        /* \"contracts/dvd.sol\":846:1616  function updateConditions(\r... */\n    tag_55:\n        /* \"contracts/dvd.sol\":1022:1037  contractExpired */\n      0x05\n      0x00\n      swap1\n      sload\n      swap1\n      0x0100\n      exp\n      swap1\n      div\n      0xff\n      and\n        /* \"contracts/dvd.sol\":1021:1037  !contractExpired */\n      iszero\n        /* \"contracts/dvd.sol\":1013:1070  require(!contractExpired, \"Contract has already expired\") */\n      tag_81\n      jumpi\n      mload(0x40)\n      0x08c379a000000000000000000000000000000000000000000000000000000000\n      dup2\n      mstore\n      0x04\n      add\n      tag_82\n      swap1\n      tag_72\n      jump\t// in\n    tag_82:\n      mload(0x40)\n      dup1\n      swap2\n      sub\n      swap1\n      revert\n    tag_81:\n        /* \"contracts/dvd.sol\":1103:1114  transporter */\n      0x00\n      dup1\n      sload\n      swap1\n      0x0100\n      exp\n      swap1\n      div\n      0xffffffffffffffffffffffffffffffffffffffff\n      and\n        /* \"contracts/dvd.sol\":1089:1114  msg.sender == transporter */\n      0xffffffffffffffffffffffffffffffffffffffff\n      and\n        /* \"contracts/dvd.sol\":1089:1099  msg.sender */\n      caller\n        /* \"contracts/dvd.sol\":1089:1114  msg.sender == transporter */\n      0xffffffffffffffffffffffffffffffffffffffff\n      and\n      eq\n        /* \"contracts/dvd.sol\":1081:1157  require(msg.sender == transporter, \"Only transporter can update conditions\") */\n      tag_83\n      jumpi\n      mload(0x40)\n      0x08c379a000000000000000000000000000000000000000000000000000000000\n      dup2\n      mstore\n      0x04\n      add\n      tag_84\n      swap1\n      tag_85\n      jump\t// in\n    tag_84:\n      mload(0x40)\n      dup1\n      swap2\n      sub\n      swap1\n      revert\n    tag_83:\n        /* \"contracts/dvd.sol\":1184:1196  _temperature */\n      dup4\n        /* \"contracts/dvd.sol\":1170:1181  temperature */\n      0x06\n        /* \"contracts/dvd.sol\":1170:1196  temperature = _temperature */\n      dup2\n      swap1\n      sstore\n      pop\n        /* \"contracts/dvd.sol\":1218:1227  _humidity */\n      dup3\n        /* \"contracts/dvd.sol\":1207:1215  humidity */\n      0x07\n        /* \"contracts/dvd.sol\":1207:1227  humidity = _humidity */\n      dup2\n      swap1\n      sstore\n      pop\n        /* \"contracts/dvd.sol\":1249:1258  _pressure */\n      dup2\n        /* \"contracts/dvd.sol\":1238:1246  pressure */\n      0x08\n        /* \"contracts/dvd.sol\":1238:1258  pressure = _pressure */\n      dup2\n      swap1\n      sstore\n      pop\n        /* \"contracts/dvd.sol\":1281:1291  _vibration */\n      dup1\n        /* \"contracts/dvd.sol\":1269:1278  vibration */\n      0x09\n        /* \"contracts/dvd.sol\":1269:1291  vibration = _vibration */\n      dup2\n      swap1\n      sstore\n      pop\n        /* \"contracts/dvd.sol\":1337:1338  9 */\n      0x09\n        /* \"contracts/dvd.sol\":1323:1334  temperature */\n      sload(0x06)\n        /* \"contracts/dvd.sol\":1323:1338  temperature < 9 */\n      lt\n        /* \"contracts/dvd.sol\":1323:1358  temperature < 9 || temperature > 27 */\n      dup1\n      tag_86\n      jumpi\n      pop\n        /* \"contracts/dvd.sol\":1356:1358  27 */\n      0x1b\n        /* \"contracts/dvd.sol\":1342:1353  temperature */\n      sload(0x06)\n        /* \"contracts/dvd.sol\":1342:1358  temperature > 27 */\n      gt\n        /* \"contracts/dvd.sol\":1323:1358  temperature < 9 || temperature > 27 */\n    tag_86:\n        /* \"contracts/dvd.sol\":1322:1415  (temperature < 9 || temperature > 27) ||\r... */\n      dup1\n      tag_87\n      jumpi\n      pop\n        /* \"contracts/dvd.sol\":1388:1393  50000 */\n      0xc350\n        /* \"contracts/dvd.sol\":1377:1385  pressure */\n      sload(0x08)\n        /* \"contracts/dvd.sol\":1377:1393  pressure < 50000 */\n      lt\n        /* \"contracts/dvd.sol\":1377:1414  pressure < 50000 || pressure > 150000 */\n      dup1\n      tag_88\n      jumpi\n      pop\n        /* \"contracts/dvd.sol\":1408:1414  150000 */\n      0x0249f0\n        /* \"contracts/dvd.sol\":1397:1405  pressure */\n      sload(0x08)\n        /* \"contracts/dvd.sol\":1397:1414  pressure > 150000 */\n      gt\n        /* \"contracts/dvd.sol\":1377:1414  pressure < 50000 || pressure > 150000 */\n    tag_88:\n        /* \"contracts/dvd.sol\":1322:1415  (temperature < 9 || temperature > 27) ||\r... */\n    tag_87:\n        /* \"contracts/dvd.sol\":1322:1463  (temperature < 9 || temperature > 27) ||\r... */\n      dup1\n      tag_89\n      jumpi\n      pop\n        /* \"contracts/dvd.sol\":1444:1445  5 */\n      0x05\n        /* \"contracts/dvd.sol\":1433:1441  humidity */\n      sload(0x07)\n        /* \"contracts/dvd.sol\":1433:1445  humidity < 5 */\n      lt\n        /* \"contracts/dvd.sol\":1433:1462  humidity < 5 || humidity > 65 */\n      dup1\n      tag_90\n      jumpi\n      pop\n        /* \"contracts/dvd.sol\":1460:1462  65 */\n      0x41\n        /* \"contracts/dvd.sol\":1449:1457  humidity */\n      sload(0x07)\n        /* \"contracts/dvd.sol\":1449:1462  humidity > 65 */\n      gt\n        /* \"contracts/dvd.sol\":1433:1462  humidity < 5 || humidity > 65 */\n    tag_90:\n        /* \"contracts/dvd.sol\":1322:1463  (temperature < 9 || temperature > 27) ||\r... */\n    tag_89:\n        /* \"contracts/dvd.sol\":1304:1526  if (\r... */\n      iszero\n      tag_91\n      jumpi\n        /* \"contracts/dvd.sol\":1510:1514  true */\n      0x01\n        /* \"contracts/dvd.sol\":1490:1507  conditionViolated */\n      0x05\n      0x01\n        /* \"contracts/dvd.sol\":1490:1514  conditionViolated = true */\n      0x0100\n      exp\n      dup2\n      sload\n      dup2\n      0xff\n      mul\n      not\n      and\n      swap1\n      dup4\n      iszero\n      iszero\n      mul\n      or\n      swap1\n      sstore\n      pop\n        /* \"contracts/dvd.sol\":1304:1526  if (\r... */\n    tag_91:\n        /* \"contracts/dvd.sol\":1555:1556  1 */\n      0x01\n        /* \"contracts/dvd.sol\":1542:1551  vibration */\n      sload(0x09)\n        /* \"contracts/dvd.sol\":1542:1556  vibration == 1 */\n      eq\n        /* \"contracts/dvd.sol\":1538:1609  if (vibration == 1) {\r... */\n      iszero\n      tag_92\n      jumpi\n        /* \"contracts/dvd.sol\":1592:1597  false */\n      0x00\n        /* \"contracts/dvd.sol\":1573:1589  isContractActive */\n      0x0a\n      0x00\n        /* \"contracts/dvd.sol\":1573:1597  isContractActive = false */\n      0x0100\n      exp\n      dup2\n      sload\n      dup2\n      0xff\n      mul\n      not\n      and\n      swap1\n      dup4\n      iszero\n      iszero\n      mul\n      or\n      swap1\n      sstore\n      pop\n        /* \"contracts/dvd.sol\":1538:1609  if (vibration == 1) {\r... */\n    tag_92:\n        /* \"contracts/dvd.sol\":846:1616  function updateConditions(\r... */\n      pop\n      pop\n      pop\n      pop\n      jump\t// out\n        /* \"contracts/dvd.sol\":281:316  bool public contractExpired = false */\n    tag_57:\n      0x05\n      0x00\n      swap1\n      sload\n      swap1\n      0x0100\n      exp\n      swap1\n      div\n      0xff\n      and\n      dup2\n      jump\t// out\n        /* \"contracts/dvd.sol\":94:128  address payable public transporter */\n    tag_60:\n      0x00\n      dup1\n      sload\n      swap1\n      0x0100\n      exp\n      swap1\n      div\n      0xffffffffffffffffffffffffffffffffffffffff\n      and\n      dup2\n      jump\t// out\n        /* \"contracts/dvd.sol\":237:274  uint256 public contractCost = 2 ether */\n    tag_63:\n      sload(0x04)\n      dup2\n      jump\t// out\n        /* \"#utility.yul\":7:146   */\n    tag_94:\n      0x00\n        /* \"#utility.yul\":91:97   */\n      dup2\n        /* \"#utility.yul\":78:98   */\n      calldataload\n        /* \"#utility.yul\":69:98   */\n      swap1\n      pop\n        /* \"#utility.yul\":107:140   */\n      tag_96\n        /* \"#utility.yul\":134:139   */\n      dup2\n        /* \"#utility.yul\":107:140   */\n      tag_97\n      jump\t// in\n    tag_96:\n        /* \"#utility.yul\":59:146   */\n      swap3\n      swap2\n      pop\n      pop\n      jump\t// out\n        /* \"#utility.yul\":152:850   */\n    tag_54:\n      0x00\n      dup1\n      0x00\n      dup1\n        /* \"#utility.yul\":311:314   */\n      0x80\n        /* \"#utility.yul\":299:308   */\n      dup6\n        /* \"#utility.yul\":290:297   */\n      dup8\n        /* \"#utility.yul\":286:309   */\n      sub\n        /* \"#utility.yul\":282:315   */\n      slt\n        /* \"#utility.yul\":279:281   */\n      iszero\n      tag_99\n      jumpi\n        /* \"#utility.yul\":328:329   */\n      0x00\n        /* \"#utility.yul\":325:326   */\n      dup1\n        /* \"#utility.yul\":318:330   */\n      revert\n        /* \"#utility.yul\":279:281   */\n    tag_99:\n        /* \"#utility.yul\":371:372   */\n      0x00\n        /* \"#utility.yul\":396:449   */\n      tag_100\n        /* \"#utility.yul\":441:448   */\n      dup8\n        /* \"#utility.yul\":432:438   */\n      dup3\n        /* \"#utility.yul\":421:430   */\n      dup9\n        /* \"#utility.yul\":417:439   */\n      add\n        /* \"#utility.yul\":396:449   */\n      tag_94\n      jump\t// in\n    tag_100:\n        /* \"#utility.yul\":386:449   */\n      swap5\n      pop\n        /* \"#utility.yul\":342:459   */\n      pop\n        /* \"#utility.yul\":498:500   */\n      0x20\n        /* \"#utility.yul\":524:577   */\n      tag_101\n        /* \"#utility.yul\":569:576   */\n      dup8\n        /* \"#utility.yul\":560:566   */\n      dup3\n        /* \"#utility.yul\":549:558   */\n      dup9\n        /* \"#utility.yul\":545:567   */\n      add\n        /* \"#utility.yul\":524:577   */\n      tag_94\n      jump\t// in\n    tag_101:\n        /* \"#utility.yul\":514:577   */\n      swap4\n      pop\n        /* \"#utility.yul\":469:587   */\n      pop\n        /* \"#utility.yul\":626:628   */\n      0x40\n        /* \"#utility.yul\":652:705   */\n      tag_102\n        /* \"#utility.yul\":697:704   */\n      dup8\n        /* \"#utility.yul\":688:694   */\n      dup3\n        /* \"#utility.yul\":677:686   */\n      dup9\n        /* \"#utility.yul\":673:695   */\n      add\n        /* \"#utility.yul\":652:705   */\n      tag_94\n      jump\t// in\n    tag_102:\n        /* \"#utility.yul\":642:705   */\n      swap3\n      pop\n        /* \"#utility.yul\":597:715   */\n      pop\n        /* \"#utility.yul\":754:756   */\n      0x60\n        /* \"#utility.yul\":780:833   */\n      tag_103\n        /* \"#utility.yul\":825:832   */\n      dup8\n        /* \"#utility.yul\":816:822   */\n      dup3\n        /* \"#utility.yul\":805:814   */\n      dup9\n        /* \"#utility.yul\":801:823   */\n      add\n        /* \"#utility.yul\":780:833   */\n      tag_94\n      jump\t// in\n    tag_103:\n        /* \"#utility.yul\":770:833   */\n      swap2\n      pop\n        /* \"#utility.yul\":725:843   */\n      pop\n        /* \"#utility.yul\":269:850   */\n      swap3\n      swap6\n      swap2\n      swap5\n      pop\n      swap3\n      pop\n      jump\t// out\n        /* \"#utility.yul\":856:998   */\n    tag_104:\n        /* \"#utility.yul\":959:991   */\n      tag_106\n        /* \"#utility.yul\":985:990   */\n      dup2\n        /* \"#utility.yul\":959:991   */\n      tag_107\n      jump\t// in\n    tag_106:\n        /* \"#utility.yul\":954:957   */\n      dup3\n        /* \"#utility.yul\":947:992   */\n      mstore\n        /* \"#utility.yul\":937:998   */\n      pop\n      pop\n      jump\t// out\n        /* \"#utility.yul\":1004:1113   */\n    tag_108:\n        /* \"#utility.yul\":1085:1106   */\n      tag_110\n        /* \"#utility.yul\":1100:1105   */\n      dup2\n        /* \"#utility.yul\":1085:1106   */\n      tag_111\n      jump\t// in\n    tag_110:\n        /* \"#utility.yul\":1080:1083   */\n      dup3\n        /* \"#utility.yul\":1073:1107   */\n      mstore\n        /* \"#utility.yul\":1063:1113   */\n      pop\n      pop\n      jump\t// out\n        /* \"#utility.yul\":1119:1485   */\n    tag_112:\n      0x00\n        /* \"#utility.yul\":1282:1349   */\n      tag_114\n        /* \"#utility.yul\":1346:1348   */\n      0x1c\n        /* \"#utility.yul\":1341:1344   */\n      dup4\n        /* \"#utility.yul\":1282:1349   */\n      tag_115\n      jump\t// in\n    tag_114:\n        /* \"#utility.yul\":1275:1349   */\n      swap2\n      pop\n        /* \"#utility.yul\":1358:1451   */\n      tag_116\n        /* \"#utility.yul\":1447:1450   */\n      dup3\n        /* \"#utility.yul\":1358:1451   */\n      tag_117\n      jump\t// in\n    tag_116:\n        /* \"#utility.yul\":1476:1478   */\n      0x20\n        /* \"#utility.yul\":1471:1474   */\n      dup3\n        /* \"#utility.yul\":1467:1479   */\n      add\n        /* \"#utility.yul\":1460:1479   */\n      swap1\n      pop\n        /* \"#utility.yul\":1265:1485   */\n      swap2\n      swap1\n      pop\n      jump\t// out\n        /* \"#utility.yul\":1491:1857   */\n    tag_118:\n      0x00\n        /* \"#utility.yul\":1654:1721   */\n      tag_120\n        /* \"#utility.yul\":1718:1720   */\n      0x26\n        /* \"#utility.yul\":1713:1716   */\n      dup4\n        /* \"#utility.yul\":1654:1721   */\n      tag_115\n      jump\t// in\n    tag_120:\n        /* \"#utility.yul\":1647:1721   */\n      swap2\n      pop\n        /* \"#utility.yul\":1730:1823   */\n      tag_121\n        /* \"#utility.yul\":1819:1822   */\n      dup3\n        /* \"#utility.yul\":1730:1823   */\n      tag_122\n      jump\t// in\n    tag_121:\n        /* \"#utility.yul\":1848:1850   */\n      0x40\n        /* \"#utility.yul\":1843:1846   */\n      dup3\n        /* \"#utility.yul\":1839:1851   */\n      add\n        /* \"#utility.yul\":1832:1851   */\n      swap1\n      pop\n        /* \"#utility.yul\":1637:1857   */\n      swap2\n      swap1\n      pop\n      jump\t// out\n        /* \"#utility.yul\":1863:1981   */\n    tag_123:\n        /* \"#utility.yul\":1950:1974   */\n      tag_125\n        /* \"#utility.yul\":1968:1973   */\n      dup2\n        /* \"#utility.yul\":1950:1974   */\n      tag_126\n      jump\t// in\n    tag_125:\n        /* \"#utility.yul\":1945:1948   */\n      dup3\n        /* \"#utility.yul\":1938:1975   */\n      mstore\n        /* \"#utility.yul\":1928:1981   */\n      pop\n      pop\n      jump\t// out\n        /* \"#utility.yul\":1987:2241   */\n    tag_46:\n      0x00\n        /* \"#utility.yul\":2134:2136   */\n      0x20\n        /* \"#utility.yul\":2123:2132   */\n      dup3\n        /* \"#utility.yul\":2119:2137   */\n      add\n        /* \"#utility.yul\":2111:2137   */\n      swap1\n      pop\n        /* \"#utility.yul\":2147:2234   */\n      tag_128\n        /* \"#utility.yul\":2231:2232   */\n      0x00\n        /* \"#utility.yul\":2220:2229   */\n      dup4\n        /* \"#utility.yul\":2216:2233   */\n      add\n        /* \"#utility.yul\":2207:2213   */\n      dup5\n        /* \"#utility.yul\":2147:2234   */\n      tag_104\n      jump\t// in\n    tag_128:\n        /* \"#utility.yul\":2101:2241   */\n      swap3\n      swap2\n      pop\n      pop\n      jump\t// out\n        /* \"#utility.yul\":2247:2457   */\n    tag_42:\n      0x00\n        /* \"#utility.yul\":2372:2374   */\n      0x20\n        /* \"#utility.yul\":2361:2370   */\n      dup3\n        /* \"#utility.yul\":2357:2375   */\n      add\n        /* \"#utility.yul\":2349:2375   */\n      swap1\n      pop\n        /* \"#utility.yul\":2385:2450   */\n      tag_130\n        /* \"#utility.yul\":2447:2448   */\n      0x00\n        /* \"#utility.yul\":2436:2445   */\n      dup4\n        /* \"#utility.yul\":2432:2449   */\n      add\n        /* \"#utility.yul\":2423:2429   */\n      dup5\n        /* \"#utility.yul\":2385:2450   */\n      tag_108\n      jump\t// in\n    tag_130:\n        /* \"#utility.yul\":2339:2457   */\n      swap3\n      swap2\n      pop\n      pop\n      jump\t// out\n        /* \"#utility.yul\":2463:2882   */\n    tag_72:\n      0x00\n        /* \"#utility.yul\":2667:2669   */\n      0x20\n        /* \"#utility.yul\":2656:2665   */\n      dup3\n        /* \"#utility.yul\":2652:2670   */\n      add\n        /* \"#utility.yul\":2644:2670   */\n      swap1\n      pop\n        /* \"#utility.yul\":2716:2725   */\n      dup2\n        /* \"#utility.yul\":2710:2714   */\n      dup2\n        /* \"#utility.yul\":2706:2726   */\n      sub\n        /* \"#utility.yul\":2702:2703   */\n      0x00\n        /* \"#utility.yul\":2691:2700   */\n      dup4\n        /* \"#utility.yul\":2687:2704   */\n      add\n        /* \"#utility.yul\":2680:2727   */\n      mstore\n        /* \"#utility.yul\":2744:2875   */\n      tag_132\n        /* \"#utility.yul\":2870:2874   */\n      dup2\n        /* \"#utility.yul\":2744:2875   */\n      tag_112\n      jump\t// in\n    tag_132:\n        /* \"#utility.yul\":2736:2875   */\n      swap1\n      pop\n        /* \"#utility.yul\":2634:2882   */\n      swap2\n      swap1\n      pop\n      jump\t// out\n        /* \"#utility.yul\":2888:3307   */\n    tag_85:\n      0x00\n        /* \"#utility.yul\":3092:3094   */\n      0x20\n        /* \"#utility.yul\":3081:3090   */\n      dup3\n        /* \"#utility.yul\":3077:3095   */\n      add\n        /* \"#utility.yul\":3069:3095   */\n      swap1\n      pop\n        /* \"#utility.yul\":3141:3150   */\n      dup2\n        /* \"#utility.yul\":3135:3139   */\n      dup2\n        /* \"#utility.yul\":3131:3151   */\n      sub\n        /* \"#utility.yul\":3127:3128   */\n      0x00\n        /* \"#utility.yul\":3116:3125   */\n      dup4\n        /* \"#utility.yul\":3112:3129   */\n      add\n        /* \"#utility.yul\":3105:3152   */\n      mstore\n        /* \"#utility.yul\":3169:3300   */\n      tag_134\n        /* \"#utility.yul\":3295:3299   */\n      dup2\n        /* \"#utility.yul\":3169:3300   */\n      tag_118\n      jump\t// in\n    tag_134:\n        /* \"#utility.yul\":3161:3300   */\n      swap1\n      pop\n        /* \"#utility.yul\":3059:3307   */\n      swap2\n      swap1\n      pop\n      jump\t// out\n        /* \"#utility.yul\":3313:3535   */\n    tag_23:\n      0x00\n        /* \"#utility.yul\":3444:3446   */\n      0x20\n        /* \"#utility.yul\":3433:3442   */\n      dup3\n        /* \"#utility.yul\":3429:3447   */\n      add\n        /* \"#utility.yul\":3421:3447   */\n      swap1\n      pop\n        /* \"#utility.yul\":3457:3528   */\n      tag_136\n        /* \"#utility.yul\":3525:3526   */\n      0x00\n        /* \"#utility.yul\":3514:3523   */\n      dup4\n        /* \"#utility.yul\":3510:3527   */\n      add\n        /* \"#utility.yul\":3501:3507   */\n      dup5\n        /* \"#utility.yul\":3457:3528   */\n      tag_123\n      jump\t// in\n    tag_136:\n        /* \"#utility.yul\":3411:3535   */\n      swap3\n      swap2\n      pop\n      pop\n      jump\t// out\n        /* \"#utility.yul\":3541:3710   */\n    tag_115:\n      0x00\n        /* \"#utility.yul\":3659:3665   */\n      dup3\n        /* \"#utility.yul\":3654:3657   */\n      dup3\n        /* \"#utility.yul\":3647:3666   */\n      mstore\n        /* \"#utility.yul\":3699:3703   */\n      0x20\n        /* \"#utility.yul\":3694:3697   */\n      dup3\n        /* \"#utility.yul\":3690:3704   */\n      add\n        /* \"#utility.yul\":3675:3704   */\n      swap1\n      pop\n        /* \"#utility.yul\":3637:3710   */\n      swap3\n      swap2\n      pop\n      pop\n      jump\t// out\n        /* \"#utility.yul\":3716:3820   */\n    tag_107:\n      0x00\n        /* \"#utility.yul\":3790:3814   */\n      tag_139\n        /* \"#utility.yul\":3808:3813   */\n      dup3\n        /* \"#utility.yul\":3790:3814   */\n      tag_140\n      jump\t// in\n    tag_139:\n        /* \"#utility.yul\":3779:3814   */\n      swap1\n      pop\n        /* \"#utility.yul\":3769:3820   */\n      swap2\n      swap1\n      pop\n      jump\t// out\n        /* \"#utility.yul\":3826:3916   */\n    tag_111:\n      0x00\n        /* \"#utility.yul\":3903:3908   */\n      dup2\n        /* \"#utility.yul\":3896:3909   */\n      iszero\n        /* \"#utility.yul\":3889:3910   */\n      iszero\n        /* \"#utility.yul\":3878:3910   */\n      swap1\n      pop\n        /* \"#utility.yul\":3868:3916   */\n      swap2\n      swap1\n      pop\n      jump\t// out\n        /* \"#utility.yul\":3922:4048   */\n    tag_140:\n      0x00\n        /* \"#utility.yul\":3999:4041   */\n      0xffffffffffffffffffffffffffffffffffffffff\n        /* \"#utility.yul\":3992:3997   */\n      dup3\n        /* \"#utility.yul\":3988:4042   */\n      and\n        /* \"#utility.yul\":3977:4042   */\n      swap1\n      pop\n        /* \"#utility.yul\":3967:4048   */\n      swap2\n      swap1\n      pop\n      jump\t// out\n        /* \"#utility.yul\":4054:4131   */\n    tag_126:\n      0x00\n        /* \"#utility.yul\":4120:4125   */\n      dup2\n        /* \"#utility.yul\":4109:4125   */\n      swap1\n      pop\n        /* \"#utility.yul\":4099:4131   */\n      swap2\n      swap1\n      pop\n      jump\t// out\n        /* \"#utility.yul\":4137:4315   */\n    tag_117:\n        /* \"#utility.yul\":4277:4307   */\n      0x436f6e74726163742068617320616c7265616479206578706972656400000000\n        /* \"#utility.yul\":4273:4274   */\n      0x00\n        /* \"#utility.yul\":4265:4271   */\n      dup3\n        /* \"#utility.yul\":4261:4275   */\n      add\n        /* \"#utility.yul\":4254:4308   */\n      mstore\n        /* \"#utility.yul\":4243:4315   */\n      pop\n      jump\t// out\n        /* \"#utility.yul\":4321:4546   */\n    tag_122:\n        /* \"#utility.yul\":4461:4495   */\n      0x4f6e6c79207472616e73706f727465722063616e2075706461746520636f6e64\n        /* \"#utility.yul\":4457:4458   */\n      0x00\n        /* \"#utility.yul\":4449:4455   */\n      dup3\n        /* \"#utility.yul\":4445:4459   */\n      add\n        /* \"#utility.yul\":4438:4496   */\n      mstore\n        /* \"#utility.yul\":4530:4538   */\n      0x6974696f6e730000000000000000000000000000000000000000000000000000\n        /* \"#utility.yul\":4525:4527   */\n      0x20\n        /* \"#utility.yul\":4517:4523   */\n      dup3\n        /* \"#utility.yul\":4513:4528   */\n      add\n        /* \"#utility.yul\":4506:4539   */\n      mstore\n        /* \"#utility.yul\":4427:4546   */\n      pop\n      jump\t// out\n        /* \"#utility.yul\":4552:4674   */\n    tag_97:\n        /* \"#utility.yul\":4625:4649   */\n      tag_147\n        /* \"#utility.yul\":4643:4648   */\n      dup2\n        /* \"#utility.yul\":4625:4649   */\n      tag_126\n      jump\t// in\n    tag_147:\n        /* \"#utility.yul\":4618:4623   */\n      dup2\n        /* \"#utility.yul\":4615:4650   */\n      eq\n        /* \"#utility.yul\":4605:4607   */\n      tag_148\n      jumpi\n        /* \"#utility.yul\":4664:4665   */\n      0x00\n        /* \"#utility.yul\":4661:4662   */\n      dup1\n        /* \"#utility.yul\":4654:4666   */\n      revert\n        /* \"#utility.yul\":4605:4607   */\n    tag_148:\n        /* \"#utility.yul\":4595:4674   */\n      pop\n      jump\t// out\n\n    auxdata: 0xa2646970667358221220b58bd8e5ccdef7d0aca83b0643a0c4fa389dd3e20e5819b24d41a4534531375764736f6c63430008010033\n}\n",
				"bytecode": {
					"linkReferences": {},
					"object": "6080604052671bc16d674ec800006004556000600560006101000a81548160ff0219169083151502179055506000600560016101000a81548160ff0219169083151502179055506001600a60006101000a81548160ff02191690831515021790555060405162000bfb38038062000bfb83398181016040528101906200008691906200018c565b6004543414620000cd576040517f08c379a0000000000000000000000000000000000000000000000000000000008152600401620000c490620001df565b60405180910390fd5b336000806101000a81548173ffffffffffffffffffffffffffffffffffffffff021916908373ffffffffffffffffffffffffffffffffffffffff16021790555080600160006101000a81548173ffffffffffffffffffffffffffffffffffffffff021916908373ffffffffffffffffffffffffffffffffffffffff160217905550426002819055506202a30060025462000168919062000212565b600381905550506200031f565b600081519050620001868162000305565b92915050565b6000602082840312156200019f57600080fd5b6000620001af8482850162000175565b91505092915050565b6000620001c7601d8362000201565b9150620001d482620002dc565b602082019050919050565b60006020820190508181036000830152620001fa81620001b8565b9050919050565b600082825260208201905092915050565b60006200021f82620002a3565b91506200022c83620002a3565b9250827fffffffffffffffffffffffffffffffffffffffffffffffffffffffffffffffff03821115620002645762000263620002ad565b5b828201905092915050565b60006200027c8262000283565b9050919050565b600073ffffffffffffffffffffffffffffffffffffffff82169050919050565b6000819050919050565b7f4e487b7100000000000000000000000000000000000000000000000000000000600052601160045260246000fd5b7f436f6e747261637420636f7374206d7573742062652032206574686572000000600082015250565b62000310816200026f565b81146200031c57600080fd5b50565b6108cc806200032f6000396000f3fe608060405234801561001057600080fd5b50600436106100ea5760003560e01c80639209bb881161008c578063bb91e9b111610066578063bb91e9b114610207578063d0d5d9df14610223578063e42b021214610241578063fd8ba9351461025f576100ea565b80639209bb88146101c1578063b4f7919b146101df578063b9ea4213146101fd576100ea565b80633428a9fc116100c85780633428a9fc146101495780636421d04b1461016757806378e97925146101855780638f5949f9146101a3576100ea565b80632006f675146100ef5780633197cbb61461010d57806332bde4b01461012b575b600080fd5b6100f761027d565b6040516101049190610793565b60405180910390f35b610115610287565b6040516101229190610793565b60405180910390f35b61013361028d565b6040516101409190610793565b60405180910390f35b610151610297565b60405161015e9190610793565b60405180910390f35b61016f6102a1565b60405161017c9190610793565b60405180910390f35b61018d6102ab565b60405161019a9190610793565b60405180910390f35b6101ab6102b1565b6040516101b89190610738565b60405180910390f35b6101c96102c4565b6040516101d6919061071d565b60405180910390f35b6101e76102ea565b6040516101f49190610738565b60405180910390f35b6102056102fd565b005b610221600480360381019061021c9190610647565b610463565b005b61022b6105f5565b6040516102389190610738565b60405180910390f35b610249610608565b604051610256919061071d565b60405180910390f35b61026761062c565b6040516102749190610793565b60405180910390f35b6000600854905090565b60035481565b6000600954905090565b6000600754905090565b6000600654905090565b60025481565b600a60009054906101000a900460ff1681565b600160009054906101000a900473ffffffffffffffffffffffffffffffffffffffff1681565b600560019054906101000a900460ff1681565b600560009054906101000a900460ff161561034d576040517f08c379a000000000000000000000000000000000000000000000000000000000815260040161034490610753565b60405180910390fd5b6003544210610461576001600560006101000a81548160ff021916908315150217905550600560019054906101000a900460ff16156103f657600160009054906101000a900473ffffffffffffffffffffffffffffffffffffffff1673ffffffffffffffffffffffffffffffffffffffff166108fc6004549081150290604051600060405180830381858888f193505050501580156103f0573d6000803e3d6000fd5b50610460565b60008054906101000a900473ffffffffffffffffffffffffffffffffffffffff1673ffffffffffffffffffffffffffffffffffffffff166108fc6004549081150290604051600060405180830381858888f1935050505015801561045e573d6000803e3d6000fd5b505b5b565b600560009054906101000a900460ff16156104b3576040517f08c379a00000000000000000000000000000000000000000000000000000000081526004016104aa90610753565b60405180910390fd5b60008054906101000a900473ffffffffffffffffffffffffffffffffffffffff1673ffffffffffffffffffffffffffffffffffffffff163373ffffffffffffffffffffffffffffffffffffffff1614610541576040517f08c379a000000000000000000000000000000000000000000000000000000000815260040161053890610773565b60405180910390fd5b83600681905550826007819055508160088190555080600981905550600960065410806105705750601b600654115b8061058d575061c350600854108061058c5750620249f0600854115b5b806105a75750600560075410806105a657506041600754115b5b156105c8576001600560016101000a81548160ff0219169083151502179055505b600160095414156105ef576000600a60006101000a81548160ff0219169083151502179055505b50505050565b600560009054906101000a900460ff1681565b60008054906101000a900473ffffffffffffffffffffffffffffffffffffffff1681565b60045481565b6000813590506106418161087f565b92915050565b6000806000806080858703121561065d57600080fd5b600061066b87828801610632565b945050602061067c87828801610632565b935050604061068d87828801610632565b925050606061069e87828801610632565b91505092959194509250565b6106b3816107bf565b82525050565b6106c2816107d1565b82525050565b60006106d5601c836107ae565b91506106e082610807565b602082019050919050565b60006106f86026836107ae565b915061070382610830565b604082019050919050565b610717816107fd565b82525050565b600060208201905061073260008301846106aa565b92915050565b600060208201905061074d60008301846106b9565b92915050565b6000602082019050818103600083015261076c816106c8565b9050919050565b6000602082019050818103600083015261078c816106eb565b9050919050565b60006020820190506107a8600083018461070e565b92915050565b600082825260208201905092915050565b60006107ca826107dd565b9050919050565b60008115159050919050565b600073ffffffffffffffffffffffffffffffffffffffff82169050919050565b6000819050919050565b7f436f6e74726163742068617320616c7265616479206578706972656400000000600082015250565b7f4f6e6c79207472616e73706f727465722063616e2075706461746520636f6e6460008201527f6974696f6e730000000000000000000000000000000000000000000000000000602082015250565b610888816107fd565b811461089357600080fd5b5056fea2646970667358221220b58bd8e5ccdef7d0aca83b0643a0c4fa389dd3e20e5819b24d41a4534531375764736f6c63430008010033",
					"opcodes": "PUSH1 0x80 PUSH1 0x40 MSTORE PUSH8 0x1BC16D674EC80000 PUSH1 0x4 SSTORE PUSH1 0x0 PUSH1 0x5 PUSH1 0x0 PUSH2 0x100 EXP DUP2 SLOAD DUP2 PUSH1 0xFF MUL NOT AND SWAP1 DUP4 ISZERO ISZERO MUL OR SWAP1 SSTORE POP PUSH1 0x0 PUSH1 0x5 PUSH1 0x1 PUSH2 0x100 EXP DUP2 SLOAD DUP2 PUSH1 0xFF MUL NOT AND SWAP1 DUP4 ISZERO ISZERO MUL OR SWAP1 SSTORE POP PUSH1 0x1 PUSH1 0xA PUSH1 0x0 PUSH2 0x100 EXP DUP2 SLOAD DUP2 PUSH1 0xFF MUL NOT AND SWAP1 DUP4 ISZERO ISZERO MUL OR SWAP1 SSTORE POP PUSH1 0x40 MLOAD PUSH3 0xBFB CODESIZE SUB DUP1 PUSH3 0xBFB DUP4 CODECOPY DUP2 DUP2 ADD PUSH1 0x40 MSTORE DUP2 ADD SWAP1 PUSH3 0x86 SWAP2 SWAP1 PUSH3 0x18C JUMP JUMPDEST PUSH1 0x4 SLOAD CALLVALUE EQ PUSH3 0xCD JUMPI PUSH1 0x40 MLOAD PUSH32 0x8C379A000000000000000000000000000000000000000000000000000000000 DUP2 MSTORE PUSH1 0x4 ADD PUSH3 0xC4 SWAP1 PUSH3 0x1DF JUMP JUMPDEST PUSH1 0x40 MLOAD DUP1 SWAP2 SUB SWAP1 REVERT JUMPDEST CALLER PUSH1 0x0 DUP1 PUSH2 0x100 EXP DUP2 SLOAD DUP2 PUSH20 0xFFFFFFFFFFFFFFFFFFFFFFFFFFFFFFFFFFFFFFFF MUL NOT AND SWAP1 DUP4 PUSH20 0xFFFFFFFFFFFFFFFFFFFFFFFFFFFFFFFFFFFFFFFF AND MUL OR SWAP1 SSTORE POP DUP1 PUSH1 0x1 PUSH1 0x0 PUSH2 0x100 EXP DUP2 SLOAD DUP2 PUSH20 0xFFFFFFFFFFFFFFFFFFFFFFFFFFFFFFFFFFFFFFFF MUL NOT AND SWAP1 DUP4 PUSH20 0xFFFFFFFFFFFFFFFFFFFFFFFFFFFFFFFFFFFFFFFF AND MUL OR SWAP1 SSTORE POP TIMESTAMP PUSH1 0x2 DUP2 SWAP1 SSTORE POP PUSH3 0x2A300 PUSH1 0x2 SLOAD PUSH3 0x168 SWAP2 SWAP1 PUSH3 0x212 JUMP JUMPDEST PUSH1 0x3 DUP2 SWAP1 SSTORE POP POP PUSH3 0x31F JUMP JUMPDEST PUSH1 0x0 DUP2 MLOAD SWAP1 POP PUSH3 0x186 DUP2 PUSH3 0x305 JUMP JUMPDEST SWAP3 SWAP2 POP POP JUMP JUMPDEST PUSH1 0x0 PUSH1 0x20 DUP3 DUP5 SUB SLT ISZERO PUSH3 0x19F JUMPI PUSH1 0x0 DUP1 REVERT JUMPDEST PUSH1 0x0 PUSH3 0x1AF DUP5 DUP3 DUP6 ADD PUSH3 0x175 JUMP JUMPDEST SWAP2 POP POP SWAP3 SWAP2 POP POP JUMP JUMPDEST PUSH1 0x0 PUSH3 0x1C7 PUSH1 0x1D DUP4 PUSH3 0x201 JUMP JUMPDEST SWAP2 POP PUSH3 0x1D4 DUP3 PUSH3 0x2DC JUMP JUMPDEST PUSH1 0x20 DUP3 ADD SWAP1 POP SWAP2 SWAP1 POP JUMP JUMPDEST PUSH1 0x0 PUSH1 0x20 DUP3 ADD SWAP1 POP DUP2 DUP2 SUB PUSH1 0x0 DUP4 ADD MSTORE PUSH3 0x1FA DUP2 PUSH3 0x1B8 JUMP JUMPDEST SWAP1 POP SWAP2 SWAP1 POP JUMP JUMPDEST PUSH1 0x0 DUP3 DUP3 MSTORE PUSH1 0x20 DUP3 ADD SWAP1 POP SWAP3 SWAP2 POP POP JUMP JUMPDEST PUSH1 0x0 PUSH3 0x21F DUP3 PUSH3 0x2A3 JUMP JUMPDEST SWAP2 POP PUSH3 0x22C DUP4 PUSH3 0x2A3 JUMP JUMPDEST SWAP3 POP DUP3 PUSH32 0xFFFFFFFFFFFFFFFFFFFFFFFFFFFFFFFFFFFFFFFFFFFFFFFFFFFFFFFFFFFFFFFF SUB DUP3 GT ISZERO PUSH3 0x264 JUMPI PUSH3 0x263 PUSH3 0x2AD JUMP JUMPDEST JUMPDEST DUP3 DUP3 ADD SWAP1 POP SWAP3 SWAP2 POP POP JUMP JUMPDEST PUSH1 0x0 PUSH3 0x27C DUP3 PUSH3 0x283 JUMP JUMPDEST SWAP1 POP SWAP2 SWAP1 POP JUMP JUMPDEST PUSH1 0x0 PUSH20 0xFFFFFFFFFFFFFFFFFFFFFFFFFFFFFFFFFFFFFFFF DUP3 AND SWAP1 POP SWAP2 SWAP1 POP JUMP JUMPDEST PUSH1 0x0 DUP2 SWAP1 POP SWAP2 SWAP1 POP JUMP JUMPDEST PUSH32 0x4E487B7100000000000000000000000000000000000000000000000000000000 PUSH1 0x0 MSTORE PUSH1 0x11 PUSH1 0x4 MSTORE PUSH1 0x24 PUSH1 0x0 REVERT JUMPDEST PUSH32 0x436F6E747261637420636F7374206D7573742062652032206574686572000000 PUSH1 0x0 DUP3 ADD MSTORE POP JUMP JUMPDEST PUSH3 0x310 DUP2 PUSH3 0x26F JUMP JUMPDEST DUP2 EQ PUSH3 0x31C JUMPI PUSH1 0x0 DUP1 REVERT JUMPDEST POP JUMP JUMPDEST PUSH2 0x8CC DUP1 PUSH3 0x32F PUSH1 0x0 CODECOPY PUSH1 0x0 RETURN INVALID PUSH1 0x80 PUSH1 0x40 MSTORE CALLVALUE DUP1 ISZERO PUSH2 0x10 JUMPI PUSH1 0x0 DUP1 REVERT JUMPDEST POP PUSH1 0x4 CALLDATASIZE LT PUSH2 0xEA JUMPI PUSH1 0x0 CALLDATALOAD PUSH1 0xE0 SHR DUP1 PUSH4 0x9209BB88 GT PUSH2 0x8C JUMPI DUP1 PUSH4 0xBB91E9B1 GT PUSH2 0x66 JUMPI DUP1 PUSH4 0xBB91E9B1 EQ PUSH2 0x207 JUMPI DUP1 PUSH4 0xD0D5D9DF EQ PUSH2 0x223 JUMPI DUP1 PUSH4 0xE42B0212 EQ PUSH2 0x241 JUMPI DUP1 PUSH4 0xFD8BA935 EQ PUSH2 0x25F JUMPI PUSH2 0xEA JUMP JUMPDEST DUP1 PUSH4 0x9209BB88 EQ PUSH2 0x1C1 JUMPI DUP1 PUSH4 0xB4F7919B EQ PUSH2 0x1DF JUMPI DUP1 PUSH4 0xB9EA4213 EQ PUSH2 0x1FD JUMPI PUSH2 0xEA JUMP JUMPDEST DUP1 PUSH4 0x3428A9FC GT PUSH2 0xC8 JUMPI DUP1 PUSH4 0x3428A9FC EQ PUSH2 0x149 JUMPI DUP1 PUSH4 0x6421D04B EQ PUSH2 0x167 JUMPI DUP1 PUSH4 0x78E97925 EQ PUSH2 0x185 JUMPI DUP1 PUSH4 0x8F5949F9 EQ PUSH2 0x1A3 JUMPI PUSH2 0xEA JUMP JUMPDEST DUP1 PUSH4 0x2006F675 EQ PUSH2 0xEF JUMPI DUP1 PUSH4 0x3197CBB6 EQ PUSH2 0x10D JUMPI DUP1 PUSH4 0x32BDE4B0 EQ PUSH2 0x12B JUMPI JUMPDEST PUSH1 0x0 DUP1 REVERT JUMPDEST PUSH2 0xF7 PUSH2 0x27D JUMP JUMPDEST PUSH1 0x40 MLOAD PUSH2 0x104 SWAP2 SWAP1 PUSH2 0x793 JUMP JUMPDEST PUSH1 0x40 MLOAD DUP1 SWAP2 SUB SWAP1 RETURN JUMPDEST PUSH2 0x115 PUSH2 0x287 JUMP JUMPDEST PUSH1 0x40 MLOAD PUSH2 0x122 SWAP2 SWAP1 PUSH2 0x793 JUMP JUMPDEST PUSH1 0x40 MLOAD DUP1 SWAP2 SUB SWAP1 RETURN JUMPDEST PUSH2 0x133 PUSH2 0x28D JUMP JUMPDEST PUSH1 0x40 MLOAD PUSH2 0x140 SWAP2 SWAP1 PUSH2 0x793 JUMP JUMPDEST PUSH1 0x40 MLOAD DUP1 SWAP2 SUB SWAP1 RETURN JUMPDEST PUSH2 0x151 PUSH2 0x297 JUMP JUMPDEST PUSH1 0x40 MLOAD PUSH2 0x15E SWAP2 SWAP1 PUSH2 0x793 JUMP JUMPDEST PUSH1 0x40 MLOAD DUP1 SWAP2 SUB SWAP1 RETURN JUMPDEST PUSH2 0x16F PUSH2 0x2A1 JUMP JUMPDEST PUSH1 0x40 MLOAD PUSH2 0x17C SWAP2 SWAP1 PUSH2 0x793 JUMP JUMPDEST PUSH1 0x40 MLOAD DUP1 SWAP2 SUB SWAP1 RETURN JUMPDEST PUSH2 0x18D PUSH2 0x2AB JUMP JUMPDEST PUSH1 0x40 MLOAD PUSH2 0x19A SWAP2 SWAP1 PUSH2 0x793 JUMP JUMPDEST PUSH1 0x40 MLOAD DUP1 SWAP2 SUB SWAP1 RETURN JUMPDEST PUSH2 0x1AB PUSH2 0x2B1 JUMP JUMPDEST PUSH1 0x40 MLOAD PUSH2 0x1B8 SWAP2 SWAP1 PUSH2 0x738 JUMP JUMPDEST PUSH1 0x40 MLOAD DUP1 SWAP2 SUB SWAP1 RETURN JUMPDEST PUSH2 0x1C9 PUSH2 0x2C4 JUMP JUMPDEST PUSH1 0x40 MLOAD PUSH2 0x1D6 SWAP2 SWAP1 PUSH2 0x71D JUMP JUMPDEST PUSH1 0x40 MLOAD DUP1 SWAP2 SUB SWAP1 RETURN JUMPDEST PUSH2 0x1E7 PUSH2 0x2EA JUMP JUMPDEST PUSH1 0x40 MLOAD PUSH2 0x1F4 SWAP2 SWAP1 PUSH2 0x738 JUMP JUMPDEST PUSH1 0x40 MLOAD DUP1 SWAP2 SUB SWAP1 RETURN JUMPDEST PUSH2 0x205 PUSH2 0x2FD JUMP JUMPDEST STOP JUMPDEST PUSH2 0x221 PUSH1 0x4 DUP1 CALLDATASIZE SUB DUP2 ADD SWAP1 PUSH2 0x21C SWAP2 SWAP1 PUSH2 0x647 JUMP JUMPDEST PUSH2 0x463 JUMP JUMPDEST STOP JUMPDEST PUSH2 0x22B PUSH2 0x5F5 JUMP JUMPDEST PUSH1 0x40 MLOAD PUSH2 0x238 SWAP2 SWAP1 PUSH2 0x738 JUMP JUMPDEST PUSH1 0x40 MLOAD DUP1 SWAP2 SUB SWAP1 RETURN JUMPDEST PUSH2 0x249 PUSH2 0x608 JUMP JUMPDEST PUSH1 0x40 MLOAD PUSH2 0x256 SWAP2 SWAP1 PUSH2 0x71D JUMP JUMPDEST PUSH1 0x40 MLOAD DUP1 SWAP2 SUB SWAP1 RETURN JUMPDEST PUSH2 0x267 PUSH2 0x62C JUMP JUMPDEST PUSH1 0x40 MLOAD PUSH2 0x274 SWAP2 SWAP1 PUSH2 0x793 JUMP JUMPDEST PUSH1 0x40 MLOAD DUP1 SWAP2 SUB SWAP1 RETURN JUMPDEST PUSH1 0x0 PUSH1 0x8 SLOAD SWAP1 POP SWAP1 JUMP JUMPDEST PUSH1 0x3 SLOAD DUP2 JUMP JUMPDEST PUSH1 0x0 PUSH1 0x9 SLOAD SWAP1 POP SWAP1 JUMP JUMPDEST PUSH1 0x0 PUSH1 0x7 SLOAD SWAP1 POP SWAP1 JUMP JUMPDEST PUSH1 0x0 PUSH1 0x6 SLOAD SWAP1 POP SWAP1 JUMP JUMPDEST PUSH1 0x2 SLOAD DUP2 JUMP JUMPDEST PUSH1 0xA PUSH1 0x0 SWAP1 SLOAD SWAP1 PUSH2 0x100 EXP SWAP1 DIV PUSH1 0xFF AND DUP2 JUMP JUMPDEST PUSH1 0x1 PUSH1 0x0 SWAP1 SLOAD SWAP1 PUSH2 0x100 EXP SWAP1 DIV PUSH20 0xFFFFFFFFFFFFFFFFFFFFFFFFFFFFFFFFFFFFFFFF AND DUP2 JUMP JUMPDEST PUSH1 0x5 PUSH1 0x1 SWAP1 SLOAD SWAP1 PUSH2 0x100 EXP SWAP1 DIV PUSH1 0xFF AND DUP2 JUMP JUMPDEST PUSH1 0x5 PUSH1 0x0 SWAP1 SLOAD SWAP1 PUSH2 0x100 EXP SWAP1 DIV PUSH1 0xFF AND ISZERO PUSH2 0x34D JUMPI PUSH1 0x40 MLOAD PUSH32 0x8C379A000000000000000000000000000000000000000000000000000000000 DUP2 MSTORE PUSH1 0x4 ADD PUSH2 0x344 SWAP1 PUSH2 0x753 JUMP JUMPDEST PUSH1 0x40 MLOAD DUP1 SWAP2 SUB SWAP1 REVERT JUMPDEST PUSH1 0x3 SLOAD TIMESTAMP LT PUSH2 0x461 JUMPI PUSH1 0x1 PUSH1 0x5 PUSH1 0x0 PUSH2 0x100 EXP DUP2 SLOAD DUP2 PUSH1 0xFF MUL NOT AND SWAP1 DUP4 ISZERO ISZERO MUL OR SWAP1 SSTORE POP PUSH1 0x5 PUSH1 0x1 SWAP1 SLOAD SWAP1 PUSH2 0x100 EXP SWAP1 DIV PUSH1 0xFF AND ISZERO PUSH2 0x3F6 JUMPI PUSH1 0x1 PUSH1 0x0 SWAP1 SLOAD SWAP1 PUSH2 0x100 EXP SWAP1 DIV PUSH20 0xFFFFFFFFFFFFFFFFFFFFFFFFFFFFFFFFFFFFFFFF AND PUSH20 0xFFFFFFFFFFFFFFFFFFFFFFFFFFFFFFFFFFFFFFFF AND PUSH2 0x8FC PUSH1 0x4 SLOAD SWAP1 DUP2 ISZERO MUL SWAP1 PUSH1 0x40 MLOAD PUSH1 0x0 PUSH1 0x40 MLOAD DUP1 DUP4 SUB DUP2 DUP6 DUP9 DUP9 CALL SWAP4 POP POP POP POP ISZERO DUP1 ISZERO PUSH2 0x3F0 JUMPI RETURNDATASIZE PUSH1 0x0 DUP1 RETURNDATACOPY RETURNDATASIZE PUSH1 0x0 REVERT JUMPDEST POP PUSH2 0x460 JUMP JUMPDEST PUSH1 0x0 DUP1 SLOAD SWAP1 PUSH2 0x100 EXP SWAP1 DIV PUSH20 0xFFFFFFFFFFFFFFFFFFFFFFFFFFFFFFFFFFFFFFFF AND PUSH20 0xFFFFFFFFFFFFFFFFFFFFFFFFFFFFFFFFFFFFFFFF AND PUSH2 0x8FC PUSH1 0x4 SLOAD SWAP1 DUP2 ISZERO MUL SWAP1 PUSH1 0x40 MLOAD PUSH1 0x0 PUSH1 0x40 MLOAD DUP1 DUP4 SUB DUP2 DUP6 DUP9 DUP9 CALL SWAP4 POP POP POP POP ISZERO DUP1 ISZERO PUSH2 0x45E JUMPI RETURNDATASIZE PUSH1 0x0 DUP1 RETURNDATACOPY RETURNDATASIZE PUSH1 0x0 REVERT JUMPDEST POP JUMPDEST JUMPDEST JUMP JUMPDEST PUSH1 0x5 PUSH1 0x0 SWAP1 SLOAD SWAP1 PUSH2 0x100 EXP SWAP1 DIV PUSH1 0xFF AND ISZERO PUSH2 0x4B3 JUMPI PUSH1 0x40 MLOAD PUSH32 0x8C379A000000000000000000000000000000000000000000000000000000000 DUP2 MSTORE PUSH1 0x4 ADD PUSH2 0x4AA SWAP1 PUSH2 0x753 JUMP JUMPDEST PUSH1 0x40 MLOAD DUP1 SWAP2 SUB SWAP1 REVERT JUMPDEST PUSH1 0x0 DUP1 SLOAD SWAP1 PUSH2 0x100 EXP SWAP1 DIV PUSH20 0xFFFFFFFFFFFFFFFFFFFFFFFFFFFFFFFFFFFFFFFF AND PUSH20 0xFFFFFFFFFFFFFFFFFFFFFFFFFFFFFFFFFFFFFFFF AND CALLER PUSH20 0xFFFFFFFFFFFFFFFFFFFFFFFFFFFFFFFFFFFFFFFF AND EQ PUSH2 0x541 JUMPI PUSH1 0x40 MLOAD PUSH32 0x8C379A000000000000000000000000000000000000000000000000000000000 DUP2 MSTORE PUSH1 0x4 ADD PUSH2 0x538 SWAP1 PUSH2 0x773 JUMP JUMPDEST PUSH1 0x40 MLOAD DUP1 SWAP2 SUB SWAP1 REVERT JUMPDEST DUP4 PUSH1 0x6 DUP2 SWAP1 SSTORE POP DUP3 PUSH1 0x7 DUP2 SWAP1 SSTORE POP DUP2 PUSH1 0x8 DUP2 SWAP1 SSTORE POP DUP1 PUSH1 0x9 DUP2 SWAP1 SSTORE POP PUSH1 0x9 PUSH1 0x6 SLOAD LT DUP1 PUSH2 0x570 JUMPI POP PUSH1 0x1B PUSH1 0x6 SLOAD GT JUMPDEST DUP1 PUSH2 0x58D JUMPI POP PUSH2 0xC350 PUSH1 0x8 SLOAD LT DUP1 PUSH2 0x58C JUMPI POP PUSH3 0x249F0 PUSH1 0x8 SLOAD GT JUMPDEST JUMPDEST DUP1 PUSH2 0x5A7 JUMPI POP PUSH1 0x5 PUSH1 0x7 SLOAD LT DUP1 PUSH2 0x5A6 JUMPI POP PUSH1 0x41 PUSH1 0x7 SLOAD GT JUMPDEST JUMPDEST ISZERO PUSH2 0x5C8 JUMPI PUSH1 0x1 PUSH1 0x5 PUSH1 0x1 PUSH2 0x100 EXP DUP2 SLOAD DUP2 PUSH1 0xFF MUL NOT AND SWAP1 DUP4 ISZERO ISZERO MUL OR SWAP1 SSTORE POP JUMPDEST PUSH1 0x1 PUSH1 0x9 SLOAD EQ ISZERO PUSH2 0x5EF JUMPI PUSH1 0x0 PUSH1 0xA PUSH1 0x0 PUSH2 0x100 EXP DUP2 SLOAD DUP2 PUSH1 0xFF MUL NOT AND SWAP1 DUP4 ISZERO ISZERO MUL OR SWAP1 SSTORE POP JUMPDEST POP POP POP POP JUMP JUMPDEST PUSH1 0x5 PUSH1 0x0 SWAP1 SLOAD SWAP1 PUSH2 0x100 EXP SWAP1 DIV PUSH1 0xFF AND DUP2 JUMP JUMPDEST PUSH1 0x0 DUP1 SLOAD SWAP1 PUSH2 0x100 EXP SWAP1 DIV PUSH20 0xFFFFFFFFFFFFFFFFFFFFFFFFFFFFFFFFFFFFFFFF AND DUP2 JUMP JUMPDEST PUSH1 0x4 SLOAD DUP2 JUMP JUMPDEST PUSH1 0x0 DUP2 CALLDATALOAD SWAP1 POP PUSH2 0x641 DUP2 PUSH2 0x87F JUMP JUMPDEST SWAP3 SWAP2 POP POP JUMP JUMPDEST PUSH1 0x0 DUP1 PUSH1 0x0 DUP1 PUSH1 0x80 DUP6 DUP8 SUB SLT ISZERO PUSH2 0x65D JUMPI PUSH1 0x0 DUP1 REVERT JUMPDEST PUSH1 0x0 PUSH2 0x66B DUP8 DUP3 DUP9 ADD PUSH2 0x632 JUMP JUMPDEST SWAP5 POP POP PUSH1 0x20 PUSH2 0x67C DUP8 DUP3 DUP9 ADD PUSH2 0x632 JUMP JUMPDEST SWAP4 POP POP PUSH1 0x40 PUSH2 0x68D DUP8 DUP3 DUP9 ADD PUSH2 0x632 JUMP JUMPDEST SWAP3 POP POP PUSH1 0x60 PUSH2 0x69E DUP8 DUP3 DUP9 ADD PUSH2 0x632 JUMP JUMPDEST SWAP2 POP POP SWAP3 SWAP6 SWAP2 SWAP5 POP SWAP3 POP JUMP JUMPDEST PUSH2 0x6B3 DUP2 PUSH2 0x7BF JUMP JUMPDEST DUP3 MSTORE POP POP JUMP JUMPDEST PUSH2 0x6C2 DUP2 PUSH2 0x7D1 JUMP JUMPDEST DUP3 MSTORE POP POP JUMP JUMPDEST PUSH1 0x0 PUSH2 0x6D5 PUSH1 0x1C DUP4 PUSH2 0x7AE JUMP JUMPDEST SWAP2 POP PUSH2 0x6E0 DUP3 PUSH2 0x807 JUMP JUMPDEST PUSH1 0x20 DUP3 ADD SWAP1 POP SWAP2 SWAP1 POP JUMP JUMPDEST PUSH1 0x0 PUSH2 0x6F8 PUSH1 0x26 DUP4 PUSH2 0x7AE JUMP JUMPDEST SWAP2 POP PUSH2 0x703 DUP3 PUSH2 0x830 JUMP JUMPDEST PUSH1 0x40 DUP3 ADD SWAP1 POP SWAP2 SWAP1 POP JUMP JUMPDEST PUSH2 0x717 DUP2 PUSH2 0x7FD JUMP JUMPDEST DUP3 MSTORE POP POP JUMP JUMPDEST PUSH1 0x0 PUSH1 0x20 DUP3 ADD SWAP1 POP PUSH2 0x732 PUSH1 0x0 DUP4 ADD DUP5 PUSH2 0x6AA JUMP JUMPDEST SWAP3 SWAP2 POP POP JUMP JUMPDEST PUSH1 0x0 PUSH1 0x20 DUP3 ADD SWAP1 POP PUSH2 0x74D PUSH1 0x0 DUP4 ADD DUP5 PUSH2 0x6B9 JUMP JUMPDEST SWAP3 SWAP2 POP POP JUMP JUMPDEST PUSH1 0x0 PUSH1 0x20 DUP3 ADD SWAP1 POP DUP2 DUP2 SUB PUSH1 0x0 DUP4 ADD MSTORE PUSH2 0x76C DUP2 PUSH2 0x6C8 JUMP JUMPDEST SWAP1 POP SWAP2 SWAP1 POP JUMP JUMPDEST PUSH1 0x0 PUSH1 0x20 DUP3 ADD SWAP1 POP DUP2 DUP2 SUB PUSH1 0x0 DUP4 ADD MSTORE PUSH2 0x78C DUP2 PUSH2 0x6EB JUMP JUMPDEST SWAP1 POP SWAP2 SWAP1 POP JUMP JUMPDEST PUSH1 0x0 PUSH1 0x20 DUP3 ADD SWAP1 POP PUSH2 0x7A8 PUSH1 0x0 DUP4 ADD DUP5 PUSH2 0x70E JUMP JUMPDEST SWAP3 SWAP2 POP POP JUMP JUMPDEST PUSH1 0x0 DUP3 DUP3 MSTORE PUSH1 0x20 DUP3 ADD SWAP1 POP SWAP3 SWAP2 POP POP JUMP JUMPDEST PUSH1 0x0 PUSH2 0x7CA DUP3 PUSH2 0x7DD JUMP JUMPDEST SWAP1 POP SWAP2 SWAP1 POP JUMP JUMPDEST PUSH1 0x0 DUP2 ISZERO ISZERO SWAP1 POP SWAP2 SWAP1 POP JUMP JUMPDEST PUSH1 0x0 PUSH20 0xFFFFFFFFFFFFFFFFFFFFFFFFFFFFFFFFFFFFFFFF DUP3 AND SWAP1 POP SWAP2 SWAP1 POP JUMP JUMPDEST PUSH1 0x0 DUP2 SWAP1 POP SWAP2 SWAP1 POP JUMP JUMPDEST PUSH32 0x436F6E74726163742068617320616C7265616479206578706972656400000000 PUSH1 0x0 DUP3 ADD MSTORE POP JUMP JUMPDEST PUSH32 0x4F6E6C79207472616E73706F727465722063616E2075706461746520636F6E64 PUSH1 0x0 DUP3 ADD MSTORE PUSH32 0x6974696F6E730000000000000000000000000000000000000000000000000000 PUSH1 0x20 DUP3 ADD MSTORE POP JUMP JUMPDEST PUSH2 0x888 DUP2 PUSH2 0x7FD JUMP JUMPDEST DUP2 EQ PUSH2 0x893 JUMPI PUSH1 0x0 DUP1 REVERT JUMPDEST POP JUMP INVALID LOG2 PUSH5 0x6970667358 0x22 SLT KECCAK256 0xB5 DUP12 0xD8 0xE5 0xCC 0xDE 0xF7 0xD0 0xAC 0xA8 EXTCODESIZE MOD NUMBER LOG0 0xC4 STATICCALL CODESIZE SWAP14 0xD3 0xE2 0xE PC NOT 0xB2 0x4D COINBASE LOG4 MSTORE8 GASLIMIT BALANCE CALLDATACOPY JUMPI PUSH5 0x736F6C6343 STOP ADDMOD ADD STOP CALLER "
				},
				"gasEstimates": {
					"creation": {
						"codeDepositCost": "450400",
						"executionCost": "infinite",
						"totalCost": "infinite"
					},
					"external": {
						"checkContractExpiry()": "infinite",
						"conditionViolated()": "1266",
						"contractCost()": "1217",
						"contractExpired()": "1215",
						"endTime()": "1175",
						"getHumidity()": "1160",
						"getPressure()": "1161",
						"getTemperature()": "1182",
						"getVibration()": "1205",
						"isContractActive()": "1260",
						"productOwner()": "1237",
						"startTime()": "1196",
						"transporter()": "1277",
						"updateConditions(uint256,uint256,uint256,uint256)": "infinite"
					}
				},
				"methodIdentifiers": {
					"checkContractExpiry()": "b9ea4213",
					"conditionViolated()": "b4f7919b",
					"contractCost()": "fd8ba935",
					"contractExpired()": "d0d5d9df",
					"endTime()": "3197cbb6",
					"getHumidity()": "3428a9fc",
					"getPressure()": "2006f675",
					"getTemperature()": "6421d04b",
					"getVibration()": "32bde4b0",
					"isContractActive()": "8f5949f9",
					"productOwner()": "9209bb88",
					"startTime()": "78e97925",
					"transporter()": "e42b0212",
					"updateConditions(uint256,uint256,uint256,uint256)": "bb91e9b1"
				}
			},
			"storageLayout": {
				"storage": [
					{
						"astId": 3,
						"contract": "contracts/dvd.sol:SensorContract",
						"label": "transporter",
						"offset": 0,
						"slot": "0",
						"type": "t_address_payable"
					},
					{
						"astId": 5,
						"contract": "contracts/dvd.sol:SensorContract",
						"label": "productOwner",
						"offset": 0,
						"slot": "1",
						"type": "t_address_payable"
					},
					{
						"astId": 7,
						"contract": "contracts/dvd.sol:SensorContract",
						"label": "startTime",
						"offset": 0,
						"slot": "2",
						"type": "t_uint256"
					},
					{
						"astId": 9,
						"contract": "contracts/dvd.sol:SensorContract",
						"label": "endTime",
						"offset": 0,
						"slot": "3",
						"type": "t_uint256"
					},
					{
						"astId": 12,
						"contract": "contracts/dvd.sol:SensorContract",
						"label": "contractCost",
						"offset": 0,
						"slot": "4",
						"type": "t_uint256"
					},
					{
						"astId": 15,
						"contract": "contracts/dvd.sol:SensorContract",
						"label": "contractExpired",
						"offset": 0,
						"slot": "5",
						"type": "t_bool"
					},
					{
						"astId": 18,
						"contract": "contracts/dvd.sol:SensorContract",
						"label": "conditionViolated",
						"offset": 1,
						"slot": "5",
						"type": "t_bool"
					},
					{
						"astId": 20,
						"contract": "contracts/dvd.sol:SensorContract",
						"label": "temperature",
						"offset": 0,
						"slot": "6",
						"type": "t_uint256"
					},
					{
						"astId": 22,
						"contract": "contracts/dvd.sol:SensorContract",
						"label": "humidity",
						"offset": 0,
						"slot": "7",
						"type": "t_uint256"
					},
					{
						"astId": 24,
						"contract": "contracts/dvd.sol:SensorContract",
						"label": "pressure",
						"offset": 0,
						"slot": "8",
						"type": "t_uint256"
					},
					{
						"astId": 26,
						"contract": "contracts/dvd.sol:SensorContract",
						"label": "vibration",
						"offset": 0,
						"slot": "9",
						"type": "t_uint256"
					},
					{
						"astId": 29,
						"contract": "contracts/dvd.sol:SensorContract",
						"label": "isContractActive",
						"offset": 0,
						"slot": "10",
						"type": "t_bool"
					}
				],
				"types": {
					"t_address_payable": {
						"encoding": "inplace",
						"label": "address payable",
						"numberOfBytes": "20"
					},
					"t_bool": {
						"encoding": "inplace",
						"label": "bool",
						"numberOfBytes": "1"
					},
					"t_uint256": {
						"encoding": "inplace",
						"label": "uint256",
						"numberOfBytes": "32"
					}
				}
			},
			"userdoc": {
				"kind": "user",
				"methods": {},
				"version": 1
			}
		}
	}
}