{
	"contracts/ISensorPayment.sol": {
		"SensorContract": {
			"abi": [
				{
					"inputs": [
						{
							"internalType": "address payable",
							"name": "_transporter",
							"type": "address"
						},
						{
							"internalType": "address payable",
							"name": "_owner",
							"type": "address"
						}
					],
					"stateMutability": "nonpayable",
					"type": "constructor"
				},
				{
					"inputs": [],
					"name": "humidity",
					"outputs": [
						{
							"internalType": "uint256",
							"name": "",
							"type": "uint256"
						}
					],
					"stateMutability": "view",
					"type": "function"
				},
				{
					"inputs": [],
					"name": "isContractActive",
					"outputs": [
						{
							"internalType": "bool",
							"name": "",
							"type": "bool"
						}
					],
					"stateMutability": "view",
					"type": "function"
				},
				{
					"inputs": [],
					"name": "isPaymentMade",
					"outputs": [
						{
							"internalType": "bool",
							"name": "",
							"type": "bool"
						}
					],
					"stateMutability": "view",
					"type": "function"
				},
				{
					"inputs": [],
					"name": "lastVibrationTime",
					"outputs": [
						{
							"internalType": "uint256",
							"name": "",
							"type": "uint256"
						}
					],
					"stateMutability": "view",
					"type": "function"
				},
				{
					"inputs": [],
					"name": "owner",
					"outputs": [
						{
							"internalType": "address payable",
							"name": "",
							"type": "address"
						}
					],
					"stateMutability": "view",
					"type": "function"
				},
				{
					"inputs": [],
					"name": "paymentAmount",
					"outputs": [
						{
							"internalType": "uint256",
							"name": "",
							"type": "uint256"
						}
					],
					"stateMutability": "view",
					"type": "function"
				},
				{
					"inputs": [],
					"name": "pressure",
					"outputs": [
						{
							"internalType": "uint256",
							"name": "",
							"type": "uint256"
						}
					],
					"stateMutability": "view",
					"type": "function"
				},
				{
					"inputs": [
						{
							"internalType": "uint256",
							"name": "_temperature",
							"type": "uint256"
						},
						{
							"internalType": "uint256",
							"name": "_humidity",
							"type": "uint256"
						},
						{
							"internalType": "uint256",
							"name": "_pressure",
							"type": "uint256"
						},
						{
							"internalType": "uint256",
							"name": "_vibration",
							"type": "uint256"
						}
					],
					"name": "setSensorValues",
					"outputs": [],
					"stateMutability": "nonpayable",
					"type": "function"
				},
				{
					"inputs": [],
					"name": "temperature",
					"outputs": [
						{
							"internalType": "uint256",
							"name": "",
							"type": "uint256"
						}
					],
					"stateMutability": "view",
					"type": "function"
				},
				{
					"inputs": [],
					"name": "transporter",
					"outputs": [
						{
							"internalType": "address payable",
							"name": "",
							"type": "address"
						}
					],
					"stateMutability": "view",
					"type": "function"
				},
				{
					"inputs": [],
					"name": "vibration",
					"outputs": [
						{
							"internalType": "uint256",
							"name": "",
							"type": "uint256"
						}
					],
					"stateMutability": "view",
					"type": "function"
				}
			],
			"devdoc": {
				"kind": "dev",
				"methods": {},
				"version": 1
			},
			"evm": {
				"assembly": "    /* \"contracts/ISensorPayment.sol\":64:1898  contract SensorContract {... */\n  mstore(0x40, 0x80)\n    /* \"contracts/ISensorPayment.sol\":333:337  true */\n  0x01\n    /* \"contracts/ISensorPayment.sol\":302:337  bool public isContractActive = true */\n  0x05\n  exp(0x0100, 0x00)\n  dup2\n  sload\n  dup2\n  0xff\n  mul\n  not\n  and\n  swap1\n  dup4\n  iszero\n  iszero\n  mul\n  or\n  swap1\n  sstore\n  pop\n    /* \"contracts/ISensorPayment.sol\":548:555  2 ether */\n  0x1bc16d674ec80000\n    /* \"contracts/ISensorPayment.sol\":517:555  uint256 public paymentAmount = 2 ether */\n  0x07\n  sstore\n    /* \"contracts/ISensorPayment.sol\":589:594  false */\n  0x00\n    /* \"contracts/ISensorPayment.sol\":561:594  bool public isPaymentMade = false */\n  0x08\n  exp(0x0100, 0x00)\n  dup2\n  sload\n  dup2\n  0xff\n  mul\n  not\n  and\n  swap1\n  dup4\n  iszero\n  iszero\n  mul\n  or\n  swap1\n  sstore\n  pop\n    /* \"contracts/ISensorPayment.sol\":601:734  constructor(address payable _transporter, address payable _owner) {... */\n  callvalue\n  dup1\n  iszero\n  tag_1\n  jumpi\n  0x00\n  dup1\n  revert\ntag_1:\n  pop\n  mload(0x40)\n  sub(codesize, bytecodeSize)\n  dup1\n  bytecodeSize\n  dup4\n  codecopy\n  dup2\n  dup2\n  add\n  0x40\n  mstore\n  dup2\n  add\n  swap1\n  tag_2\n  swap2\n  swap1\n  tag_3\n  jump\t// in\ntag_2:\n    /* \"contracts/ISensorPayment.sol\":691:703  _transporter */\n  dup2\n    /* \"contracts/ISensorPayment.sol\":677:688  transporter */\n  0x05\n  0x01\n    /* \"contracts/ISensorPayment.sol\":677:703  transporter = _transporter */\n  0x0100\n  exp\n  dup2\n  sload\n  dup2\n  0xffffffffffffffffffffffffffffffffffffffff\n  mul\n  not\n  and\n  swap1\n  dup4\n  0xffffffffffffffffffffffffffffffffffffffff\n  and\n  mul\n  or\n  swap1\n  sstore\n  pop\n    /* \"contracts/ISensorPayment.sol\":721:727  _owner */\n  dup1\n    /* \"contracts/ISensorPayment.sol\":713:718  owner */\n  0x06\n  0x00\n    /* \"contracts/ISensorPayment.sol\":713:727  owner = _owner */\n  0x0100\n  exp\n  dup2\n  sload\n  dup2\n  0xffffffffffffffffffffffffffffffffffffffff\n  mul\n  not\n  and\n  swap1\n  dup4\n  0xffffffffffffffffffffffffffffffffffffffff\n  and\n  mul\n  or\n  swap1\n  sstore\n  pop\n    /* \"contracts/ISensorPayment.sol\":601:734  constructor(address payable _transporter, address payable _owner) {... */\n  pop\n  pop\n    /* \"contracts/ISensorPayment.sol\":64:1898  contract SensorContract {... */\n  jump(tag_6)\n    /* \"#utility.yul\":7:166   */\ntag_8:\n  0x00\n    /* \"#utility.yul\":103:109   */\n  dup2\n    /* \"#utility.yul\":97:110   */\n  mload\n    /* \"#utility.yul\":88:110   */\n  swap1\n  pop\n    /* \"#utility.yul\":119:160   */\n  tag_10\n    /* \"#utility.yul\":154:159   */\n  dup2\n    /* \"#utility.yul\":119:160   */\n  tag_11\n  jump\t// in\ntag_10:\n    /* \"#utility.yul\":78:166   */\n  swap3\n  swap2\n  pop\n  pop\n  jump\t// out\n    /* \"#utility.yul\":172:644   */\ntag_3:\n  0x00\n  dup1\n    /* \"#utility.yul\":324:326   */\n  0x40\n    /* \"#utility.yul\":312:321   */\n  dup4\n    /* \"#utility.yul\":303:310   */\n  dup6\n    /* \"#utility.yul\":299:322   */\n  sub\n    /* \"#utility.yul\":295:327   */\n  slt\n    /* \"#utility.yul\":292:294   */\n  iszero\n  tag_13\n  jumpi\n    /* \"#utility.yul\":340:341   */\n  0x00\n    /* \"#utility.yul\":337:338   */\n  dup1\n    /* \"#utility.yul\":330:342   */\n  revert\n    /* \"#utility.yul\":292:294   */\ntag_13:\n    /* \"#utility.yul\":383:384   */\n  0x00\n    /* \"#utility.yul\":408:480   */\n  tag_14\n    /* \"#utility.yul\":472:479   */\n  dup6\n    /* \"#utility.yul\":463:469   */\n  dup3\n    /* \"#utility.yul\":452:461   */\n  dup7\n    /* \"#utility.yul\":448:470   */\n  add\n    /* \"#utility.yul\":408:480   */\n  tag_8\n  jump\t// in\ntag_14:\n    /* \"#utility.yul\":398:480   */\n  swap3\n  pop\n    /* \"#utility.yul\":354:490   */\n  pop\n    /* \"#utility.yul\":529:531   */\n  0x20\n    /* \"#utility.yul\":555:627   */\n  tag_15\n    /* \"#utility.yul\":619:626   */\n  dup6\n    /* \"#utility.yul\":610:616   */\n  dup3\n    /* \"#utility.yul\":599:608   */\n  dup7\n    /* \"#utility.yul\":595:617   */\n  add\n    /* \"#utility.yul\":555:627   */\n  tag_8\n  jump\t// in\ntag_15:\n    /* \"#utility.yul\":545:627   */\n  swap2\n  pop\n    /* \"#utility.yul\":500:637   */\n  pop\n    /* \"#utility.yul\":282:644   */\n  swap3\n  pop\n  swap3\n  swap1\n  pop\n  jump\t// out\n    /* \"#utility.yul\":650:754   */\ntag_16:\n  0x00\n    /* \"#utility.yul\":724:748   */\n  tag_18\n    /* \"#utility.yul\":742:747   */\n  dup3\n    /* \"#utility.yul\":724:748   */\n  tag_19\n  jump\t// in\ntag_18:\n    /* \"#utility.yul\":713:748   */\n  swap1\n  pop\n    /* \"#utility.yul\":703:754   */\n  swap2\n  swap1\n  pop\n  jump\t// out\n    /* \"#utility.yul\":760:886   */\ntag_19:\n  0x00\n    /* \"#utility.yul\":837:879   */\n  0xffffffffffffffffffffffffffffffffffffffff\n    /* \"#utility.yul\":830:835   */\n  dup3\n    /* \"#utility.yul\":826:880   */\n  and\n    /* \"#utility.yul\":815:880   */\n  swap1\n  pop\n    /* \"#utility.yul\":805:886   */\n  swap2\n  swap1\n  pop\n  jump\t// out\n    /* \"#utility.yul\":892:1030   */\ntag_11:\n    /* \"#utility.yul\":973:1005   */\n  tag_22\n    /* \"#utility.yul\":999:1004   */\n  dup2\n    /* \"#utility.yul\":973:1005   */\n  tag_16\n  jump\t// in\ntag_22:\n    /* \"#utility.yul\":966:971   */\n  dup2\n    /* \"#utility.yul\":963:1006   */\n  eq\n    /* \"#utility.yul\":953:955   */\n  tag_23\n  jumpi\n    /* \"#utility.yul\":1020:1021   */\n  0x00\n    /* \"#utility.yul\":1017:1018   */\n  dup1\n    /* \"#utility.yul\":1010:1022   */\n  revert\n    /* \"#utility.yul\":953:955   */\ntag_23:\n    /* \"#utility.yul\":943:1030   */\n  pop\n  jump\t// out\n    /* \"contracts/ISensorPayment.sol\":64:1898  contract SensorContract {... */\ntag_6:\n  dataSize(sub_0)\n  dup1\n  dataOffset(sub_0)\n  0x00\n  codecopy\n  0x00\n  return\nstop\n\nsub_0: assembly {\n        /* \"contracts/ISensorPayment.sol\":64:1898  contract SensorContract {... */\n      mstore(0x40, 0x80)\n      callvalue\n      dup1\n      iszero\n      tag_1\n      jumpi\n      0x00\n      dup1\n      revert\n    tag_1:\n      pop\n      jumpi(tag_2, lt(calldatasize, 0x04))\n      shr(0xe0, calldataload(0x00))\n      dup1\n      0xa113efa3\n      gt\n      tag_14\n      jumpi\n      dup1\n      0xa113efa3\n      eq\n      tag_8\n      jumpi\n      dup1\n      0xab09891d\n      eq\n      tag_9\n      jumpi\n      dup1\n      0xadccea12\n      eq\n      tag_10\n      jumpi\n      dup1\n      0xc35905c6\n      eq\n      tag_11\n      jumpi\n      dup1\n      0xd75acda1\n      eq\n      tag_12\n      jumpi\n      dup1\n      0xe42b0212\n      eq\n      tag_13\n      jumpi\n      jump(tag_2)\n    tag_14:\n      dup1\n      0x18853cef\n      eq\n      tag_3\n      jumpi\n      dup1\n      0x52b74691\n      eq\n      tag_4\n      jumpi\n      dup1\n      0x8da5cb5b\n      eq\n      tag_5\n      jumpi\n      dup1\n      0x8f5949f9\n      eq\n      tag_6\n      jumpi\n      dup1\n      0x96af2ca6\n      eq\n      tag_7\n      jumpi\n    tag_2:\n      0x00\n      dup1\n      revert\n        /* \"contracts/ISensorPayment.sol\":561:594  bool public isPaymentMade = false */\n    tag_3:\n      tag_15\n      tag_16\n      jump\t// in\n    tag_15:\n      mload(0x40)\n      tag_17\n      swap2\n      swap1\n      tag_18\n      jump\t// in\n    tag_17:\n      mload(0x40)\n      dup1\n      swap2\n      sub\n      swap1\n      return\n        /* \"contracts/ISensorPayment.sol\":238:270  uint256 public lastVibrationTime */\n    tag_4:\n      tag_19\n      tag_20\n      jump\t// in\n    tag_19:\n      mload(0x40)\n      tag_21\n      swap2\n      swap1\n      tag_22\n      jump\t// in\n    tag_21:\n      mload(0x40)\n      dup1\n      swap2\n      sub\n      swap1\n      return\n        /* \"contracts/ISensorPayment.sol\":442:470  address payable public owner */\n    tag_5:\n      tag_23\n      tag_24\n      jump\t// in\n    tag_23:\n      mload(0x40)\n      tag_25\n      swap2\n      swap1\n      tag_26\n      jump\t// in\n    tag_25:\n      mload(0x40)\n      dup1\n      swap2\n      sub\n      swap1\n      return\n        /* \"contracts/ISensorPayment.sol\":302:337  bool public isContractActive = true */\n    tag_6:\n      tag_27\n      tag_28\n      jump\t// in\n    tag_27:\n      mload(0x40)\n      tag_29\n      swap2\n      swap1\n      tag_18\n      jump\t// in\n    tag_29:\n      mload(0x40)\n      dup1\n      swap2\n      sub\n      swap1\n      return\n        /* \"contracts/ISensorPayment.sol\":740:1680  function setSensorValues(... */\n    tag_7:\n      tag_30\n      0x04\n      dup1\n      calldatasize\n      sub\n      dup2\n      add\n      swap1\n      tag_31\n      swap2\n      swap1\n      tag_32\n      jump\t// in\n    tag_31:\n      tag_33\n      jump\t// in\n    tag_30:\n      stop\n        /* \"contracts/ISensorPayment.sol\":150:173  uint256 public humidity */\n    tag_8:\n      tag_34\n      tag_35\n      jump\t// in\n    tag_34:\n      mload(0x40)\n      tag_36\n      swap2\n      swap1\n      tag_22\n      jump\t// in\n    tag_36:\n      mload(0x40)\n      dup1\n      swap2\n      sub\n      swap1\n      return\n        /* \"contracts/ISensorPayment.sol\":179:202  uint256 public pressure */\n    tag_9:\n      tag_37\n      tag_38\n      jump\t// in\n    tag_37:\n      mload(0x40)\n      tag_39\n      swap2\n      swap1\n      tag_22\n      jump\t// in\n    tag_39:\n      mload(0x40)\n      dup1\n      swap2\n      sub\n      swap1\n      return\n        /* \"contracts/ISensorPayment.sol\":118:144  uint256 public temperature */\n    tag_10:\n      tag_40\n      tag_41\n      jump\t// in\n    tag_40:\n      mload(0x40)\n      tag_42\n      swap2\n      swap1\n      tag_22\n      jump\t// in\n    tag_42:\n      mload(0x40)\n      dup1\n      swap2\n      sub\n      swap1\n      return\n        /* \"contracts/ISensorPayment.sol\":517:555  uint256 public paymentAmount = 2 ether */\n    tag_11:\n      tag_43\n      tag_44\n      jump\t// in\n    tag_43:\n      mload(0x40)\n      tag_45\n      swap2\n      swap1\n      tag_22\n      jump\t// in\n    tag_45:\n      mload(0x40)\n      dup1\n      swap2\n      sub\n      swap1\n      return\n        /* \"contracts/ISensorPayment.sol\":208:232  uint256 public vibration */\n    tag_12:\n      tag_46\n      tag_47\n      jump\t// in\n    tag_46:\n      mload(0x40)\n      tag_48\n      swap2\n      swap1\n      tag_22\n      jump\t// in\n    tag_48:\n      mload(0x40)\n      dup1\n      swap2\n      sub\n      swap1\n      return\n        /* \"contracts/ISensorPayment.sol\":402:436  address payable public transporter */\n    tag_13:\n      tag_49\n      tag_50\n      jump\t// in\n    tag_49:\n      mload(0x40)\n      tag_51\n      swap2\n      swap1\n      tag_26\n      jump\t// in\n    tag_51:\n      mload(0x40)\n      dup1\n      swap2\n      sub\n      swap1\n      return\n        /* \"contracts/ISensorPayment.sol\":561:594  bool public isPaymentMade = false */\n    tag_16:\n      0x08\n      0x00\n      swap1\n      sload\n      swap1\n      0x0100\n      exp\n      swap1\n      div\n      0xff\n      and\n      dup2\n      jump\t// out\n        /* \"contracts/ISensorPayment.sol\":238:270  uint256 public lastVibrationTime */\n    tag_20:\n      sload(0x04)\n      dup2\n      jump\t// out\n        /* \"contracts/ISensorPayment.sol\":442:470  address payable public owner */\n    tag_24:\n      0x06\n      0x00\n      swap1\n      sload\n      swap1\n      0x0100\n      exp\n      swap1\n      div\n      0xffffffffffffffffffffffffffffffffffffffff\n      and\n      dup2\n      jump\t// out\n        /* \"contracts/ISensorPayment.sol\":302:337  bool public isContractActive = true */\n    tag_28:\n      0x05\n      0x00\n      swap1\n      sload\n      swap1\n      0x0100\n      exp\n      swap1\n      div\n      0xff\n      and\n      dup2\n      jump\t// out\n        /* \"contracts/ISensorPayment.sol\":740:1680  function setSensorValues(... */\n    tag_33:\n        /* \"contracts/ISensorPayment.sol\":954:966  _temperature */\n      dup4\n        /* \"contracts/ISensorPayment.sol\":940:951  temperature */\n      0x00\n        /* \"contracts/ISensorPayment.sol\":940:966  temperature = _temperature */\n      dup2\n      swap1\n      sstore\n      pop\n        /* \"contracts/ISensorPayment.sol\":987:996  _humidity */\n      dup3\n        /* \"contracts/ISensorPayment.sol\":976:984  humidity */\n      0x01\n        /* \"contracts/ISensorPayment.sol\":976:996  humidity = _humidity */\n      dup2\n      swap1\n      sstore\n      pop\n        /* \"contracts/ISensorPayment.sol\":1017:1026  _pressure */\n      dup2\n        /* \"contracts/ISensorPayment.sol\":1006:1014  pressure */\n      0x02\n        /* \"contracts/ISensorPayment.sol\":1006:1026  pressure = _pressure */\n      dup2\n      swap1\n      sstore\n      pop\n        /* \"contracts/ISensorPayment.sol\":1048:1058  _vibration */\n      dup1\n        /* \"contracts/ISensorPayment.sol\":1036:1045  vibration */\n      0x03\n        /* \"contracts/ISensorPayment.sol\":1036:1058  vibration = _vibration */\n      dup2\n      swap1\n      sstore\n      pop\n        /* \"contracts/ISensorPayment.sol\":1142:1143  9 */\n      0x09\n        /* \"contracts/ISensorPayment.sol\":1128:1139  temperature */\n      sload(0x00)\n        /* \"contracts/ISensorPayment.sol\":1128:1143  temperature < 9 */\n      lt\n        /* \"contracts/ISensorPayment.sol\":1128:1175  temperature < 9 ||... */\n      dup1\n      tag_53\n      jumpi\n      pop\n        /* \"contracts/ISensorPayment.sol\":1173:1175  26 */\n      0x1a\n        /* \"contracts/ISensorPayment.sol\":1159:1170  temperature */\n      sload(0x00)\n        /* \"contracts/ISensorPayment.sol\":1159:1175  temperature > 26 */\n      gt\n        /* \"contracts/ISensorPayment.sol\":1128:1175  temperature < 9 ||... */\n    tag_53:\n        /* \"contracts/ISensorPayment.sol\":1128:1204  temperature < 9 ||... */\n      dup1\n      tag_54\n      jumpi\n      pop\n        /* \"contracts/ISensorPayment.sol\":1202:1204  70 */\n      0x46\n        /* \"contracts/ISensorPayment.sol\":1191:1199  pressure */\n      sload(0x02)\n        /* \"contracts/ISensorPayment.sol\":1191:1204  pressure < 70 */\n      lt\n        /* \"contracts/ISensorPayment.sol\":1128:1204  temperature < 9 ||... */\n    tag_54:\n        /* \"contracts/ISensorPayment.sol\":1128:1234  temperature < 9 ||... */\n      dup1\n      tag_55\n      jumpi\n      pop\n        /* \"contracts/ISensorPayment.sol\":1231:1234  110 */\n      0x6e\n        /* \"contracts/ISensorPayment.sol\":1220:1228  pressure */\n      sload(0x02)\n        /* \"contracts/ISensorPayment.sol\":1220:1234  pressure > 110 */\n      gt\n        /* \"contracts/ISensorPayment.sol\":1128:1234  temperature < 9 ||... */\n    tag_55:\n        /* \"contracts/ISensorPayment.sol\":1111:1294  if (... */\n      iszero\n      tag_56\n      jumpi\n        /* \"contracts/ISensorPayment.sol\":1278:1283  false */\n      0x00\n        /* \"contracts/ISensorPayment.sol\":1259:1275  isContractActive */\n      0x05\n      0x00\n        /* \"contracts/ISensorPayment.sol\":1259:1283  isContractActive = false */\n      0x0100\n      exp\n      dup2\n      sload\n      dup2\n      0xff\n      mul\n      not\n      and\n      swap1\n      dup4\n      iszero\n      iszero\n      mul\n      or\n      swap1\n      sstore\n      pop\n        /* \"contracts/ISensorPayment.sol\":1111:1294  if (... */\n    tag_56:\n        /* \"contracts/ISensorPayment.sol\":1352:1353  1 */\n      0x01\n        /* \"contracts/ISensorPayment.sol\":1339:1348  vibration */\n      sload(0x03)\n        /* \"contracts/ISensorPayment.sol\":1339:1353  vibration == 1 */\n      eq\n        /* \"contracts/ISensorPayment.sol\":1335:1415  if (vibration == 1) {... */\n      iszero\n      tag_57\n      jumpi\n        /* \"contracts/ISensorPayment.sol\":1389:1404  block.timestamp */\n      timestamp\n        /* \"contracts/ISensorPayment.sol\":1369:1386  lastVibrationTime */\n      0x04\n        /* \"contracts/ISensorPayment.sol\":1369:1404  lastVibrationTime = block.timestamp */\n      dup2\n      swap1\n      sstore\n      pop\n        /* \"contracts/ISensorPayment.sol\":1335:1415  if (vibration == 1) {... */\n    tag_57:\n        /* \"contracts/ISensorPayment.sol\":1467:1477  10 seconds */\n      0x0a\n        /* \"contracts/ISensorPayment.sol\":1447:1464  lastVibrationTime */\n      sload(0x04)\n        /* \"contracts/ISensorPayment.sol\":1429:1444  block.timestamp */\n      timestamp\n        /* \"contracts/ISensorPayment.sol\":1429:1464  block.timestamp - lastVibrationTime */\n      tag_58\n      swap2\n      swap1\n      tag_59\n      jump\t// in\n    tag_58:\n        /* \"contracts/ISensorPayment.sol\":1429:1477  block.timestamp - lastVibrationTime > 10 seconds */\n      gt\n        /* \"contracts/ISensorPayment.sol\":1425:1528  if (block.timestamp - lastVibrationTime > 10 seconds) {... */\n      iszero\n      tag_60\n      jumpi\n        /* \"contracts/ISensorPayment.sol\":1512:1517  false */\n      0x00\n        /* \"contracts/ISensorPayment.sol\":1493:1509  isContractActive */\n      0x05\n      0x00\n        /* \"contracts/ISensorPayment.sol\":1493:1517  isContractActive = false */\n      0x0100\n      exp\n      dup2\n      sload\n      dup2\n      0xff\n      mul\n      not\n      and\n      swap1\n      dup4\n      iszero\n      iszero\n      mul\n      or\n      swap1\n      sstore\n      pop\n        /* \"contracts/ISensorPayment.sol\":1425:1528  if (block.timestamp - lastVibrationTime > 10 seconds) {... */\n    tag_60:\n        /* \"contracts/ISensorPayment.sol\":1597:1613  isContractActive */\n      0x05\n      0x00\n      swap1\n      sload\n      swap1\n      0x0100\n      exp\n      swap1\n      div\n      0xff\n      and\n        /* \"contracts/ISensorPayment.sol\":1596:1613  !isContractActive */\n      iszero\n        /* \"contracts/ISensorPayment.sol\":1596:1631  !isContractActive && !isPaymentMade */\n      dup1\n      iszero\n      tag_61\n      jumpi\n      pop\n        /* \"contracts/ISensorPayment.sol\":1618:1631  isPaymentMade */\n      0x08\n      0x00\n      swap1\n      sload\n      swap1\n      0x0100\n      exp\n      swap1\n      div\n      0xff\n      and\n        /* \"contracts/ISensorPayment.sol\":1617:1631  !isPaymentMade */\n      iszero\n        /* \"contracts/ISensorPayment.sol\":1596:1631  !isContractActive && !isPaymentMade */\n    tag_61:\n        /* \"contracts/ISensorPayment.sol\":1592:1674  if (!isContractActive && !isPaymentMade) {... */\n      iszero\n      tag_62\n      jumpi\n        /* \"contracts/ISensorPayment.sol\":1647:1663  payTransporter() */\n      tag_63\n        /* \"contracts/ISensorPayment.sol\":1647:1661  payTransporter */\n      tag_64\n        /* \"contracts/ISensorPayment.sol\":1647:1663  payTransporter() */\n      jump\t// in\n    tag_63:\n        /* \"contracts/ISensorPayment.sol\":1592:1674  if (!isContractActive && !isPaymentMade) {... */\n    tag_62:\n        /* \"contracts/ISensorPayment.sol\":740:1680  function setSensorValues(... */\n      pop\n      pop\n      pop\n      pop\n      jump\t// out\n        /* \"contracts/ISensorPayment.sol\":150:173  uint256 public humidity */\n    tag_35:\n      sload(0x01)\n      dup2\n      jump\t// out\n        /* \"contracts/ISensorPayment.sol\":179:202  uint256 public pressure */\n    tag_38:\n      sload(0x02)\n      dup2\n      jump\t// out\n        /* \"contracts/ISensorPayment.sol\":118:144  uint256 public temperature */\n    tag_41:\n      sload(0x00)\n      dup2\n      jump\t// out\n        /* \"contracts/ISensorPayment.sol\":517:555  uint256 public paymentAmount = 2 ether */\n    tag_44:\n      sload(0x07)\n      dup2\n      jump\t// out\n        /* \"contracts/ISensorPayment.sol\":208:232  uint256 public vibration */\n    tag_47:\n      sload(0x03)\n      dup2\n      jump\t// out\n        /* \"contracts/ISensorPayment.sol\":402:436  address payable public transporter */\n    tag_50:\n      0x05\n      0x01\n      swap1\n      sload\n      swap1\n      0x0100\n      exp\n      swap1\n      div\n      0xffffffffffffffffffffffffffffffffffffffff\n      and\n      dup2\n      jump\t// out\n        /* \"contracts/ISensorPayment.sol\":1686:1896  function payTransporter() private {... */\n    tag_64:\n        /* \"contracts/ISensorPayment.sol\":1739:1752  isPaymentMade */\n      0x08\n      0x00\n      swap1\n      sload\n      swap1\n      0x0100\n      exp\n      swap1\n      div\n      0xff\n      and\n        /* \"contracts/ISensorPayment.sol\":1738:1752  !isPaymentMade */\n      iszero\n        /* \"contracts/ISensorPayment.sol\":1730:1786  require(!isPaymentMade, \"Payment has already been made\") */\n      tag_66\n      jumpi\n      mload(0x40)\n      0x08c379a000000000000000000000000000000000000000000000000000000000\n      dup2\n      mstore\n      0x04\n      add\n      tag_67\n      swap1\n      tag_68\n      jump\t// in\n    tag_67:\n      mload(0x40)\n      dup1\n      swap2\n      sub\n      swap1\n      revert\n    tag_66:\n        /* \"contracts/ISensorPayment.sol\":1796:1801  owner */\n      0x06\n      0x00\n      swap1\n      sload\n      swap1\n      0x0100\n      exp\n      swap1\n      div\n      0xffffffffffffffffffffffffffffffffffffffff\n      and\n        /* \"contracts/ISensorPayment.sol\":1796:1810  owner.transfer */\n      0xffffffffffffffffffffffffffffffffffffffff\n      and\n        /* \"contracts/ISensorPayment.sol\":1796:1825  owner.transfer(paymentAmount) */\n      0x08fc\n        /* \"contracts/ISensorPayment.sol\":1811:1824  paymentAmount */\n      sload(0x07)\n        /* \"contracts/ISensorPayment.sol\":1796:1825  owner.transfer(paymentAmount) */\n      swap1\n      dup2\n      iszero\n      mul\n      swap1\n      mload(0x40)\n      0x00\n      mload(0x40)\n      dup1\n      dup4\n      sub\n      dup2\n      dup6\n      dup9\n      dup9\n      call\n      swap4\n      pop\n      pop\n      pop\n      pop\n      iszero\n      dup1\n      iszero\n      tag_70\n      jumpi\n      returndatasize\n      0x00\n      dup1\n      returndatacopy\n      revert(0x00, returndatasize)\n    tag_70:\n      pop\n        /* \"contracts/ISensorPayment.sol\":1851:1855  true */\n      0x01\n        /* \"contracts/ISensorPayment.sol\":1835:1848  isPaymentMade */\n      0x08\n      0x00\n        /* \"contracts/ISensorPayment.sol\":1835:1855  isPaymentMade = true */\n      0x0100\n      exp\n      dup2\n      sload\n      dup2\n      0xff\n      mul\n      not\n      and\n      swap1\n      dup4\n      iszero\n      iszero\n      mul\n      or\n      swap1\n      sstore\n      pop\n        /* \"contracts/ISensorPayment.sol\":1884:1889  false */\n      0x00\n        /* \"contracts/ISensorPayment.sol\":1865:1881  isContractActive */\n      0x05\n      0x00\n        /* \"contracts/ISensorPayment.sol\":1865:1889  isContractActive = false */\n      0x0100\n      exp\n      dup2\n      sload\n      dup2\n      0xff\n      mul\n      not\n      and\n      swap1\n      dup4\n      iszero\n      iszero\n      mul\n      or\n      swap1\n      sstore\n      pop\n        /* \"contracts/ISensorPayment.sol\":1686:1896  function payTransporter() private {... */\n      jump\t// out\n        /* \"#utility.yul\":7:146   */\n    tag_72:\n      0x00\n        /* \"#utility.yul\":91:97   */\n      dup2\n        /* \"#utility.yul\":78:98   */\n      calldataload\n        /* \"#utility.yul\":69:98   */\n      swap1\n      pop\n        /* \"#utility.yul\":107:140   */\n      tag_74\n        /* \"#utility.yul\":134:139   */\n      dup2\n        /* \"#utility.yul\":107:140   */\n      tag_75\n      jump\t// in\n    tag_74:\n        /* \"#utility.yul\":59:146   */\n      swap3\n      swap2\n      pop\n      pop\n      jump\t// out\n        /* \"#utility.yul\":152:850   */\n    tag_32:\n      0x00\n      dup1\n      0x00\n      dup1\n        /* \"#utility.yul\":311:314   */\n      0x80\n        /* \"#utility.yul\":299:308   */\n      dup6\n        /* \"#utility.yul\":290:297   */\n      dup8\n        /* \"#utility.yul\":286:309   */\n      sub\n        /* \"#utility.yul\":282:315   */\n      slt\n        /* \"#utility.yul\":279:281   */\n      iszero\n      tag_77\n      jumpi\n        /* \"#utility.yul\":328:329   */\n      0x00\n        /* \"#utility.yul\":325:326   */\n      dup1\n        /* \"#utility.yul\":318:330   */\n      revert\n        /* \"#utility.yul\":279:281   */\n    tag_77:\n        /* \"#utility.yul\":371:372   */\n      0x00\n        /* \"#utility.yul\":396:449   */\n      tag_78\n        /* \"#utility.yul\":441:448   */\n      dup8\n        /* \"#utility.yul\":432:438   */\n      dup3\n        /* \"#utility.yul\":421:430   */\n      dup9\n        /* \"#utility.yul\":417:439   */\n      add\n        /* \"#utility.yul\":396:449   */\n      tag_72\n      jump\t// in\n    tag_78:\n        /* \"#utility.yul\":386:449   */\n      swap5\n      pop\n        /* \"#utility.yul\":342:459   */\n      pop\n        /* \"#utility.yul\":498:500   */\n      0x20\n        /* \"#utility.yul\":524:577   */\n      tag_79\n        /* \"#utility.yul\":569:576   */\n      dup8\n        /* \"#utility.yul\":560:566   */\n      dup3\n        /* \"#utility.yul\":549:558   */\n      dup9\n        /* \"#utility.yul\":545:567   */\n      add\n        /* \"#utility.yul\":524:577   */\n      tag_72\n      jump\t// in\n    tag_79:\n        /* \"#utility.yul\":514:577   */\n      swap4\n      pop\n        /* \"#utility.yul\":469:587   */\n      pop\n        /* \"#utility.yul\":626:628   */\n      0x40\n        /* \"#utility.yul\":652:705   */\n      tag_80\n        /* \"#utility.yul\":697:704   */\n      dup8\n        /* \"#utility.yul\":688:694   */\n      dup3\n        /* \"#utility.yul\":677:686   */\n      dup9\n        /* \"#utility.yul\":673:695   */\n      add\n        /* \"#utility.yul\":652:705   */\n      tag_72\n      jump\t// in\n    tag_80:\n        /* \"#utility.yul\":642:705   */\n      swap3\n      pop\n        /* \"#utility.yul\":597:715   */\n      pop\n        /* \"#utility.yul\":754:756   */\n      0x60\n        /* \"#utility.yul\":780:833   */\n      tag_81\n        /* \"#utility.yul\":825:832   */\n      dup8\n        /* \"#utility.yul\":816:822   */\n      dup3\n        /* \"#utility.yul\":805:814   */\n      dup9\n        /* \"#utility.yul\":801:823   */\n      add\n        /* \"#utility.yul\":780:833   */\n      tag_72\n      jump\t// in\n    tag_81:\n        /* \"#utility.yul\":770:833   */\n      swap2\n      pop\n        /* \"#utility.yul\":725:843   */\n      pop\n        /* \"#utility.yul\":269:850   */\n      swap3\n      swap6\n      swap2\n      swap5\n      pop\n      swap3\n      pop\n      jump\t// out\n        /* \"#utility.yul\":856:998   */\n    tag_82:\n        /* \"#utility.yul\":959:991   */\n      tag_84\n        /* \"#utility.yul\":985:990   */\n      dup2\n        /* \"#utility.yul\":959:991   */\n      tag_85\n      jump\t// in\n    tag_84:\n        /* \"#utility.yul\":954:957   */\n      dup3\n        /* \"#utility.yul\":947:992   */\n      mstore\n        /* \"#utility.yul\":937:998   */\n      pop\n      pop\n      jump\t// out\n        /* \"#utility.yul\":1004:1113   */\n    tag_86:\n        /* \"#utility.yul\":1085:1106   */\n      tag_88\n        /* \"#utility.yul\":1100:1105   */\n      dup2\n        /* \"#utility.yul\":1085:1106   */\n      tag_89\n      jump\t// in\n    tag_88:\n        /* \"#utility.yul\":1080:1083   */\n      dup3\n        /* \"#utility.yul\":1073:1107   */\n      mstore\n        /* \"#utility.yul\":1063:1113   */\n      pop\n      pop\n      jump\t// out\n        /* \"#utility.yul\":1119:1446   */\n    tag_90:\n      0x00\n        /* \"#utility.yul\":1282:1349   */\n      tag_92\n        /* \"#utility.yul\":1346:1348   */\n      0x1d\n        /* \"#utility.yul\":1341:1344   */\n      dup4\n        /* \"#utility.yul\":1282:1349   */\n      tag_93\n      jump\t// in\n    tag_92:\n        /* \"#utility.yul\":1275:1349   */\n      swap2\n      pop\n        /* \"#utility.yul\":1379:1410   */\n      0x5061796d656e742068617320616c7265616479206265656e206d616465000000\n        /* \"#utility.yul\":1375:1376   */\n      0x00\n        /* \"#utility.yul\":1370:1373   */\n      dup4\n        /* \"#utility.yul\":1366:1377   */\n      add\n        /* \"#utility.yul\":1359:1411   */\n      mstore\n        /* \"#utility.yul\":1437:1439   */\n      0x20\n        /* \"#utility.yul\":1432:1435   */\n      dup3\n        /* \"#utility.yul\":1428:1440   */\n      add\n        /* \"#utility.yul\":1421:1440   */\n      swap1\n      pop\n        /* \"#utility.yul\":1265:1446   */\n      swap2\n      swap1\n      pop\n      jump\t// out\n        /* \"#utility.yul\":1452:1570   */\n    tag_94:\n        /* \"#utility.yul\":1539:1563   */\n      tag_96\n        /* \"#utility.yul\":1557:1562   */\n      dup2\n        /* \"#utility.yul\":1539:1563   */\n      tag_97\n      jump\t// in\n    tag_96:\n        /* \"#utility.yul\":1534:1537   */\n      dup3\n        /* \"#utility.yul\":1527:1564   */\n      mstore\n        /* \"#utility.yul\":1517:1570   */\n      pop\n      pop\n      jump\t// out\n        /* \"#utility.yul\":1576:1830   */\n    tag_26:\n      0x00\n        /* \"#utility.yul\":1723:1725   */\n      0x20\n        /* \"#utility.yul\":1712:1721   */\n      dup3\n        /* \"#utility.yul\":1708:1726   */\n      add\n        /* \"#utility.yul\":1700:1726   */\n      swap1\n      pop\n        /* \"#utility.yul\":1736:1823   */\n      tag_99\n        /* \"#utility.yul\":1820:1821   */\n      0x00\n        /* \"#utility.yul\":1809:1818   */\n      dup4\n        /* \"#utility.yul\":1805:1822   */\n      add\n        /* \"#utility.yul\":1796:1802   */\n      dup5\n        /* \"#utility.yul\":1736:1823   */\n      tag_82\n      jump\t// in\n    tag_99:\n        /* \"#utility.yul\":1690:1830   */\n      swap3\n      swap2\n      pop\n      pop\n      jump\t// out\n        /* \"#utility.yul\":1836:2046   */\n    tag_18:\n      0x00\n        /* \"#utility.yul\":1961:1963   */\n      0x20\n        /* \"#utility.yul\":1950:1959   */\n      dup3\n        /* \"#utility.yul\":1946:1964   */\n      add\n        /* \"#utility.yul\":1938:1964   */\n      swap1\n      pop\n        /* \"#utility.yul\":1974:2039   */\n      tag_101\n        /* \"#utility.yul\":2036:2037   */\n      0x00\n        /* \"#utility.yul\":2025:2034   */\n      dup4\n        /* \"#utility.yul\":2021:2038   */\n      add\n        /* \"#utility.yul\":2012:2018   */\n      dup5\n        /* \"#utility.yul\":1974:2039   */\n      tag_86\n      jump\t// in\n    tag_101:\n        /* \"#utility.yul\":1928:2046   */\n      swap3\n      swap2\n      pop\n      pop\n      jump\t// out\n        /* \"#utility.yul\":2052:2471   */\n    tag_68:\n      0x00\n        /* \"#utility.yul\":2256:2258   */\n      0x20\n        /* \"#utility.yul\":2245:2254   */\n      dup3\n        /* \"#utility.yul\":2241:2259   */\n      add\n        /* \"#utility.yul\":2233:2259   */\n      swap1\n      pop\n        /* \"#utility.yul\":2305:2314   */\n      dup2\n        /* \"#utility.yul\":2299:2303   */\n      dup2\n        /* \"#utility.yul\":2295:2315   */\n      sub\n        /* \"#utility.yul\":2291:2292   */\n      0x00\n        /* \"#utility.yul\":2280:2289   */\n      dup4\n        /* \"#utility.yul\":2276:2293   */\n      add\n        /* \"#utility.yul\":2269:2316   */\n      mstore\n        /* \"#utility.yul\":2333:2464   */\n      tag_103\n        /* \"#utility.yul\":2459:2463   */\n      dup2\n        /* \"#utility.yul\":2333:2464   */\n      tag_90\n      jump\t// in\n    tag_103:\n        /* \"#utility.yul\":2325:2464   */\n      swap1\n      pop\n        /* \"#utility.yul\":2223:2471   */\n      swap2\n      swap1\n      pop\n      jump\t// out\n        /* \"#utility.yul\":2477:2699   */\n    tag_22:\n      0x00\n        /* \"#utility.yul\":2608:2610   */\n      0x20\n        /* \"#utility.yul\":2597:2606   */\n      dup3\n        /* \"#utility.yul\":2593:2611   */\n      add\n        /* \"#utility.yul\":2585:2611   */\n      swap1\n      pop\n        /* \"#utility.yul\":2621:2692   */\n      tag_105\n        /* \"#utility.yul\":2689:2690   */\n      0x00\n        /* \"#utility.yul\":2678:2687   */\n      dup4\n        /* \"#utility.yul\":2674:2691   */\n      add\n        /* \"#utility.yul\":2665:2671   */\n      dup5\n        /* \"#utility.yul\":2621:2692   */\n      tag_94\n      jump\t// in\n    tag_105:\n        /* \"#utility.yul\":2575:2699   */\n      swap3\n      swap2\n      pop\n      pop\n      jump\t// out\n        /* \"#utility.yul\":2705:2874   */\n    tag_93:\n      0x00\n        /* \"#utility.yul\":2823:2829   */\n      dup3\n        /* \"#utility.yul\":2818:2821   */\n      dup3\n        /* \"#utility.yul\":2811:2830   */\n      mstore\n        /* \"#utility.yul\":2863:2867   */\n      0x20\n        /* \"#utility.yul\":2858:2861   */\n      dup3\n        /* \"#utility.yul\":2854:2868   */\n      add\n        /* \"#utility.yul\":2839:2868   */\n      swap1\n      pop\n        /* \"#utility.yul\":2801:2874   */\n      swap3\n      swap2\n      pop\n      pop\n      jump\t// out\n        /* \"#utility.yul\":2880:3071   */\n    tag_59:\n      0x00\n        /* \"#utility.yul\":2940:2960   */\n      tag_108\n        /* \"#utility.yul\":2958:2959   */\n      dup3\n        /* \"#utility.yul\":2940:2960   */\n      tag_97\n      jump\t// in\n    tag_108:\n        /* \"#utility.yul\":2935:2960   */\n      swap2\n      pop\n        /* \"#utility.yul\":2974:2994   */\n      tag_109\n        /* \"#utility.yul\":2992:2993   */\n      dup4\n        /* \"#utility.yul\":2974:2994   */\n      tag_97\n      jump\t// in\n    tag_109:\n        /* \"#utility.yul\":2969:2994   */\n      swap3\n      pop\n        /* \"#utility.yul\":3013:3014   */\n      dup3\n        /* \"#utility.yul\":3010:3011   */\n      dup3\n        /* \"#utility.yul\":3007:3015   */\n      lt\n        /* \"#utility.yul\":3004:3006   */\n      iszero\n      tag_110\n      jumpi\n        /* \"#utility.yul\":3018:3036   */\n      tag_111\n      tag_112\n      jump\t// in\n    tag_111:\n        /* \"#utility.yul\":3004:3006   */\n    tag_110:\n        /* \"#utility.yul\":3063:3064   */\n      dup3\n        /* \"#utility.yul\":3060:3061   */\n      dup3\n        /* \"#utility.yul\":3056:3065   */\n      sub\n        /* \"#utility.yul\":3048:3065   */\n      swap1\n      pop\n        /* \"#utility.yul\":2925:3071   */\n      swap3\n      swap2\n      pop\n      pop\n      jump\t// out\n        /* \"#utility.yul\":3077:3181   */\n    tag_85:\n      0x00\n        /* \"#utility.yul\":3151:3175   */\n      tag_114\n        /* \"#utility.yul\":3169:3174   */\n      dup3\n        /* \"#utility.yul\":3151:3175   */\n      tag_115\n      jump\t// in\n    tag_114:\n        /* \"#utility.yul\":3140:3175   */\n      swap1\n      pop\n        /* \"#utility.yul\":3130:3181   */\n      swap2\n      swap1\n      pop\n      jump\t// out\n        /* \"#utility.yul\":3187:3277   */\n    tag_89:\n      0x00\n        /* \"#utility.yul\":3264:3269   */\n      dup2\n        /* \"#utility.yul\":3257:3270   */\n      iszero\n        /* \"#utility.yul\":3250:3271   */\n      iszero\n        /* \"#utility.yul\":3239:3271   */\n      swap1\n      pop\n        /* \"#utility.yul\":3229:3277   */\n      swap2\n      swap1\n      pop\n      jump\t// out\n        /* \"#utility.yul\":3283:3409   */\n    tag_115:\n      0x00\n        /* \"#utility.yul\":3360:3402   */\n      0xffffffffffffffffffffffffffffffffffffffff\n        /* \"#utility.yul\":3353:3358   */\n      dup3\n        /* \"#utility.yul\":3349:3403   */\n      and\n        /* \"#utility.yul\":3338:3403   */\n      swap1\n      pop\n        /* \"#utility.yul\":3328:3409   */\n      swap2\n      swap1\n      pop\n      jump\t// out\n        /* \"#utility.yul\":3415:3492   */\n    tag_97:\n      0x00\n        /* \"#utility.yul\":3481:3486   */\n      dup2\n        /* \"#utility.yul\":3470:3486   */\n      swap1\n      pop\n        /* \"#utility.yul\":3460:3492   */\n      swap2\n      swap1\n      pop\n      jump\t// out\n        /* \"#utility.yul\":3498:3678   */\n    tag_112:\n        /* \"#utility.yul\":3546:3623   */\n      0x4e487b7100000000000000000000000000000000000000000000000000000000\n        /* \"#utility.yul\":3543:3544   */\n      0x00\n        /* \"#utility.yul\":3536:3624   */\n      mstore\n        /* \"#utility.yul\":3643:3647   */\n      0x11\n        /* \"#utility.yul\":3640:3641   */\n      0x04\n        /* \"#utility.yul\":3633:3648   */\n      mstore\n        /* \"#utility.yul\":3667:3671   */\n      0x24\n        /* \"#utility.yul\":3664:3665   */\n      0x00\n        /* \"#utility.yul\":3657:3672   */\n      revert\n        /* \"#utility.yul\":3684:3806   */\n    tag_75:\n        /* \"#utility.yul\":3757:3781   */\n      tag_121\n        /* \"#utility.yul\":3775:3780   */\n      dup2\n        /* \"#utility.yul\":3757:3781   */\n      tag_97\n      jump\t// in\n    tag_121:\n        /* \"#utility.yul\":3750:3755   */\n      dup2\n        /* \"#utility.yul\":3747:3782   */\n      eq\n        /* \"#utility.yul\":3737:3739   */\n      tag_122\n      jumpi\n        /* \"#utility.yul\":3796:3797   */\n      0x00\n        /* \"#utility.yul\":3793:3794   */\n      dup1\n        /* \"#utility.yul\":3786:3798   */\n      revert\n        /* \"#utility.yul\":3737:3739   */\n    tag_122:\n        /* \"#utility.yul\":3727:3806   */\n      pop\n      jump\t// out\n\n    auxdata: 0xa26469706673582212207c8673e0056e5a2f670cc873ccde22e8da577d59d2fd266786b84c27e3b7de1964736f6c63430008000033\n}\n",
				"bytecode": {
					"linkReferences": {},
					"object": "60806040526001600560006101000a81548160ff021916908315150217905550671bc16d674ec800006007556000600860006101000a81548160ff02191690831515021790555034801561005257600080fd5b5060405161087138038061087183398181016040528101906100749190610112565b81600560016101000a81548173ffffffffffffffffffffffffffffffffffffffff021916908373ffffffffffffffffffffffffffffffffffffffff16021790555080600660006101000a81548173ffffffffffffffffffffffffffffffffffffffff021916908373ffffffffffffffffffffffffffffffffffffffff1602179055505050610197565b60008151905061010c81610180565b92915050565b6000806040838503121561012557600080fd5b6000610133858286016100fd565b9250506020610144858286016100fd565b9150509250929050565b600061015982610160565b9050919050565b600073ffffffffffffffffffffffffffffffffffffffff82169050919050565b6101898161014e565b811461019457600080fd5b50565b6106cb806101a66000396000f3fe608060405234801561001057600080fd5b50600436106100a95760003560e01c8063a113efa311610071578063a113efa314610142578063ab09891d14610160578063adccea121461017e578063c35905c61461019c578063d75acda1146101ba578063e42b0212146101d8576100a9565b806318853cef146100ae57806352b74691146100cc5780638da5cb5b146100ea5780638f5949f91461010857806396af2ca614610126575b600080fd5b6100b66101f6565b6040516100c3919061056c565b60405180910390f35b6100d4610209565b6040516100e191906105a7565b60405180910390f35b6100f261020f565b6040516100ff9190610551565b60405180910390f35b610110610235565b60405161011d919061056c565b60405180910390f35b610140600480360381019061013b9190610481565b610248565b005b61014a610335565b60405161015791906105a7565b60405180910390f35b61016861033b565b60405161017591906105a7565b60405180910390f35b610186610341565b60405161019391906105a7565b60405180910390f35b6101a4610347565b6040516101b191906105a7565b60405180910390f35b6101c261034d565b6040516101cf91906105a7565b60405180910390f35b6101e0610353565b6040516101ed9190610551565b60405180910390f35b600860009054906101000a900460ff1681565b60045481565b600660009054906101000a900473ffffffffffffffffffffffffffffffffffffffff1681565b600560009054906101000a900460ff1681565b83600081905550826001819055508160028190555080600381905550600960005410806102775750601a600054115b8061028457506046600254105b806102915750606e600254115b156102b2576000600560006101000a81548160ff0219169083151502179055505b600160035414156102c557426004819055505b600a600454426102d591906105d3565b11156102f7576000600560006101000a81548160ff0219169083151502179055505b600560009054906101000a900460ff161580156103215750600860009054906101000a900460ff16155b1561032f5761032e610379565b5b50505050565b60015481565b60025481565b60005481565b60075481565b60035481565b600560019054906101000a900473ffffffffffffffffffffffffffffffffffffffff1681565b600860009054906101000a900460ff16156103c9576040517f08c379a00000000000000000000000000000000000000000000000000000000081526004016103c090610587565b60405180910390fd5b600660009054906101000a900473ffffffffffffffffffffffffffffffffffffffff1673ffffffffffffffffffffffffffffffffffffffff166108fc6007549081150290604051600060405180830381858888f19350505050158015610433573d6000803e3d6000fd5b506001600860006101000a81548160ff0219169083151502179055506000600560006101000a81548160ff021916908315150217905550565b60008135905061047b8161067e565b92915050565b6000806000806080858703121561049757600080fd5b60006104a58782880161046c565b94505060206104b68782880161046c565b93505060406104c78782880161046c565b92505060606104d88782880161046c565b91505092959194509250565b6104ed81610607565b82525050565b6104fc81610619565b82525050565b600061050f601d836105c2565b91507f5061796d656e742068617320616c7265616479206265656e206d6164650000006000830152602082019050919050565b61054b81610645565b82525050565b600060208201905061056660008301846104e4565b92915050565b600060208201905061058160008301846104f3565b92915050565b600060208201905081810360008301526105a081610502565b9050919050565b60006020820190506105bc6000830184610542565b92915050565b600082825260208201905092915050565b60006105de82610645565b91506105e983610645565b9250828210156105fc576105fb61064f565b5b828203905092915050565b600061061282610625565b9050919050565b60008115159050919050565b600073ffffffffffffffffffffffffffffffffffffffff82169050919050565b6000819050919050565b7f4e487b7100000000000000000000000000000000000000000000000000000000600052601160045260246000fd5b61068781610645565b811461069257600080fd5b5056fea26469706673582212207c8673e0056e5a2f670cc873ccde22e8da577d59d2fd266786b84c27e3b7de1964736f6c63430008000033",
					"opcodes": "PUSH1 0x80 PUSH1 0x40 MSTORE PUSH1 0x1 PUSH1 0x5 PUSH1 0x0 PUSH2 0x100 EXP DUP2 SLOAD DUP2 PUSH1 0xFF MUL NOT AND SWAP1 DUP4 ISZERO ISZERO MUL OR SWAP1 SSTORE POP PUSH8 0x1BC16D674EC80000 PUSH1 0x7 SSTORE PUSH1 0x0 PUSH1 0x8 PUSH1 0x0 PUSH2 0x100 EXP DUP2 SLOAD DUP2 PUSH1 0xFF MUL NOT AND SWAP1 DUP4 ISZERO ISZERO MUL OR SWAP1 SSTORE POP CALLVALUE DUP1 ISZERO PUSH2 0x52 JUMPI PUSH1 0x0 DUP1 REVERT JUMPDEST POP PUSH1 0x40 MLOAD PUSH2 0x871 CODESIZE SUB DUP1 PUSH2 0x871 DUP4 CODECOPY DUP2 DUP2 ADD PUSH1 0x40 MSTORE DUP2 ADD SWAP1 PUSH2 0x74 SWAP2 SWAP1 PUSH2 0x112 JUMP JUMPDEST DUP2 PUSH1 0x5 PUSH1 0x1 PUSH2 0x100 EXP DUP2 SLOAD DUP2 PUSH20 0xFFFFFFFFFFFFFFFFFFFFFFFFFFFFFFFFFFFFFFFF MUL NOT AND SWAP1 DUP4 PUSH20 0xFFFFFFFFFFFFFFFFFFFFFFFFFFFFFFFFFFFFFFFF AND MUL OR SWAP1 SSTORE POP DUP1 PUSH1 0x6 PUSH1 0x0 PUSH2 0x100 EXP DUP2 SLOAD DUP2 PUSH20 0xFFFFFFFFFFFFFFFFFFFFFFFFFFFFFFFFFFFFFFFF MUL NOT AND SWAP1 DUP4 PUSH20 0xFFFFFFFFFFFFFFFFFFFFFFFFFFFFFFFFFFFFFFFF AND MUL OR SWAP1 SSTORE POP POP POP PUSH2 0x197 JUMP JUMPDEST PUSH1 0x0 DUP2 MLOAD SWAP1 POP PUSH2 0x10C DUP2 PUSH2 0x180 JUMP JUMPDEST SWAP3 SWAP2 POP POP JUMP JUMPDEST PUSH1 0x0 DUP1 PUSH1 0x40 DUP4 DUP6 SUB SLT ISZERO PUSH2 0x125 JUMPI PUSH1 0x0 DUP1 REVERT JUMPDEST PUSH1 0x0 PUSH2 0x133 DUP6 DUP3 DUP7 ADD PUSH2 0xFD JUMP JUMPDEST SWAP3 POP POP PUSH1 0x20 PUSH2 0x144 DUP6 DUP3 DUP7 ADD PUSH2 0xFD JUMP JUMPDEST SWAP2 POP POP SWAP3 POP SWAP3 SWAP1 POP JUMP JUMPDEST PUSH1 0x0 PUSH2 0x159 DUP3 PUSH2 0x160 JUMP JUMPDEST SWAP1 POP SWAP2 SWAP1 POP JUMP JUMPDEST PUSH1 0x0 PUSH20 0xFFFFFFFFFFFFFFFFFFFFFFFFFFFFFFFFFFFFFFFF DUP3 AND SWAP1 POP SWAP2 SWAP1 POP JUMP JUMPDEST PUSH2 0x189 DUP2 PUSH2 0x14E JUMP JUMPDEST DUP2 EQ PUSH2 0x194 JUMPI PUSH1 0x0 DUP1 REVERT JUMPDEST POP JUMP JUMPDEST PUSH2 0x6CB DUP1 PUSH2 0x1A6 PUSH1 0x0 CODECOPY PUSH1 0x0 RETURN INVALID PUSH1 0x80 PUSH1 0x40 MSTORE CALLVALUE DUP1 ISZERO PUSH2 0x10 JUMPI PUSH1 0x0 DUP1 REVERT JUMPDEST POP PUSH1 0x4 CALLDATASIZE LT PUSH2 0xA9 JUMPI PUSH1 0x0 CALLDATALOAD PUSH1 0xE0 SHR DUP1 PUSH4 0xA113EFA3 GT PUSH2 0x71 JUMPI DUP1 PUSH4 0xA113EFA3 EQ PUSH2 0x142 JUMPI DUP1 PUSH4 0xAB09891D EQ PUSH2 0x160 JUMPI DUP1 PUSH4 0xADCCEA12 EQ PUSH2 0x17E JUMPI DUP1 PUSH4 0xC35905C6 EQ PUSH2 0x19C JUMPI DUP1 PUSH4 0xD75ACDA1 EQ PUSH2 0x1BA JUMPI DUP1 PUSH4 0xE42B0212 EQ PUSH2 0x1D8 JUMPI PUSH2 0xA9 JUMP JUMPDEST DUP1 PUSH4 0x18853CEF EQ PUSH2 0xAE JUMPI DUP1 PUSH4 0x52B74691 EQ PUSH2 0xCC JUMPI DUP1 PUSH4 0x8DA5CB5B EQ PUSH2 0xEA JUMPI DUP1 PUSH4 0x8F5949F9 EQ PUSH2 0x108 JUMPI DUP1 PUSH4 0x96AF2CA6 EQ PUSH2 0x126 JUMPI JUMPDEST PUSH1 0x0 DUP1 REVERT JUMPDEST PUSH2 0xB6 PUSH2 0x1F6 JUMP JUMPDEST PUSH1 0x40 MLOAD PUSH2 0xC3 SWAP2 SWAP1 PUSH2 0x56C JUMP JUMPDEST PUSH1 0x40 MLOAD DUP1 SWAP2 SUB SWAP1 RETURN JUMPDEST PUSH2 0xD4 PUSH2 0x209 JUMP JUMPDEST PUSH1 0x40 MLOAD PUSH2 0xE1 SWAP2 SWAP1 PUSH2 0x5A7 JUMP JUMPDEST PUSH1 0x40 MLOAD DUP1 SWAP2 SUB SWAP1 RETURN JUMPDEST PUSH2 0xF2 PUSH2 0x20F JUMP JUMPDEST PUSH1 0x40 MLOAD PUSH2 0xFF SWAP2 SWAP1 PUSH2 0x551 JUMP JUMPDEST PUSH1 0x40 MLOAD DUP1 SWAP2 SUB SWAP1 RETURN JUMPDEST PUSH2 0x110 PUSH2 0x235 JUMP JUMPDEST PUSH1 0x40 MLOAD PUSH2 0x11D SWAP2 SWAP1 PUSH2 0x56C JUMP JUMPDEST PUSH1 0x40 MLOAD DUP1 SWAP2 SUB SWAP1 RETURN JUMPDEST PUSH2 0x140 PUSH1 0x4 DUP1 CALLDATASIZE SUB DUP2 ADD SWAP1 PUSH2 0x13B SWAP2 SWAP1 PUSH2 0x481 JUMP JUMPDEST PUSH2 0x248 JUMP JUMPDEST STOP JUMPDEST PUSH2 0x14A PUSH2 0x335 JUMP JUMPDEST PUSH1 0x40 MLOAD PUSH2 0x157 SWAP2 SWAP1 PUSH2 0x5A7 JUMP JUMPDEST PUSH1 0x40 MLOAD DUP1 SWAP2 SUB SWAP1 RETURN JUMPDEST PUSH2 0x168 PUSH2 0x33B JUMP JUMPDEST PUSH1 0x40 MLOAD PUSH2 0x175 SWAP2 SWAP1 PUSH2 0x5A7 JUMP JUMPDEST PUSH1 0x40 MLOAD DUP1 SWAP2 SUB SWAP1 RETURN JUMPDEST PUSH2 0x186 PUSH2 0x341 JUMP JUMPDEST PUSH1 0x40 MLOAD PUSH2 0x193 SWAP2 SWAP1 PUSH2 0x5A7 JUMP JUMPDEST PUSH1 0x40 MLOAD DUP1 SWAP2 SUB SWAP1 RETURN JUMPDEST PUSH2 0x1A4 PUSH2 0x347 JUMP JUMPDEST PUSH1 0x40 MLOAD PUSH2 0x1B1 SWAP2 SWAP1 PUSH2 0x5A7 JUMP JUMPDEST PUSH1 0x40 MLOAD DUP1 SWAP2 SUB SWAP1 RETURN JUMPDEST PUSH2 0x1C2 PUSH2 0x34D JUMP JUMPDEST PUSH1 0x40 MLOAD PUSH2 0x1CF SWAP2 SWAP1 PUSH2 0x5A7 JUMP JUMPDEST PUSH1 0x40 MLOAD DUP1 SWAP2 SUB SWAP1 RETURN JUMPDEST PUSH2 0x1E0 PUSH2 0x353 JUMP JUMPDEST PUSH1 0x40 MLOAD PUSH2 0x1ED SWAP2 SWAP1 PUSH2 0x551 JUMP JUMPDEST PUSH1 0x40 MLOAD DUP1 SWAP2 SUB SWAP1 RETURN JUMPDEST PUSH1 0x8 PUSH1 0x0 SWAP1 SLOAD SWAP1 PUSH2 0x100 EXP SWAP1 DIV PUSH1 0xFF AND DUP2 JUMP JUMPDEST PUSH1 0x4 SLOAD DUP2 JUMP JUMPDEST PUSH1 0x6 PUSH1 0x0 SWAP1 SLOAD SWAP1 PUSH2 0x100 EXP SWAP1 DIV PUSH20 0xFFFFFFFFFFFFFFFFFFFFFFFFFFFFFFFFFFFFFFFF AND DUP2 JUMP JUMPDEST PUSH1 0x5 PUSH1 0x0 SWAP1 SLOAD SWAP1 PUSH2 0x100 EXP SWAP1 DIV PUSH1 0xFF AND DUP2 JUMP JUMPDEST DUP4 PUSH1 0x0 DUP2 SWAP1 SSTORE POP DUP3 PUSH1 0x1 DUP2 SWAP1 SSTORE POP DUP2 PUSH1 0x2 DUP2 SWAP1 SSTORE POP DUP1 PUSH1 0x3 DUP2 SWAP1 SSTORE POP PUSH1 0x9 PUSH1 0x0 SLOAD LT DUP1 PUSH2 0x277 JUMPI POP PUSH1 0x1A PUSH1 0x0 SLOAD GT JUMPDEST DUP1 PUSH2 0x284 JUMPI POP PUSH1 0x46 PUSH1 0x2 SLOAD LT JUMPDEST DUP1 PUSH2 0x291 JUMPI POP PUSH1 0x6E PUSH1 0x2 SLOAD GT JUMPDEST ISZERO PUSH2 0x2B2 JUMPI PUSH1 0x0 PUSH1 0x5 PUSH1 0x0 PUSH2 0x100 EXP DUP2 SLOAD DUP2 PUSH1 0xFF MUL NOT AND SWAP1 DUP4 ISZERO ISZERO MUL OR SWAP1 SSTORE POP JUMPDEST PUSH1 0x1 PUSH1 0x3 SLOAD EQ ISZERO PUSH2 0x2C5 JUMPI TIMESTAMP PUSH1 0x4 DUP2 SWAP1 SSTORE POP JUMPDEST PUSH1 0xA PUSH1 0x4 SLOAD TIMESTAMP PUSH2 0x2D5 SWAP2 SWAP1 PUSH2 0x5D3 JUMP JUMPDEST GT ISZERO PUSH2 0x2F7 JUMPI PUSH1 0x0 PUSH1 0x5 PUSH1 0x0 PUSH2 0x100 EXP DUP2 SLOAD DUP2 PUSH1 0xFF MUL NOT AND SWAP1 DUP4 ISZERO ISZERO MUL OR SWAP1 SSTORE POP JUMPDEST PUSH1 0x5 PUSH1 0x0 SWAP1 SLOAD SWAP1 PUSH2 0x100 EXP SWAP1 DIV PUSH1 0xFF AND ISZERO DUP1 ISZERO PUSH2 0x321 JUMPI POP PUSH1 0x8 PUSH1 0x0 SWAP1 SLOAD SWAP1 PUSH2 0x100 EXP SWAP1 DIV PUSH1 0xFF AND ISZERO JUMPDEST ISZERO PUSH2 0x32F JUMPI PUSH2 0x32E PUSH2 0x379 JUMP JUMPDEST JUMPDEST POP POP POP POP JUMP JUMPDEST PUSH1 0x1 SLOAD DUP2 JUMP JUMPDEST PUSH1 0x2 SLOAD DUP2 JUMP JUMPDEST PUSH1 0x0 SLOAD DUP2 JUMP JUMPDEST PUSH1 0x7 SLOAD DUP2 JUMP JUMPDEST PUSH1 0x3 SLOAD DUP2 JUMP JUMPDEST PUSH1 0x5 PUSH1 0x1 SWAP1 SLOAD SWAP1 PUSH2 0x100 EXP SWAP1 DIV PUSH20 0xFFFFFFFFFFFFFFFFFFFFFFFFFFFFFFFFFFFFFFFF AND DUP2 JUMP JUMPDEST PUSH1 0x8 PUSH1 0x0 SWAP1 SLOAD SWAP1 PUSH2 0x100 EXP SWAP1 DIV PUSH1 0xFF AND ISZERO PUSH2 0x3C9 JUMPI PUSH1 0x40 MLOAD PUSH32 0x8C379A000000000000000000000000000000000000000000000000000000000 DUP2 MSTORE PUSH1 0x4 ADD PUSH2 0x3C0 SWAP1 PUSH2 0x587 JUMP JUMPDEST PUSH1 0x40 MLOAD DUP1 SWAP2 SUB SWAP1 REVERT JUMPDEST PUSH1 0x6 PUSH1 0x0 SWAP1 SLOAD SWAP1 PUSH2 0x100 EXP SWAP1 DIV PUSH20 0xFFFFFFFFFFFFFFFFFFFFFFFFFFFFFFFFFFFFFFFF AND PUSH20 0xFFFFFFFFFFFFFFFFFFFFFFFFFFFFFFFFFFFFFFFF AND PUSH2 0x8FC PUSH1 0x7 SLOAD SWAP1 DUP2 ISZERO MUL SWAP1 PUSH1 0x40 MLOAD PUSH1 0x0 PUSH1 0x40 MLOAD DUP1 DUP4 SUB DUP2 DUP6 DUP9 DUP9 CALL SWAP4 POP POP POP POP ISZERO DUP1 ISZERO PUSH2 0x433 JUMPI RETURNDATASIZE PUSH1 0x0 DUP1 RETURNDATACOPY RETURNDATASIZE PUSH1 0x0 REVERT JUMPDEST POP PUSH1 0x1 PUSH1 0x8 PUSH1 0x0 PUSH2 0x100 EXP DUP2 SLOAD DUP2 PUSH1 0xFF MUL NOT AND SWAP1 DUP4 ISZERO ISZERO MUL OR SWAP1 SSTORE POP PUSH1 0x0 PUSH1 0x5 PUSH1 0x0 PUSH2 0x100 EXP DUP2 SLOAD DUP2 PUSH1 0xFF MUL NOT AND SWAP1 DUP4 ISZERO ISZERO MUL OR SWAP1 SSTORE POP JUMP JUMPDEST PUSH1 0x0 DUP2 CALLDATALOAD SWAP1 POP PUSH2 0x47B DUP2 PUSH2 0x67E JUMP JUMPDEST SWAP3 SWAP2 POP POP JUMP JUMPDEST PUSH1 0x0 DUP1 PUSH1 0x0 DUP1 PUSH1 0x80 DUP6 DUP8 SUB SLT ISZERO PUSH2 0x497 JUMPI PUSH1 0x0 DUP1 REVERT JUMPDEST PUSH1 0x0 PUSH2 0x4A5 DUP8 DUP3 DUP9 ADD PUSH2 0x46C JUMP JUMPDEST SWAP5 POP POP PUSH1 0x20 PUSH2 0x4B6 DUP8 DUP3 DUP9 ADD PUSH2 0x46C JUMP JUMPDEST SWAP4 POP POP PUSH1 0x40 PUSH2 0x4C7 DUP8 DUP3 DUP9 ADD PUSH2 0x46C JUMP JUMPDEST SWAP3 POP POP PUSH1 0x60 PUSH2 0x4D8 DUP8 DUP3 DUP9 ADD PUSH2 0x46C JUMP JUMPDEST SWAP2 POP POP SWAP3 SWAP6 SWAP2 SWAP5 POP SWAP3 POP JUMP JUMPDEST PUSH2 0x4ED DUP2 PUSH2 0x607 JUMP JUMPDEST DUP3 MSTORE POP POP JUMP JUMPDEST PUSH2 0x4FC DUP2 PUSH2 0x619 JUMP JUMPDEST DUP3 MSTORE POP POP JUMP JUMPDEST PUSH1 0x0 PUSH2 0x50F PUSH1 0x1D DUP4 PUSH2 0x5C2 JUMP JUMPDEST SWAP2 POP PUSH32 0x5061796D656E742068617320616C7265616479206265656E206D616465000000 PUSH1 0x0 DUP4 ADD MSTORE PUSH1 0x20 DUP3 ADD SWAP1 POP SWAP2 SWAP1 POP JUMP JUMPDEST PUSH2 0x54B DUP2 PUSH2 0x645 JUMP JUMPDEST DUP3 MSTORE POP POP JUMP JUMPDEST PUSH1 0x0 PUSH1 0x20 DUP3 ADD SWAP1 POP PUSH2 0x566 PUSH1 0x0 DUP4 ADD DUP5 PUSH2 0x4E4 JUMP JUMPDEST SWAP3 SWAP2 POP POP JUMP JUMPDEST PUSH1 0x0 PUSH1 0x20 DUP3 ADD SWAP1 POP PUSH2 0x581 PUSH1 0x0 DUP4 ADD DUP5 PUSH2 0x4F3 JUMP JUMPDEST SWAP3 SWAP2 POP POP JUMP JUMPDEST PUSH1 0x0 PUSH1 0x20 DUP3 ADD SWAP1 POP DUP2 DUP2 SUB PUSH1 0x0 DUP4 ADD MSTORE PUSH2 0x5A0 DUP2 PUSH2 0x502 JUMP JUMPDEST SWAP1 POP SWAP2 SWAP1 POP JUMP JUMPDEST PUSH1 0x0 PUSH1 0x20 DUP3 ADD SWAP1 POP PUSH2 0x5BC PUSH1 0x0 DUP4 ADD DUP5 PUSH2 0x542 JUMP JUMPDEST SWAP3 SWAP2 POP POP JUMP JUMPDEST PUSH1 0x0 DUP3 DUP3 MSTORE PUSH1 0x20 DUP3 ADD SWAP1 POP SWAP3 SWAP2 POP POP JUMP JUMPDEST PUSH1 0x0 PUSH2 0x5DE DUP3 PUSH2 0x645 JUMP JUMPDEST SWAP2 POP PUSH2 0x5E9 DUP4 PUSH2 0x645 JUMP JUMPDEST SWAP3 POP DUP3 DUP3 LT ISZERO PUSH2 0x5FC JUMPI PUSH2 0x5FB PUSH2 0x64F JUMP JUMPDEST JUMPDEST DUP3 DUP3 SUB SWAP1 POP SWAP3 SWAP2 POP POP JUMP JUMPDEST PUSH1 0x0 PUSH2 0x612 DUP3 PUSH2 0x625 JUMP JUMPDEST SWAP1 POP SWAP2 SWAP1 POP JUMP JUMPDEST PUSH1 0x0 DUP2 ISZERO ISZERO SWAP1 POP SWAP2 SWAP1 POP JUMP JUMPDEST PUSH1 0x0 PUSH20 0xFFFFFFFFFFFFFFFFFFFFFFFFFFFFFFFFFFFFFFFF DUP3 AND SWAP1 POP SWAP2 SWAP1 POP JUMP JUMPDEST PUSH1 0x0 DUP2 SWAP1 POP SWAP2 SWAP1 POP JUMP JUMPDEST PUSH32 0x4E487B7100000000000000000000000000000000000000000000000000000000 PUSH1 0x0 MSTORE PUSH1 0x11 PUSH1 0x4 MSTORE PUSH1 0x24 PUSH1 0x0 REVERT JUMPDEST PUSH2 0x687 DUP2 PUSH2 0x645 JUMP JUMPDEST DUP2 EQ PUSH2 0x692 JUMPI PUSH1 0x0 DUP1 REVERT JUMPDEST POP JUMP INVALID LOG2 PUSH5 0x6970667358 0x22 SLT KECCAK256 PUSH29 0x8673E0056E5A2F670CC873CCDE22E8DA577D59D2FD266786B84C27E3B7 0xDE NOT PUSH5 0x736F6C6343 STOP ADDMOD STOP STOP CALLER "
				},
				"gasEstimates": {
					"creation": {
						"codeDepositCost": "347800",
						"executionCost": "infinite",
						"totalCost": "infinite"
					},
					"external": {
						"humidity()": "1129",
						"isContractActive()": "1238",
						"isPaymentMade()": "1172",
						"lastVibrationTime()": "1152",
						"owner()": "1259",
						"paymentAmount()": "1195",
						"pressure()": "1151",
						"setSensorValues(uint256,uint256,uint256,uint256)": "infinite",
						"temperature()": "1173",
						"transporter()": "1374",
						"vibration()": "1217"
					},
					"internal": {
						"payTransporter()": "infinite"
					}
				},
				"methodIdentifiers": {
					"humidity()": "a113efa3",
					"isContractActive()": "8f5949f9",
					"isPaymentMade()": "18853cef",
					"lastVibrationTime()": "52b74691",
					"owner()": "8da5cb5b",
					"paymentAmount()": "c35905c6",
					"pressure()": "ab09891d",
					"setSensorValues(uint256,uint256,uint256,uint256)": "96af2ca6",
					"temperature()": "adccea12",
					"transporter()": "e42b0212",
					"vibration()": "d75acda1"
				}
			},
			"storageLayout": {
				"storage": [
					{
						"astId": 3,
						"contract": "contracts/ISensorPayment.sol:SensorContract",
						"label": "temperature",
						"offset": 0,
						"slot": "0",
						"type": "t_uint256"
					},
					{
						"astId": 5,
						"contract": "contracts/ISensorPayment.sol:SensorContract",
						"label": "humidity",
						"offset": 0,
						"slot": "1",
						"type": "t_uint256"
					},
					{
						"astId": 7,
						"contract": "contracts/ISensorPayment.sol:SensorContract",
						"label": "pressure",
						"offset": 0,
						"slot": "2",
						"type": "t_uint256"
					},
					{
						"astId": 9,
						"contract": "contracts/ISensorPayment.sol:SensorContract",
						"label": "vibration",
						"offset": 0,
						"slot": "3",
						"type": "t_uint256"
					},
					{
						"astId": 11,
						"contract": "contracts/ISensorPayment.sol:SensorContract",
						"label": "lastVibrationTime",
						"offset": 0,
						"slot": "4",
						"type": "t_uint256"
					},
					{
						"astId": 14,
						"contract": "contracts/ISensorPayment.sol:SensorContract",
						"label": "isContractActive",
						"offset": 0,
						"slot": "5",
						"type": "t_bool"
					},
					{
						"astId": 16,
						"contract": "contracts/ISensorPayment.sol:SensorContract",
						"label": "transporter",
						"offset": 1,
						"slot": "5",
						"type": "t_address_payable"
					},
					{
						"astId": 18,
						"contract": "contracts/ISensorPayment.sol:SensorContract",
						"label": "owner",
						"offset": 0,
						"slot": "6",
						"type": "t_address_payable"
					},
					{
						"astId": 21,
						"contract": "contracts/ISensorPayment.sol:SensorContract",
						"label": "paymentAmount",
						"offset": 0,
						"slot": "7",
						"type": "t_uint256"
					},
					{
						"astId": 24,
						"contract": "contracts/ISensorPayment.sol:SensorContract",
						"label": "isPaymentMade",
						"offset": 0,
						"slot": "8",
						"type": "t_bool"
					}
				],
				"types": {
					"t_address_payable": {
						"encoding": "inplace",
						"label": "address payable",
						"numberOfBytes": "20"
					},
					"t_bool": {
						"encoding": "inplace",
						"label": "bool",
						"numberOfBytes": "1"
					},
					"t_uint256": {
						"encoding": "inplace",
						"label": "uint256",
						"numberOfBytes": "32"
					}
				}
			},
			"userdoc": {
				"kind": "user",
				"methods": {},
				"version": 1
			}
		}
	}
}