{
	"contracts/SensorContract.sol": {
		"SensorContract": {
			"abi": [
				{
					"inputs": [
						{
							"internalType": "address payable",
							"name": "_transporter",
							"type": "address"
						},
						{
							"internalType": "address payable",
							"name": "_owner",
							"type": "address"
						}
					],
					"stateMutability": "nonpayable",
					"type": "constructor"
				},
				{
					"inputs": [],
					"name": "humidity",
					"outputs": [
						{
							"internalType": "uint256",
							"name": "",
							"type": "uint256"
						}
					],
					"stateMutability": "view",
					"type": "function"
				},
				{
					"inputs": [],
					"name": "isContractActive",
					"outputs": [
						{
							"internalType": "bool",
							"name": "",
							"type": "bool"
						}
					],
					"stateMutability": "view",
					"type": "function"
				},
				{
					"inputs": [],
					"name": "isPaymentMade",
					"outputs": [
						{
							"internalType": "bool",
							"name": "",
							"type": "bool"
						}
					],
					"stateMutability": "view",
					"type": "function"
				},
				{
					"inputs": [],
					"name": "lastVibrationTime",
					"outputs": [
						{
							"internalType": "uint256",
							"name": "",
							"type": "uint256"
						}
					],
					"stateMutability": "view",
					"type": "function"
				},
				{
					"inputs": [],
					"name": "owner",
					"outputs": [
						{
							"internalType": "address payable",
							"name": "",
							"type": "address"
						}
					],
					"stateMutability": "view",
					"type": "function"
				},
				{
					"inputs": [],
					"name": "paymentAmount",
					"outputs": [
						{
							"internalType": "uint256",
							"name": "",
							"type": "uint256"
						}
					],
					"stateMutability": "view",
					"type": "function"
				},
				{
					"inputs": [],
					"name": "pressure",
					"outputs": [
						{
							"internalType": "uint256",
							"name": "",
							"type": "uint256"
						}
					],
					"stateMutability": "view",
					"type": "function"
				},
				{
					"inputs": [
						{
							"internalType": "uint256",
							"name": "_temperature",
							"type": "uint256"
						},
						{
							"internalType": "uint256",
							"name": "_humidity",
							"type": "uint256"
						},
						{
							"internalType": "uint256",
							"name": "_pressure",
							"type": "uint256"
						},
						{
							"internalType": "uint256",
							"name": "_vibration",
							"type": "uint256"
						}
					],
					"name": "setSensorValues",
					"outputs": [],
					"stateMutability": "nonpayable",
					"type": "function"
				},
				{
					"inputs": [],
					"name": "temperature",
					"outputs": [
						{
							"internalType": "uint256",
							"name": "",
							"type": "uint256"
						}
					],
					"stateMutability": "view",
					"type": "function"
				},
				{
					"inputs": [],
					"name": "transporter",
					"outputs": [
						{
							"internalType": "address payable",
							"name": "",
							"type": "address"
						}
					],
					"stateMutability": "view",
					"type": "function"
				},
				{
					"inputs": [],
					"name": "vibration",
					"outputs": [
						{
							"internalType": "uint256",
							"name": "",
							"type": "uint256"
						}
					],
					"stateMutability": "view",
					"type": "function"
				}
			],
			"devdoc": {
				"kind": "dev",
				"methods": {},
				"version": 1
			},
			"evm": {
				"assembly": "    /* \"contracts/SensorContract.sol\":64:1898  contract SensorContract {... */\n  mstore(0x40, 0x80)\n    /* \"contracts/SensorContract.sol\":333:337  true */\n  0x01\n    /* \"contracts/SensorContract.sol\":302:337  bool public isContractActive = true */\n  0x05\n  exp(0x0100, 0x00)\n  dup2\n  sload\n  dup2\n  0xff\n  mul\n  not\n  and\n  swap1\n  dup4\n  iszero\n  iszero\n  mul\n  or\n  swap1\n  sstore\n  pop\n    /* \"contracts/SensorContract.sol\":548:555  2 ether */\n  0x1bc16d674ec80000\n    /* \"contracts/SensorContract.sol\":517:555  uint256 public paymentAmount = 2 ether */\n  0x07\n  sstore\n    /* \"contracts/SensorContract.sol\":589:594  false */\n  0x00\n    /* \"contracts/SensorContract.sol\":561:594  bool public isPaymentMade = false */\n  0x08\n  exp(0x0100, 0x00)\n  dup2\n  sload\n  dup2\n  0xff\n  mul\n  not\n  and\n  swap1\n  dup4\n  iszero\n  iszero\n  mul\n  or\n  swap1\n  sstore\n  pop\n    /* \"contracts/SensorContract.sol\":601:734  constructor(address payable _transporter, address payable _owner) {... */\n  callvalue\n  dup1\n  iszero\n  tag_1\n  jumpi\n  0x00\n  dup1\n  revert\ntag_1:\n  pop\n  mload(0x40)\n  sub(codesize, bytecodeSize)\n  dup1\n  bytecodeSize\n  dup4\n  codecopy\n  dup2\n  dup2\n  add\n  0x40\n  mstore\n  dup2\n  add\n  swap1\n  tag_2\n  swap2\n  swap1\n  tag_3\n  jump\t// in\ntag_2:\n    /* \"contracts/SensorContract.sol\":691:703  _transporter */\n  dup2\n    /* \"contracts/SensorContract.sol\":677:688  transporter */\n  0x05\n  0x01\n    /* \"contracts/SensorContract.sol\":677:703  transporter = _transporter */\n  0x0100\n  exp\n  dup2\n  sload\n  dup2\n  0xffffffffffffffffffffffffffffffffffffffff\n  mul\n  not\n  and\n  swap1\n  dup4\n  0xffffffffffffffffffffffffffffffffffffffff\n  and\n  mul\n  or\n  swap1\n  sstore\n  pop\n    /* \"contracts/SensorContract.sol\":721:727  _owner */\n  dup1\n    /* \"contracts/SensorContract.sol\":713:718  owner */\n  0x06\n  0x00\n    /* \"contracts/SensorContract.sol\":713:727  owner = _owner */\n  0x0100\n  exp\n  dup2\n  sload\n  dup2\n  0xffffffffffffffffffffffffffffffffffffffff\n  mul\n  not\n  and\n  swap1\n  dup4\n  0xffffffffffffffffffffffffffffffffffffffff\n  and\n  mul\n  or\n  swap1\n  sstore\n  pop\n    /* \"contracts/SensorContract.sol\":601:734  constructor(address payable _transporter, address payable _owner) {... */\n  pop\n  pop\n    /* \"contracts/SensorContract.sol\":64:1898  contract SensorContract {... */\n  jump(tag_6)\n    /* \"#utility.yul\":88:205   */\ntag_8:\n    /* \"#utility.yul\":197:198   */\n  0x00\n    /* \"#utility.yul\":194:195   */\n  dup1\n    /* \"#utility.yul\":187:199   */\n  revert\n    /* \"#utility.yul\":334:460   */\ntag_10:\n    /* \"#utility.yul\":371:378   */\n  0x00\n    /* \"#utility.yul\":411:453   */\n  0xffffffffffffffffffffffffffffffffffffffff\n    /* \"#utility.yul\":404:409   */\n  dup3\n    /* \"#utility.yul\":400:454   */\n  and\n    /* \"#utility.yul\":389:454   */\n  swap1\n  pop\n    /* \"#utility.yul\":334:460   */\n  swap2\n  swap1\n  pop\n  jump\t// out\n    /* \"#utility.yul\":466:570   */\ntag_11:\n    /* \"#utility.yul\":511:518   */\n  0x00\n    /* \"#utility.yul\":540:564   */\n  tag_20\n    /* \"#utility.yul\":558:563   */\n  dup3\n    /* \"#utility.yul\":540:564   */\n  tag_10\n  jump\t// in\ntag_20:\n    /* \"#utility.yul\":529:564   */\n  swap1\n  pop\n    /* \"#utility.yul\":466:570   */\n  swap2\n  swap1\n  pop\n  jump\t// out\n    /* \"#utility.yul\":576:714   */\ntag_12:\n    /* \"#utility.yul\":657:689   */\n  tag_22\n    /* \"#utility.yul\":683:688   */\n  dup2\n    /* \"#utility.yul\":657:689   */\n  tag_11\n  jump\t// in\ntag_22:\n    /* \"#utility.yul\":650:655   */\n  dup2\n    /* \"#utility.yul\":647:690   */\n  eq\n    /* \"#utility.yul\":637:708   */\n  tag_23\n  jumpi\n    /* \"#utility.yul\":704:705   */\n  0x00\n    /* \"#utility.yul\":701:702   */\n  dup1\n    /* \"#utility.yul\":694:706   */\n  revert\n    /* \"#utility.yul\":637:708   */\ntag_23:\n    /* \"#utility.yul\":576:714   */\n  pop\n  jump\t// out\n    /* \"#utility.yul\":720:879   */\ntag_13:\n    /* \"#utility.yul\":785:790   */\n  0x00\n    /* \"#utility.yul\":816:822   */\n  dup2\n    /* \"#utility.yul\":810:823   */\n  mload\n    /* \"#utility.yul\":801:823   */\n  swap1\n  pop\n    /* \"#utility.yul\":832:873   */\n  tag_25\n    /* \"#utility.yul\":867:872   */\n  dup2\n    /* \"#utility.yul\":832:873   */\n  tag_12\n  jump\t// in\ntag_25:\n    /* \"#utility.yul\":720:879   */\n  swap3\n  swap2\n  pop\n  pop\n  jump\t// out\n    /* \"#utility.yul\":885:1424   */\ntag_3:\n    /* \"#utility.yul\":980:986   */\n  0x00\n    /* \"#utility.yul\":988:994   */\n  dup1\n    /* \"#utility.yul\":1037:1039   */\n  0x40\n    /* \"#utility.yul\":1025:1034   */\n  dup4\n    /* \"#utility.yul\":1016:1023   */\n  dup6\n    /* \"#utility.yul\":1012:1035   */\n  sub\n    /* \"#utility.yul\":1008:1040   */\n  slt\n    /* \"#utility.yul\":1005:1124   */\n  iszero\n  tag_27\n  jumpi\n    /* \"#utility.yul\":1043:1122   */\n  tag_28\n  tag_8\n  jump\t// in\ntag_28:\n    /* \"#utility.yul\":1005:1124   */\ntag_27:\n    /* \"#utility.yul\":1163:1164   */\n  0x00\n    /* \"#utility.yul\":1188:1260   */\n  tag_29\n    /* \"#utility.yul\":1252:1259   */\n  dup6\n    /* \"#utility.yul\":1243:1249   */\n  dup3\n    /* \"#utility.yul\":1232:1241   */\n  dup7\n    /* \"#utility.yul\":1228:1250   */\n  add\n    /* \"#utility.yul\":1188:1260   */\n  tag_13\n  jump\t// in\ntag_29:\n    /* \"#utility.yul\":1178:1260   */\n  swap3\n  pop\n    /* \"#utility.yul\":1134:1270   */\n  pop\n    /* \"#utility.yul\":1309:1311   */\n  0x20\n    /* \"#utility.yul\":1335:1407   */\n  tag_30\n    /* \"#utility.yul\":1399:1406   */\n  dup6\n    /* \"#utility.yul\":1390:1396   */\n  dup3\n    /* \"#utility.yul\":1379:1388   */\n  dup7\n    /* \"#utility.yul\":1375:1397   */\n  add\n    /* \"#utility.yul\":1335:1407   */\n  tag_13\n  jump\t// in\ntag_30:\n    /* \"#utility.yul\":1325:1407   */\n  swap2\n  pop\n    /* \"#utility.yul\":1280:1417   */\n  pop\n    /* \"#utility.yul\":885:1424   */\n  swap3\n  pop\n  swap3\n  swap1\n  pop\n  jump\t// out\n    /* \"contracts/SensorContract.sol\":64:1898  contract SensorContract {... */\ntag_6:\n  dataSize(sub_0)\n  dup1\n  dataOffset(sub_0)\n  0x00\n  codecopy\n  0x00\n  return\nstop\n\nsub_0: assembly {\n        /* \"contracts/SensorContract.sol\":64:1898  contract SensorContract {... */\n      mstore(0x40, 0x80)\n      callvalue\n      dup1\n      iszero\n      tag_1\n      jumpi\n      0x00\n      dup1\n      revert\n    tag_1:\n      pop\n      jumpi(tag_2, lt(calldatasize, 0x04))\n      shr(0xe0, calldataload(0x00))\n      dup1\n      0xa113efa3\n      gt\n      tag_14\n      jumpi\n      dup1\n      0xa113efa3\n      eq\n      tag_8\n      jumpi\n      dup1\n      0xab09891d\n      eq\n      tag_9\n      jumpi\n      dup1\n      0xadccea12\n      eq\n      tag_10\n      jumpi\n      dup1\n      0xc35905c6\n      eq\n      tag_11\n      jumpi\n      dup1\n      0xd75acda1\n      eq\n      tag_12\n      jumpi\n      dup1\n      0xe42b0212\n      eq\n      tag_13\n      jumpi\n      jump(tag_2)\n    tag_14:\n      dup1\n      0x18853cef\n      eq\n      tag_3\n      jumpi\n      dup1\n      0x52b74691\n      eq\n      tag_4\n      jumpi\n      dup1\n      0x8da5cb5b\n      eq\n      tag_5\n      jumpi\n      dup1\n      0x8f5949f9\n      eq\n      tag_6\n      jumpi\n      dup1\n      0x96af2ca6\n      eq\n      tag_7\n      jumpi\n    tag_2:\n      0x00\n      dup1\n      revert\n        /* \"contracts/SensorContract.sol\":561:594  bool public isPaymentMade = false */\n    tag_3:\n      tag_15\n      tag_16\n      jump\t// in\n    tag_15:\n      mload(0x40)\n      tag_17\n      swap2\n      swap1\n      tag_18\n      jump\t// in\n    tag_17:\n      mload(0x40)\n      dup1\n      swap2\n      sub\n      swap1\n      return\n        /* \"contracts/SensorContract.sol\":238:270  uint256 public lastVibrationTime */\n    tag_4:\n      tag_19\n      tag_20\n      jump\t// in\n    tag_19:\n      mload(0x40)\n      tag_21\n      swap2\n      swap1\n      tag_22\n      jump\t// in\n    tag_21:\n      mload(0x40)\n      dup1\n      swap2\n      sub\n      swap1\n      return\n        /* \"contracts/SensorContract.sol\":442:470  address payable public owner */\n    tag_5:\n      tag_23\n      tag_24\n      jump\t// in\n    tag_23:\n      mload(0x40)\n      tag_25\n      swap2\n      swap1\n      tag_26\n      jump\t// in\n    tag_25:\n      mload(0x40)\n      dup1\n      swap2\n      sub\n      swap1\n      return\n        /* \"contracts/SensorContract.sol\":302:337  bool public isContractActive = true */\n    tag_6:\n      tag_27\n      tag_28\n      jump\t// in\n    tag_27:\n      mload(0x40)\n      tag_29\n      swap2\n      swap1\n      tag_18\n      jump\t// in\n    tag_29:\n      mload(0x40)\n      dup1\n      swap2\n      sub\n      swap1\n      return\n        /* \"contracts/SensorContract.sol\":740:1680  function setSensorValues(... */\n    tag_7:\n      tag_30\n      0x04\n      dup1\n      calldatasize\n      sub\n      dup2\n      add\n      swap1\n      tag_31\n      swap2\n      swap1\n      tag_32\n      jump\t// in\n    tag_31:\n      tag_33\n      jump\t// in\n    tag_30:\n      stop\n        /* \"contracts/SensorContract.sol\":150:173  uint256 public humidity */\n    tag_8:\n      tag_34\n      tag_35\n      jump\t// in\n    tag_34:\n      mload(0x40)\n      tag_36\n      swap2\n      swap1\n      tag_22\n      jump\t// in\n    tag_36:\n      mload(0x40)\n      dup1\n      swap2\n      sub\n      swap1\n      return\n        /* \"contracts/SensorContract.sol\":179:202  uint256 public pressure */\n    tag_9:\n      tag_37\n      tag_38\n      jump\t// in\n    tag_37:\n      mload(0x40)\n      tag_39\n      swap2\n      swap1\n      tag_22\n      jump\t// in\n    tag_39:\n      mload(0x40)\n      dup1\n      swap2\n      sub\n      swap1\n      return\n        /* \"contracts/SensorContract.sol\":118:144  uint256 public temperature */\n    tag_10:\n      tag_40\n      tag_41\n      jump\t// in\n    tag_40:\n      mload(0x40)\n      tag_42\n      swap2\n      swap1\n      tag_22\n      jump\t// in\n    tag_42:\n      mload(0x40)\n      dup1\n      swap2\n      sub\n      swap1\n      return\n        /* \"contracts/SensorContract.sol\":517:555  uint256 public paymentAmount = 2 ether */\n    tag_11:\n      tag_43\n      tag_44\n      jump\t// in\n    tag_43:\n      mload(0x40)\n      tag_45\n      swap2\n      swap1\n      tag_22\n      jump\t// in\n    tag_45:\n      mload(0x40)\n      dup1\n      swap2\n      sub\n      swap1\n      return\n        /* \"contracts/SensorContract.sol\":208:232  uint256 public vibration */\n    tag_12:\n      tag_46\n      tag_47\n      jump\t// in\n    tag_46:\n      mload(0x40)\n      tag_48\n      swap2\n      swap1\n      tag_22\n      jump\t// in\n    tag_48:\n      mload(0x40)\n      dup1\n      swap2\n      sub\n      swap1\n      return\n        /* \"contracts/SensorContract.sol\":402:436  address payable public transporter */\n    tag_13:\n      tag_49\n      tag_50\n      jump\t// in\n    tag_49:\n      mload(0x40)\n      tag_51\n      swap2\n      swap1\n      tag_26\n      jump\t// in\n    tag_51:\n      mload(0x40)\n      dup1\n      swap2\n      sub\n      swap1\n      return\n        /* \"contracts/SensorContract.sol\":561:594  bool public isPaymentMade = false */\n    tag_16:\n      0x08\n      0x00\n      swap1\n      sload\n      swap1\n      0x0100\n      exp\n      swap1\n      div\n      0xff\n      and\n      dup2\n      jump\t// out\n        /* \"contracts/SensorContract.sol\":238:270  uint256 public lastVibrationTime */\n    tag_20:\n      sload(0x04)\n      dup2\n      jump\t// out\n        /* \"contracts/SensorContract.sol\":442:470  address payable public owner */\n    tag_24:\n      0x06\n      0x00\n      swap1\n      sload\n      swap1\n      0x0100\n      exp\n      swap1\n      div\n      0xffffffffffffffffffffffffffffffffffffffff\n      and\n      dup2\n      jump\t// out\n        /* \"contracts/SensorContract.sol\":302:337  bool public isContractActive = true */\n    tag_28:\n      0x05\n      0x00\n      swap1\n      sload\n      swap1\n      0x0100\n      exp\n      swap1\n      div\n      0xff\n      and\n      dup2\n      jump\t// out\n        /* \"contracts/SensorContract.sol\":740:1680  function setSensorValues(... */\n    tag_33:\n        /* \"contracts/SensorContract.sol\":954:966  _temperature */\n      dup4\n        /* \"contracts/SensorContract.sol\":940:951  temperature */\n      0x00\n        /* \"contracts/SensorContract.sol\":940:966  temperature = _temperature */\n      dup2\n      swap1\n      sstore\n      pop\n        /* \"contracts/SensorContract.sol\":987:996  _humidity */\n      dup3\n        /* \"contracts/SensorContract.sol\":976:984  humidity */\n      0x01\n        /* \"contracts/SensorContract.sol\":976:996  humidity = _humidity */\n      dup2\n      swap1\n      sstore\n      pop\n        /* \"contracts/SensorContract.sol\":1017:1026  _pressure */\n      dup2\n        /* \"contracts/SensorContract.sol\":1006:1014  pressure */\n      0x02\n        /* \"contracts/SensorContract.sol\":1006:1026  pressure = _pressure */\n      dup2\n      swap1\n      sstore\n      pop\n        /* \"contracts/SensorContract.sol\":1048:1058  _vibration */\n      dup1\n        /* \"contracts/SensorContract.sol\":1036:1045  vibration */\n      0x03\n        /* \"contracts/SensorContract.sol\":1036:1058  vibration = _vibration */\n      dup2\n      swap1\n      sstore\n      pop\n        /* \"contracts/SensorContract.sol\":1142:1143  9 */\n      0x09\n        /* \"contracts/SensorContract.sol\":1128:1139  temperature */\n      sload(0x00)\n        /* \"contracts/SensorContract.sol\":1128:1143  temperature < 9 */\n      lt\n        /* \"contracts/SensorContract.sol\":1128:1175  temperature < 9 ||... */\n      dup1\n      tag_53\n      jumpi\n      pop\n        /* \"contracts/SensorContract.sol\":1173:1175  26 */\n      0x1a\n        /* \"contracts/SensorContract.sol\":1159:1170  temperature */\n      sload(0x00)\n        /* \"contracts/SensorContract.sol\":1159:1175  temperature > 26 */\n      gt\n        /* \"contracts/SensorContract.sol\":1128:1175  temperature < 9 ||... */\n    tag_53:\n        /* \"contracts/SensorContract.sol\":1128:1204  temperature < 9 ||... */\n      dup1\n      tag_54\n      jumpi\n      pop\n        /* \"contracts/SensorContract.sol\":1202:1204  70 */\n      0x46\n        /* \"contracts/SensorContract.sol\":1191:1199  pressure */\n      sload(0x02)\n        /* \"contracts/SensorContract.sol\":1191:1204  pressure < 70 */\n      lt\n        /* \"contracts/SensorContract.sol\":1128:1204  temperature < 9 ||... */\n    tag_54:\n        /* \"contracts/SensorContract.sol\":1128:1234  temperature < 9 ||... */\n      dup1\n      tag_55\n      jumpi\n      pop\n        /* \"contracts/SensorContract.sol\":1231:1234  110 */\n      0x6e\n        /* \"contracts/SensorContract.sol\":1220:1228  pressure */\n      sload(0x02)\n        /* \"contracts/SensorContract.sol\":1220:1234  pressure > 110 */\n      gt\n        /* \"contracts/SensorContract.sol\":1128:1234  temperature < 9 ||... */\n    tag_55:\n        /* \"contracts/SensorContract.sol\":1111:1294  if (... */\n      iszero\n      tag_56\n      jumpi\n        /* \"contracts/SensorContract.sol\":1278:1283  false */\n      0x00\n        /* \"contracts/SensorContract.sol\":1259:1275  isContractActive */\n      0x05\n      0x00\n        /* \"contracts/SensorContract.sol\":1259:1283  isContractActive = false */\n      0x0100\n      exp\n      dup2\n      sload\n      dup2\n      0xff\n      mul\n      not\n      and\n      swap1\n      dup4\n      iszero\n      iszero\n      mul\n      or\n      swap1\n      sstore\n      pop\n        /* \"contracts/SensorContract.sol\":1111:1294  if (... */\n    tag_56:\n        /* \"contracts/SensorContract.sol\":1352:1353  1 */\n      0x01\n        /* \"contracts/SensorContract.sol\":1339:1348  vibration */\n      sload(0x03)\n        /* \"contracts/SensorContract.sol\":1339:1353  vibration == 1 */\n      sub\n        /* \"contracts/SensorContract.sol\":1335:1415  if (vibration == 1) {... */\n      tag_57\n      jumpi\n        /* \"contracts/SensorContract.sol\":1389:1404  block.timestamp */\n      timestamp\n        /* \"contracts/SensorContract.sol\":1369:1386  lastVibrationTime */\n      0x04\n        /* \"contracts/SensorContract.sol\":1369:1404  lastVibrationTime = block.timestamp */\n      dup2\n      swap1\n      sstore\n      pop\n        /* \"contracts/SensorContract.sol\":1335:1415  if (vibration == 1) {... */\n    tag_57:\n        /* \"contracts/SensorContract.sol\":1467:1477  10 seconds */\n      0x0a\n        /* \"contracts/SensorContract.sol\":1447:1464  lastVibrationTime */\n      sload(0x04)\n        /* \"contracts/SensorContract.sol\":1429:1444  block.timestamp */\n      timestamp\n        /* \"contracts/SensorContract.sol\":1429:1464  block.timestamp - lastVibrationTime */\n      tag_58\n      swap2\n      swap1\n      tag_59\n      jump\t// in\n    tag_58:\n        /* \"contracts/SensorContract.sol\":1429:1477  block.timestamp - lastVibrationTime > 10 seconds */\n      gt\n        /* \"contracts/SensorContract.sol\":1425:1528  if (block.timestamp - lastVibrationTime > 10 seconds) {... */\n      iszero\n      tag_60\n      jumpi\n        /* \"contracts/SensorContract.sol\":1512:1517  false */\n      0x00\n        /* \"contracts/SensorContract.sol\":1493:1509  isContractActive */\n      0x05\n      0x00\n        /* \"contracts/SensorContract.sol\":1493:1517  isContractActive = false */\n      0x0100\n      exp\n      dup2\n      sload\n      dup2\n      0xff\n      mul\n      not\n      and\n      swap1\n      dup4\n      iszero\n      iszero\n      mul\n      or\n      swap1\n      sstore\n      pop\n        /* \"contracts/SensorContract.sol\":1425:1528  if (block.timestamp - lastVibrationTime > 10 seconds) {... */\n    tag_60:\n        /* \"contracts/SensorContract.sol\":1597:1613  isContractActive */\n      0x05\n      0x00\n      swap1\n      sload\n      swap1\n      0x0100\n      exp\n      swap1\n      div\n      0xff\n      and\n        /* \"contracts/SensorContract.sol\":1596:1613  !isContractActive */\n      iszero\n        /* \"contracts/SensorContract.sol\":1596:1631  !isContractActive && !isPaymentMade */\n      dup1\n      iszero\n      tag_61\n      jumpi\n      pop\n        /* \"contracts/SensorContract.sol\":1618:1631  isPaymentMade */\n      0x08\n      0x00\n      swap1\n      sload\n      swap1\n      0x0100\n      exp\n      swap1\n      div\n      0xff\n      and\n        /* \"contracts/SensorContract.sol\":1617:1631  !isPaymentMade */\n      iszero\n        /* \"contracts/SensorContract.sol\":1596:1631  !isContractActive && !isPaymentMade */\n    tag_61:\n        /* \"contracts/SensorContract.sol\":1592:1674  if (!isContractActive && !isPaymentMade) {... */\n      iszero\n      tag_62\n      jumpi\n        /* \"contracts/SensorContract.sol\":1647:1663  payTransporter() */\n      tag_63\n        /* \"contracts/SensorContract.sol\":1647:1661  payTransporter */\n      tag_64\n        /* \"contracts/SensorContract.sol\":1647:1663  payTransporter() */\n      jump\t// in\n    tag_63:\n        /* \"contracts/SensorContract.sol\":1592:1674  if (!isContractActive && !isPaymentMade) {... */\n    tag_62:\n        /* \"contracts/SensorContract.sol\":740:1680  function setSensorValues(... */\n      pop\n      pop\n      pop\n      pop\n      jump\t// out\n        /* \"contracts/SensorContract.sol\":150:173  uint256 public humidity */\n    tag_35:\n      sload(0x01)\n      dup2\n      jump\t// out\n        /* \"contracts/SensorContract.sol\":179:202  uint256 public pressure */\n    tag_38:\n      sload(0x02)\n      dup2\n      jump\t// out\n        /* \"contracts/SensorContract.sol\":118:144  uint256 public temperature */\n    tag_41:\n      sload(0x00)\n      dup2\n      jump\t// out\n        /* \"contracts/SensorContract.sol\":517:555  uint256 public paymentAmount = 2 ether */\n    tag_44:\n      sload(0x07)\n      dup2\n      jump\t// out\n        /* \"contracts/SensorContract.sol\":208:232  uint256 public vibration */\n    tag_47:\n      sload(0x03)\n      dup2\n      jump\t// out\n        /* \"contracts/SensorContract.sol\":402:436  address payable public transporter */\n    tag_50:\n      0x05\n      0x01\n      swap1\n      sload\n      swap1\n      0x0100\n      exp\n      swap1\n      div\n      0xffffffffffffffffffffffffffffffffffffffff\n      and\n      dup2\n      jump\t// out\n        /* \"contracts/SensorContract.sol\":1686:1896  function payTransporter() private {... */\n    tag_64:\n        /* \"contracts/SensorContract.sol\":1739:1752  isPaymentMade */\n      0x08\n      0x00\n      swap1\n      sload\n      swap1\n      0x0100\n      exp\n      swap1\n      div\n      0xff\n      and\n        /* \"contracts/SensorContract.sol\":1738:1752  !isPaymentMade */\n      iszero\n        /* \"contracts/SensorContract.sol\":1730:1786  require(!isPaymentMade, \"Payment has already been made\") */\n      tag_66\n      jumpi\n      mload(0x40)\n      0x08c379a000000000000000000000000000000000000000000000000000000000\n      dup2\n      mstore\n      0x04\n      add\n      tag_67\n      swap1\n      tag_68\n      jump\t// in\n    tag_67:\n      mload(0x40)\n      dup1\n      swap2\n      sub\n      swap1\n      revert\n    tag_66:\n        /* \"contracts/SensorContract.sol\":1796:1801  owner */\n      0x06\n      0x00\n      swap1\n      sload\n      swap1\n      0x0100\n      exp\n      swap1\n      div\n      0xffffffffffffffffffffffffffffffffffffffff\n      and\n        /* \"contracts/SensorContract.sol\":1796:1810  owner.transfer */\n      0xffffffffffffffffffffffffffffffffffffffff\n      and\n        /* \"contracts/SensorContract.sol\":1796:1825  owner.transfer(paymentAmount) */\n      0x08fc\n        /* \"contracts/SensorContract.sol\":1811:1824  paymentAmount */\n      sload(0x07)\n        /* \"contracts/SensorContract.sol\":1796:1825  owner.transfer(paymentAmount) */\n      swap1\n      dup2\n      iszero\n      mul\n      swap1\n      mload(0x40)\n      0x00\n      mload(0x40)\n      dup1\n      dup4\n      sub\n      dup2\n      dup6\n      dup9\n      dup9\n      call\n      swap4\n      pop\n      pop\n      pop\n      pop\n      iszero\n      dup1\n      iszero\n      tag_70\n      jumpi\n      returndatasize\n      0x00\n      dup1\n      returndatacopy\n      revert(0x00, returndatasize)\n    tag_70:\n      pop\n        /* \"contracts/SensorContract.sol\":1851:1855  true */\n      0x01\n        /* \"contracts/SensorContract.sol\":1835:1848  isPaymentMade */\n      0x08\n      0x00\n        /* \"contracts/SensorContract.sol\":1835:1855  isPaymentMade = true */\n      0x0100\n      exp\n      dup2\n      sload\n      dup2\n      0xff\n      mul\n      not\n      and\n      swap1\n      dup4\n      iszero\n      iszero\n      mul\n      or\n      swap1\n      sstore\n      pop\n        /* \"contracts/SensorContract.sol\":1884:1889  false */\n      0x00\n        /* \"contracts/SensorContract.sol\":1865:1881  isContractActive */\n      0x05\n      0x00\n        /* \"contracts/SensorContract.sol\":1865:1889  isContractActive = false */\n      0x0100\n      exp\n      dup2\n      sload\n      dup2\n      0xff\n      mul\n      not\n      and\n      swap1\n      dup4\n      iszero\n      iszero\n      mul\n      or\n      swap1\n      sstore\n      pop\n        /* \"contracts/SensorContract.sol\":1686:1896  function payTransporter() private {... */\n      jump\t// out\n        /* \"#utility.yul\":7:97   */\n    tag_71:\n        /* \"#utility.yul\":41:48   */\n      0x00\n        /* \"#utility.yul\":84:89   */\n      dup2\n        /* \"#utility.yul\":77:90   */\n      iszero\n        /* \"#utility.yul\":70:91   */\n      iszero\n        /* \"#utility.yul\":59:91   */\n      swap1\n      pop\n        /* \"#utility.yul\":7:97   */\n      swap2\n      swap1\n      pop\n      jump\t// out\n        /* \"#utility.yul\":103:212   */\n    tag_72:\n        /* \"#utility.yul\":184:205   */\n      tag_90\n        /* \"#utility.yul\":199:204   */\n      dup2\n        /* \"#utility.yul\":184:205   */\n      tag_71\n      jump\t// in\n    tag_90:\n        /* \"#utility.yul\":179:182   */\n      dup3\n        /* \"#utility.yul\":172:206   */\n      mstore\n        /* \"#utility.yul\":103:212   */\n      pop\n      pop\n      jump\t// out\n        /* \"#utility.yul\":218:428   */\n    tag_18:\n        /* \"#utility.yul\":305:309   */\n      0x00\n        /* \"#utility.yul\":343:345   */\n      0x20\n        /* \"#utility.yul\":332:341   */\n      dup3\n        /* \"#utility.yul\":328:346   */\n      add\n        /* \"#utility.yul\":320:346   */\n      swap1\n      pop\n        /* \"#utility.yul\":356:421   */\n      tag_92\n        /* \"#utility.yul\":418:419   */\n      0x00\n        /* \"#utility.yul\":407:416   */\n      dup4\n        /* \"#utility.yul\":403:420   */\n      add\n        /* \"#utility.yul\":394:400   */\n      dup5\n        /* \"#utility.yul\":356:421   */\n      tag_72\n      jump\t// in\n    tag_92:\n        /* \"#utility.yul\":218:428   */\n      swap3\n      swap2\n      pop\n      pop\n      jump\t// out\n        /* \"#utility.yul\":434:511   */\n    tag_73:\n        /* \"#utility.yul\":471:478   */\n      0x00\n        /* \"#utility.yul\":500:505   */\n      dup2\n        /* \"#utility.yul\":489:505   */\n      swap1\n      pop\n        /* \"#utility.yul\":434:511   */\n      swap2\n      swap1\n      pop\n      jump\t// out\n        /* \"#utility.yul\":517:635   */\n    tag_74:\n        /* \"#utility.yul\":604:628   */\n      tag_95\n        /* \"#utility.yul\":622:627   */\n      dup2\n        /* \"#utility.yul\":604:628   */\n      tag_73\n      jump\t// in\n    tag_95:\n        /* \"#utility.yul\":599:602   */\n      dup3\n        /* \"#utility.yul\":592:629   */\n      mstore\n        /* \"#utility.yul\":517:635   */\n      pop\n      pop\n      jump\t// out\n        /* \"#utility.yul\":641:863   */\n    tag_22:\n        /* \"#utility.yul\":734:738   */\n      0x00\n        /* \"#utility.yul\":772:774   */\n      0x20\n        /* \"#utility.yul\":761:770   */\n      dup3\n        /* \"#utility.yul\":757:775   */\n      add\n        /* \"#utility.yul\":749:775   */\n      swap1\n      pop\n        /* \"#utility.yul\":785:856   */\n      tag_97\n        /* \"#utility.yul\":853:854   */\n      0x00\n        /* \"#utility.yul\":842:851   */\n      dup4\n        /* \"#utility.yul\":838:855   */\n      add\n        /* \"#utility.yul\":829:835   */\n      dup5\n        /* \"#utility.yul\":785:856   */\n      tag_74\n      jump\t// in\n    tag_97:\n        /* \"#utility.yul\":641:863   */\n      swap3\n      swap2\n      pop\n      pop\n      jump\t// out\n        /* \"#utility.yul\":869:995   */\n    tag_75:\n        /* \"#utility.yul\":906:913   */\n      0x00\n        /* \"#utility.yul\":946:988   */\n      0xffffffffffffffffffffffffffffffffffffffff\n        /* \"#utility.yul\":939:944   */\n      dup3\n        /* \"#utility.yul\":935:989   */\n      and\n        /* \"#utility.yul\":924:989   */\n      swap1\n      pop\n        /* \"#utility.yul\":869:995   */\n      swap2\n      swap1\n      pop\n      jump\t// out\n        /* \"#utility.yul\":1001:1105   */\n    tag_76:\n        /* \"#utility.yul\":1046:1053   */\n      0x00\n        /* \"#utility.yul\":1075:1099   */\n      tag_100\n        /* \"#utility.yul\":1093:1098   */\n      dup3\n        /* \"#utility.yul\":1075:1099   */\n      tag_75\n      jump\t// in\n    tag_100:\n        /* \"#utility.yul\":1064:1099   */\n      swap1\n      pop\n        /* \"#utility.yul\":1001:1105   */\n      swap2\n      swap1\n      pop\n      jump\t// out\n        /* \"#utility.yul\":1111:1253   */\n    tag_77:\n        /* \"#utility.yul\":1214:1246   */\n      tag_102\n        /* \"#utility.yul\":1240:1245   */\n      dup2\n        /* \"#utility.yul\":1214:1246   */\n      tag_76\n      jump\t// in\n    tag_102:\n        /* \"#utility.yul\":1209:1212   */\n      dup3\n        /* \"#utility.yul\":1202:1247   */\n      mstore\n        /* \"#utility.yul\":1111:1253   */\n      pop\n      pop\n      jump\t// out\n        /* \"#utility.yul\":1259:1513   */\n    tag_26:\n        /* \"#utility.yul\":1368:1372   */\n      0x00\n        /* \"#utility.yul\":1406:1408   */\n      0x20\n        /* \"#utility.yul\":1395:1404   */\n      dup3\n        /* \"#utility.yul\":1391:1409   */\n      add\n        /* \"#utility.yul\":1383:1409   */\n      swap1\n      pop\n        /* \"#utility.yul\":1419:1506   */\n      tag_104\n        /* \"#utility.yul\":1503:1504   */\n      0x00\n        /* \"#utility.yul\":1492:1501   */\n      dup4\n        /* \"#utility.yul\":1488:1505   */\n      add\n        /* \"#utility.yul\":1479:1485   */\n      dup5\n        /* \"#utility.yul\":1419:1506   */\n      tag_77\n      jump\t// in\n    tag_104:\n        /* \"#utility.yul\":1259:1513   */\n      swap3\n      swap2\n      pop\n      pop\n      jump\t// out\n        /* \"#utility.yul\":1600:1717   */\n    tag_79:\n        /* \"#utility.yul\":1709:1710   */\n      0x00\n        /* \"#utility.yul\":1706:1707   */\n      dup1\n        /* \"#utility.yul\":1699:1711   */\n      revert\n        /* \"#utility.yul\":1846:1968   */\n    tag_81:\n        /* \"#utility.yul\":1919:1943   */\n      tag_109\n        /* \"#utility.yul\":1937:1942   */\n      dup2\n        /* \"#utility.yul\":1919:1943   */\n      tag_73\n      jump\t// in\n    tag_109:\n        /* \"#utility.yul\":1912:1917   */\n      dup2\n        /* \"#utility.yul\":1909:1944   */\n      eq\n        /* \"#utility.yul\":1899:1962   */\n      tag_110\n      jumpi\n        /* \"#utility.yul\":1958:1959   */\n      0x00\n        /* \"#utility.yul\":1955:1956   */\n      dup1\n        /* \"#utility.yul\":1948:1960   */\n      revert\n        /* \"#utility.yul\":1899:1962   */\n    tag_110:\n        /* \"#utility.yul\":1846:1968   */\n      pop\n      jump\t// out\n        /* \"#utility.yul\":1974:2113   */\n    tag_82:\n        /* \"#utility.yul\":2020:2025   */\n      0x00\n        /* \"#utility.yul\":2058:2064   */\n      dup2\n        /* \"#utility.yul\":2045:2065   */\n      calldataload\n        /* \"#utility.yul\":2036:2065   */\n      swap1\n      pop\n        /* \"#utility.yul\":2074:2107   */\n      tag_112\n        /* \"#utility.yul\":2101:2106   */\n      dup2\n        /* \"#utility.yul\":2074:2107   */\n      tag_81\n      jump\t// in\n    tag_112:\n        /* \"#utility.yul\":1974:2113   */\n      swap3\n      swap2\n      pop\n      pop\n      jump\t// out\n        /* \"#utility.yul\":2119:2884   */\n    tag_32:\n        /* \"#utility.yul\":2205:2211   */\n      0x00\n        /* \"#utility.yul\":2213:2219   */\n      dup1\n        /* \"#utility.yul\":2221:2227   */\n      0x00\n        /* \"#utility.yul\":2229:2235   */\n      dup1\n        /* \"#utility.yul\":2278:2281   */\n      0x80\n        /* \"#utility.yul\":2266:2275   */\n      dup6\n        /* \"#utility.yul\":2257:2264   */\n      dup8\n        /* \"#utility.yul\":2253:2276   */\n      sub\n        /* \"#utility.yul\":2249:2282   */\n      slt\n        /* \"#utility.yul\":2246:2366   */\n      iszero\n      tag_114\n      jumpi\n        /* \"#utility.yul\":2285:2364   */\n      tag_115\n      tag_79\n      jump\t// in\n    tag_115:\n        /* \"#utility.yul\":2246:2366   */\n    tag_114:\n        /* \"#utility.yul\":2405:2406   */\n      0x00\n        /* \"#utility.yul\":2430:2483   */\n      tag_116\n        /* \"#utility.yul\":2475:2482   */\n      dup8\n        /* \"#utility.yul\":2466:2472   */\n      dup3\n        /* \"#utility.yul\":2455:2464   */\n      dup9\n        /* \"#utility.yul\":2451:2473   */\n      add\n        /* \"#utility.yul\":2430:2483   */\n      tag_82\n      jump\t// in\n    tag_116:\n        /* \"#utility.yul\":2420:2483   */\n      swap5\n      pop\n        /* \"#utility.yul\":2376:2493   */\n      pop\n        /* \"#utility.yul\":2532:2534   */\n      0x20\n        /* \"#utility.yul\":2558:2611   */\n      tag_117\n        /* \"#utility.yul\":2603:2610   */\n      dup8\n        /* \"#utility.yul\":2594:2600   */\n      dup3\n        /* \"#utility.yul\":2583:2592   */\n      dup9\n        /* \"#utility.yul\":2579:2601   */\n      add\n        /* \"#utility.yul\":2558:2611   */\n      tag_82\n      jump\t// in\n    tag_117:\n        /* \"#utility.yul\":2548:2611   */\n      swap4\n      pop\n        /* \"#utility.yul\":2503:2621   */\n      pop\n        /* \"#utility.yul\":2660:2662   */\n      0x40\n        /* \"#utility.yul\":2686:2739   */\n      tag_118\n        /* \"#utility.yul\":2731:2738   */\n      dup8\n        /* \"#utility.yul\":2722:2728   */\n      dup3\n        /* \"#utility.yul\":2711:2720   */\n      dup9\n        /* \"#utility.yul\":2707:2729   */\n      add\n        /* \"#utility.yul\":2686:2739   */\n      tag_82\n      jump\t// in\n    tag_118:\n        /* \"#utility.yul\":2676:2739   */\n      swap3\n      pop\n        /* \"#utility.yul\":2631:2749   */\n      pop\n        /* \"#utility.yul\":2788:2790   */\n      0x60\n        /* \"#utility.yul\":2814:2867   */\n      tag_119\n        /* \"#utility.yul\":2859:2866   */\n      dup8\n        /* \"#utility.yul\":2850:2856   */\n      dup3\n        /* \"#utility.yul\":2839:2848   */\n      dup9\n        /* \"#utility.yul\":2835:2857   */\n      add\n        /* \"#utility.yul\":2814:2867   */\n      tag_82\n      jump\t// in\n    tag_119:\n        /* \"#utility.yul\":2804:2867   */\n      swap2\n      pop\n        /* \"#utility.yul\":2759:2877   */\n      pop\n        /* \"#utility.yul\":2119:2884   */\n      swap3\n      swap6\n      swap2\n      swap5\n      pop\n      swap3\n      pop\n      jump\t// out\n        /* \"#utility.yul\":2890:3070   */\n    tag_83:\n        /* \"#utility.yul\":2938:3015   */\n      0x4e487b7100000000000000000000000000000000000000000000000000000000\n        /* \"#utility.yul\":2935:2936   */\n      0x00\n        /* \"#utility.yul\":2928:3016   */\n      mstore\n        /* \"#utility.yul\":3035:3039   */\n      0x11\n        /* \"#utility.yul\":3032:3033   */\n      0x04\n        /* \"#utility.yul\":3025:3040   */\n      mstore\n        /* \"#utility.yul\":3059:3063   */\n      0x24\n        /* \"#utility.yul\":3056:3057   */\n      0x00\n        /* \"#utility.yul\":3049:3064   */\n      revert\n        /* \"#utility.yul\":3076:3270   */\n    tag_59:\n        /* \"#utility.yul\":3116:3120   */\n      0x00\n        /* \"#utility.yul\":3136:3156   */\n      tag_122\n        /* \"#utility.yul\":3154:3155   */\n      dup3\n        /* \"#utility.yul\":3136:3156   */\n      tag_73\n      jump\t// in\n    tag_122:\n        /* \"#utility.yul\":3131:3156   */\n      swap2\n      pop\n        /* \"#utility.yul\":3170:3190   */\n      tag_123\n        /* \"#utility.yul\":3188:3189   */\n      dup4\n        /* \"#utility.yul\":3170:3190   */\n      tag_73\n      jump\t// in\n    tag_123:\n        /* \"#utility.yul\":3165:3190   */\n      swap3\n      pop\n        /* \"#utility.yul\":3214:3215   */\n      dup3\n        /* \"#utility.yul\":3211:3212   */\n      dup3\n        /* \"#utility.yul\":3207:3216   */\n      sub\n        /* \"#utility.yul\":3199:3216   */\n      swap1\n      pop\n        /* \"#utility.yul\":3238:3239   */\n      dup2\n        /* \"#utility.yul\":3232:3236   */\n      dup2\n        /* \"#utility.yul\":3229:3240   */\n      gt\n        /* \"#utility.yul\":3226:3263   */\n      iszero\n      tag_124\n      jumpi\n        /* \"#utility.yul\":3243:3261   */\n      tag_125\n      tag_83\n      jump\t// in\n    tag_125:\n        /* \"#utility.yul\":3226:3263   */\n    tag_124:\n        /* \"#utility.yul\":3076:3270   */\n      swap3\n      swap2\n      pop\n      pop\n      jump\t// out\n        /* \"#utility.yul\":3276:3445   */\n    tag_84:\n        /* \"#utility.yul\":3360:3371   */\n      0x00\n        /* \"#utility.yul\":3394:3400   */\n      dup3\n        /* \"#utility.yul\":3389:3392   */\n      dup3\n        /* \"#utility.yul\":3382:3401   */\n      mstore\n        /* \"#utility.yul\":3434:3438   */\n      0x20\n        /* \"#utility.yul\":3429:3432   */\n      dup3\n        /* \"#utility.yul\":3425:3439   */\n      add\n        /* \"#utility.yul\":3410:3439   */\n      swap1\n      pop\n        /* \"#utility.yul\":3276:3445   */\n      swap3\n      swap2\n      pop\n      pop\n      jump\t// out\n        /* \"#utility.yul\":3451:3630   */\n    tag_85:\n        /* \"#utility.yul\":3591:3622   */\n      0x5061796d656e742068617320616c7265616479206265656e206d616465000000\n        /* \"#utility.yul\":3587:3588   */\n      0x00\n        /* \"#utility.yul\":3579:3585   */\n      dup3\n        /* \"#utility.yul\":3575:3589   */\n      add\n        /* \"#utility.yul\":3568:3623   */\n      mstore\n        /* \"#utility.yul\":3451:3630   */\n      pop\n      jump\t// out\n        /* \"#utility.yul\":3636:4002   */\n    tag_86:\n        /* \"#utility.yul\":3778:3781   */\n      0x00\n        /* \"#utility.yul\":3799:3866   */\n      tag_129\n        /* \"#utility.yul\":3863:3865   */\n      0x1d\n        /* \"#utility.yul\":3858:3861   */\n      dup4\n        /* \"#utility.yul\":3799:3866   */\n      tag_84\n      jump\t// in\n    tag_129:\n        /* \"#utility.yul\":3792:3866   */\n      swap2\n      pop\n        /* \"#utility.yul\":3875:3968   */\n      tag_130\n        /* \"#utility.yul\":3964:3967   */\n      dup3\n        /* \"#utility.yul\":3875:3968   */\n      tag_85\n      jump\t// in\n    tag_130:\n        /* \"#utility.yul\":3993:3995   */\n      0x20\n        /* \"#utility.yul\":3988:3991   */\n      dup3\n        /* \"#utility.yul\":3984:3996   */\n      add\n        /* \"#utility.yul\":3977:3996   */\n      swap1\n      pop\n        /* \"#utility.yul\":3636:4002   */\n      swap2\n      swap1\n      pop\n      jump\t// out\n        /* \"#utility.yul\":4008:4427   */\n    tag_68:\n        /* \"#utility.yul\":4174:4178   */\n      0x00\n        /* \"#utility.yul\":4212:4214   */\n      0x20\n        /* \"#utility.yul\":4201:4210   */\n      dup3\n        /* \"#utility.yul\":4197:4215   */\n      add\n        /* \"#utility.yul\":4189:4215   */\n      swap1\n      pop\n        /* \"#utility.yul\":4261:4270   */\n      dup2\n        /* \"#utility.yul\":4255:4259   */\n      dup2\n        /* \"#utility.yul\":4251:4271   */\n      sub\n        /* \"#utility.yul\":4247:4248   */\n      0x00\n        /* \"#utility.yul\":4236:4245   */\n      dup4\n        /* \"#utility.yul\":4232:4249   */\n      add\n        /* \"#utility.yul\":4225:4272   */\n      mstore\n        /* \"#utility.yul\":4289:4420   */\n      tag_132\n        /* \"#utility.yul\":4415:4419   */\n      dup2\n        /* \"#utility.yul\":4289:4420   */\n      tag_86\n      jump\t// in\n    tag_132:\n        /* \"#utility.yul\":4281:4420   */\n      swap1\n      pop\n        /* \"#utility.yul\":4008:4427   */\n      swap2\n      swap1\n      pop\n      jump\t// out\n\n    auxdata: 0xa2646970667358221220d1d500d1d0040b467b6f0b0612b6cfda749eba167fe8855bb951e24ac0883d1864736f6c63430008120033\n}\n",
				"bytecode": {
					"linkReferences": {},
					"object": "60806040526001600560006101000a81548160ff021916908315150217905550671bc16d674ec800006007556000600860006101000a81548160ff02191690831515021790555034801561005257600080fd5b5060405161088e38038061088e83398181016040528101906100749190610160565b81600560016101000a81548173ffffffffffffffffffffffffffffffffffffffff021916908373ffffffffffffffffffffffffffffffffffffffff16021790555080600660006101000a81548173ffffffffffffffffffffffffffffffffffffffff021916908373ffffffffffffffffffffffffffffffffffffffff16021790555050506101a0565b600080fd5b600073ffffffffffffffffffffffffffffffffffffffff82169050919050565b600061012d82610102565b9050919050565b61013d81610122565b811461014857600080fd5b50565b60008151905061015a81610134565b92915050565b60008060408385031215610177576101766100fd565b5b60006101858582860161014b565b92505060206101968582860161014b565b9150509250929050565b6106df806101af6000396000f3fe608060405234801561001057600080fd5b50600436106100a95760003560e01c8063a113efa311610071578063a113efa314610142578063ab09891d14610160578063adccea121461017e578063c35905c61461019c578063d75acda1146101ba578063e42b0212146101d8576100a9565b806318853cef146100ae57806352b74691146100cc5780638da5cb5b146100ea5780638f5949f91461010857806396af2ca614610126575b600080fd5b6100b66101f6565b6040516100c39190610486565b60405180910390f35b6100d4610209565b6040516100e191906104ba565b60405180910390f35b6100f261020f565b6040516100ff9190610516565b60405180910390f35b610110610235565b60405161011d9190610486565b60405180910390f35b610140600480360381019061013b9190610562565b610248565b005b61014a610334565b60405161015791906104ba565b60405180910390f35b61016861033a565b60405161017591906104ba565b60405180910390f35b610186610340565b60405161019391906104ba565b60405180910390f35b6101a4610346565b6040516101b191906104ba565b60405180910390f35b6101c261034c565b6040516101cf91906104ba565b60405180910390f35b6101e0610352565b6040516101ed9190610516565b60405180910390f35b600860009054906101000a900460ff1681565b60045481565b600660009054906101000a900473ffffffffffffffffffffffffffffffffffffffff1681565b600560009054906101000a900460ff1681565b83600081905550826001819055508160028190555080600381905550600960005410806102775750601a600054115b8061028457506046600254105b806102915750606e600254115b156102b2576000600560006101000a81548160ff0219169083151502179055505b6001600354036102c457426004819055505b600a600454426102d491906105f8565b11156102f6576000600560006101000a81548160ff0219169083151502179055505b600560009054906101000a900460ff161580156103205750600860009054906101000a900460ff16155b1561032e5761032d610378565b5b50505050565b60015481565b60025481565b60005481565b60075481565b60035481565b600560019054906101000a900473ffffffffffffffffffffffffffffffffffffffff1681565b600860009054906101000a900460ff16156103c8576040517f08c379a00000000000000000000000000000000000000000000000000000000081526004016103bf90610689565b60405180910390fd5b600660009054906101000a900473ffffffffffffffffffffffffffffffffffffffff1673ffffffffffffffffffffffffffffffffffffffff166108fc6007549081150290604051600060405180830381858888f19350505050158015610432573d6000803e3d6000fd5b506001600860006101000a81548160ff0219169083151502179055506000600560006101000a81548160ff021916908315150217905550565b60008115159050919050565b6104808161046b565b82525050565b600060208201905061049b6000830184610477565b92915050565b6000819050919050565b6104b4816104a1565b82525050565b60006020820190506104cf60008301846104ab565b92915050565b600073ffffffffffffffffffffffffffffffffffffffff82169050919050565b6000610500826104d5565b9050919050565b610510816104f5565b82525050565b600060208201905061052b6000830184610507565b92915050565b600080fd5b61053f816104a1565b811461054a57600080fd5b50565b60008135905061055c81610536565b92915050565b6000806000806080858703121561057c5761057b610531565b5b600061058a8782880161054d565b945050602061059b8782880161054d565b93505060406105ac8782880161054d565b92505060606105bd8782880161054d565b91505092959194509250565b7f4e487b7100000000000000000000000000000000000000000000000000000000600052601160045260246000fd5b6000610603826104a1565b915061060e836104a1565b9250828203905081811115610626576106256105c9565b5b92915050565b600082825260208201905092915050565b7f5061796d656e742068617320616c7265616479206265656e206d616465000000600082015250565b6000610673601d8361062c565b915061067e8261063d565b602082019050919050565b600060208201905081810360008301526106a281610666565b905091905056fea2646970667358221220d1d500d1d0040b467b6f0b0612b6cfda749eba167fe8855bb951e24ac0883d1864736f6c63430008120033",
					"opcodes": "PUSH1 0x80 PUSH1 0x40 MSTORE PUSH1 0x1 PUSH1 0x5 PUSH1 0x0 PUSH2 0x100 EXP DUP2 SLOAD DUP2 PUSH1 0xFF MUL NOT AND SWAP1 DUP4 ISZERO ISZERO MUL OR SWAP1 SSTORE POP PUSH8 0x1BC16D674EC80000 PUSH1 0x7 SSTORE PUSH1 0x0 PUSH1 0x8 PUSH1 0x0 PUSH2 0x100 EXP DUP2 SLOAD DUP2 PUSH1 0xFF MUL NOT AND SWAP1 DUP4 ISZERO ISZERO MUL OR SWAP1 SSTORE POP CALLVALUE DUP1 ISZERO PUSH2 0x52 JUMPI PUSH1 0x0 DUP1 REVERT JUMPDEST POP PUSH1 0x40 MLOAD PUSH2 0x88E CODESIZE SUB DUP1 PUSH2 0x88E DUP4 CODECOPY DUP2 DUP2 ADD PUSH1 0x40 MSTORE DUP2 ADD SWAP1 PUSH2 0x74 SWAP2 SWAP1 PUSH2 0x160 JUMP JUMPDEST DUP2 PUSH1 0x5 PUSH1 0x1 PUSH2 0x100 EXP DUP2 SLOAD DUP2 PUSH20 0xFFFFFFFFFFFFFFFFFFFFFFFFFFFFFFFFFFFFFFFF MUL NOT AND SWAP1 DUP4 PUSH20 0xFFFFFFFFFFFFFFFFFFFFFFFFFFFFFFFFFFFFFFFF AND MUL OR SWAP1 SSTORE POP DUP1 PUSH1 0x6 PUSH1 0x0 PUSH2 0x100 EXP DUP2 SLOAD DUP2 PUSH20 0xFFFFFFFFFFFFFFFFFFFFFFFFFFFFFFFFFFFFFFFF MUL NOT AND SWAP1 DUP4 PUSH20 0xFFFFFFFFFFFFFFFFFFFFFFFFFFFFFFFFFFFFFFFF AND MUL OR SWAP1 SSTORE POP POP POP PUSH2 0x1A0 JUMP JUMPDEST PUSH1 0x0 DUP1 REVERT JUMPDEST PUSH1 0x0 PUSH20 0xFFFFFFFFFFFFFFFFFFFFFFFFFFFFFFFFFFFFFFFF DUP3 AND SWAP1 POP SWAP2 SWAP1 POP JUMP JUMPDEST PUSH1 0x0 PUSH2 0x12D DUP3 PUSH2 0x102 JUMP JUMPDEST SWAP1 POP SWAP2 SWAP1 POP JUMP JUMPDEST PUSH2 0x13D DUP2 PUSH2 0x122 JUMP JUMPDEST DUP2 EQ PUSH2 0x148 JUMPI PUSH1 0x0 DUP1 REVERT JUMPDEST POP JUMP JUMPDEST PUSH1 0x0 DUP2 MLOAD SWAP1 POP PUSH2 0x15A DUP2 PUSH2 0x134 JUMP JUMPDEST SWAP3 SWAP2 POP POP JUMP JUMPDEST PUSH1 0x0 DUP1 PUSH1 0x40 DUP4 DUP6 SUB SLT ISZERO PUSH2 0x177 JUMPI PUSH2 0x176 PUSH2 0xFD JUMP JUMPDEST JUMPDEST PUSH1 0x0 PUSH2 0x185 DUP6 DUP3 DUP7 ADD PUSH2 0x14B JUMP JUMPDEST SWAP3 POP POP PUSH1 0x20 PUSH2 0x196 DUP6 DUP3 DUP7 ADD PUSH2 0x14B JUMP JUMPDEST SWAP2 POP POP SWAP3 POP SWAP3 SWAP1 POP JUMP JUMPDEST PUSH2 0x6DF DUP1 PUSH2 0x1AF PUSH1 0x0 CODECOPY PUSH1 0x0 RETURN INVALID PUSH1 0x80 PUSH1 0x40 MSTORE CALLVALUE DUP1 ISZERO PUSH2 0x10 JUMPI PUSH1 0x0 DUP1 REVERT JUMPDEST POP PUSH1 0x4 CALLDATASIZE LT PUSH2 0xA9 JUMPI PUSH1 0x0 CALLDATALOAD PUSH1 0xE0 SHR DUP1 PUSH4 0xA113EFA3 GT PUSH2 0x71 JUMPI DUP1 PUSH4 0xA113EFA3 EQ PUSH2 0x142 JUMPI DUP1 PUSH4 0xAB09891D EQ PUSH2 0x160 JUMPI DUP1 PUSH4 0xADCCEA12 EQ PUSH2 0x17E JUMPI DUP1 PUSH4 0xC35905C6 EQ PUSH2 0x19C JUMPI DUP1 PUSH4 0xD75ACDA1 EQ PUSH2 0x1BA JUMPI DUP1 PUSH4 0xE42B0212 EQ PUSH2 0x1D8 JUMPI PUSH2 0xA9 JUMP JUMPDEST DUP1 PUSH4 0x18853CEF EQ PUSH2 0xAE JUMPI DUP1 PUSH4 0x52B74691 EQ PUSH2 0xCC JUMPI DUP1 PUSH4 0x8DA5CB5B EQ PUSH2 0xEA JUMPI DUP1 PUSH4 0x8F5949F9 EQ PUSH2 0x108 JUMPI DUP1 PUSH4 0x96AF2CA6 EQ PUSH2 0x126 JUMPI JUMPDEST PUSH1 0x0 DUP1 REVERT JUMPDEST PUSH2 0xB6 PUSH2 0x1F6 JUMP JUMPDEST PUSH1 0x40 MLOAD PUSH2 0xC3 SWAP2 SWAP1 PUSH2 0x486 JUMP JUMPDEST PUSH1 0x40 MLOAD DUP1 SWAP2 SUB SWAP1 RETURN JUMPDEST PUSH2 0xD4 PUSH2 0x209 JUMP JUMPDEST PUSH1 0x40 MLOAD PUSH2 0xE1 SWAP2 SWAP1 PUSH2 0x4BA JUMP JUMPDEST PUSH1 0x40 MLOAD DUP1 SWAP2 SUB SWAP1 RETURN JUMPDEST PUSH2 0xF2 PUSH2 0x20F JUMP JUMPDEST PUSH1 0x40 MLOAD PUSH2 0xFF SWAP2 SWAP1 PUSH2 0x516 JUMP JUMPDEST PUSH1 0x40 MLOAD DUP1 SWAP2 SUB SWAP1 RETURN JUMPDEST PUSH2 0x110 PUSH2 0x235 JUMP JUMPDEST PUSH1 0x40 MLOAD PUSH2 0x11D SWAP2 SWAP1 PUSH2 0x486 JUMP JUMPDEST PUSH1 0x40 MLOAD DUP1 SWAP2 SUB SWAP1 RETURN JUMPDEST PUSH2 0x140 PUSH1 0x4 DUP1 CALLDATASIZE SUB DUP2 ADD SWAP1 PUSH2 0x13B SWAP2 SWAP1 PUSH2 0x562 JUMP JUMPDEST PUSH2 0x248 JUMP JUMPDEST STOP JUMPDEST PUSH2 0x14A PUSH2 0x334 JUMP JUMPDEST PUSH1 0x40 MLOAD PUSH2 0x157 SWAP2 SWAP1 PUSH2 0x4BA JUMP JUMPDEST PUSH1 0x40 MLOAD DUP1 SWAP2 SUB SWAP1 RETURN JUMPDEST PUSH2 0x168 PUSH2 0x33A JUMP JUMPDEST PUSH1 0x40 MLOAD PUSH2 0x175 SWAP2 SWAP1 PUSH2 0x4BA JUMP JUMPDEST PUSH1 0x40 MLOAD DUP1 SWAP2 SUB SWAP1 RETURN JUMPDEST PUSH2 0x186 PUSH2 0x340 JUMP JUMPDEST PUSH1 0x40 MLOAD PUSH2 0x193 SWAP2 SWAP1 PUSH2 0x4BA JUMP JUMPDEST PUSH1 0x40 MLOAD DUP1 SWAP2 SUB SWAP1 RETURN JUMPDEST PUSH2 0x1A4 PUSH2 0x346 JUMP JUMPDEST PUSH1 0x40 MLOAD PUSH2 0x1B1 SWAP2 SWAP1 PUSH2 0x4BA JUMP JUMPDEST PUSH1 0x40 MLOAD DUP1 SWAP2 SUB SWAP1 RETURN JUMPDEST PUSH2 0x1C2 PUSH2 0x34C JUMP JUMPDEST PUSH1 0x40 MLOAD PUSH2 0x1CF SWAP2 SWAP1 PUSH2 0x4BA JUMP JUMPDEST PUSH1 0x40 MLOAD DUP1 SWAP2 SUB SWAP1 RETURN JUMPDEST PUSH2 0x1E0 PUSH2 0x352 JUMP JUMPDEST PUSH1 0x40 MLOAD PUSH2 0x1ED SWAP2 SWAP1 PUSH2 0x516 JUMP JUMPDEST PUSH1 0x40 MLOAD DUP1 SWAP2 SUB SWAP1 RETURN JUMPDEST PUSH1 0x8 PUSH1 0x0 SWAP1 SLOAD SWAP1 PUSH2 0x100 EXP SWAP1 DIV PUSH1 0xFF AND DUP2 JUMP JUMPDEST PUSH1 0x4 SLOAD DUP2 JUMP JUMPDEST PUSH1 0x6 PUSH1 0x0 SWAP1 SLOAD SWAP1 PUSH2 0x100 EXP SWAP1 DIV PUSH20 0xFFFFFFFFFFFFFFFFFFFFFFFFFFFFFFFFFFFFFFFF AND DUP2 JUMP JUMPDEST PUSH1 0x5 PUSH1 0x0 SWAP1 SLOAD SWAP1 PUSH2 0x100 EXP SWAP1 DIV PUSH1 0xFF AND DUP2 JUMP JUMPDEST DUP4 PUSH1 0x0 DUP2 SWAP1 SSTORE POP DUP3 PUSH1 0x1 DUP2 SWAP1 SSTORE POP DUP2 PUSH1 0x2 DUP2 SWAP1 SSTORE POP DUP1 PUSH1 0x3 DUP2 SWAP1 SSTORE POP PUSH1 0x9 PUSH1 0x0 SLOAD LT DUP1 PUSH2 0x277 JUMPI POP PUSH1 0x1A PUSH1 0x0 SLOAD GT JUMPDEST DUP1 PUSH2 0x284 JUMPI POP PUSH1 0x46 PUSH1 0x2 SLOAD LT JUMPDEST DUP1 PUSH2 0x291 JUMPI POP PUSH1 0x6E PUSH1 0x2 SLOAD GT JUMPDEST ISZERO PUSH2 0x2B2 JUMPI PUSH1 0x0 PUSH1 0x5 PUSH1 0x0 PUSH2 0x100 EXP DUP2 SLOAD DUP2 PUSH1 0xFF MUL NOT AND SWAP1 DUP4 ISZERO ISZERO MUL OR SWAP1 SSTORE POP JUMPDEST PUSH1 0x1 PUSH1 0x3 SLOAD SUB PUSH2 0x2C4 JUMPI TIMESTAMP PUSH1 0x4 DUP2 SWAP1 SSTORE POP JUMPDEST PUSH1 0xA PUSH1 0x4 SLOAD TIMESTAMP PUSH2 0x2D4 SWAP2 SWAP1 PUSH2 0x5F8 JUMP JUMPDEST GT ISZERO PUSH2 0x2F6 JUMPI PUSH1 0x0 PUSH1 0x5 PUSH1 0x0 PUSH2 0x100 EXP DUP2 SLOAD DUP2 PUSH1 0xFF MUL NOT AND SWAP1 DUP4 ISZERO ISZERO MUL OR SWAP1 SSTORE POP JUMPDEST PUSH1 0x5 PUSH1 0x0 SWAP1 SLOAD SWAP1 PUSH2 0x100 EXP SWAP1 DIV PUSH1 0xFF AND ISZERO DUP1 ISZERO PUSH2 0x320 JUMPI POP PUSH1 0x8 PUSH1 0x0 SWAP1 SLOAD SWAP1 PUSH2 0x100 EXP SWAP1 DIV PUSH1 0xFF AND ISZERO JUMPDEST ISZERO PUSH2 0x32E JUMPI PUSH2 0x32D PUSH2 0x378 JUMP JUMPDEST JUMPDEST POP POP POP POP JUMP JUMPDEST PUSH1 0x1 SLOAD DUP2 JUMP JUMPDEST PUSH1 0x2 SLOAD DUP2 JUMP JUMPDEST PUSH1 0x0 SLOAD DUP2 JUMP JUMPDEST PUSH1 0x7 SLOAD DUP2 JUMP JUMPDEST PUSH1 0x3 SLOAD DUP2 JUMP JUMPDEST PUSH1 0x5 PUSH1 0x1 SWAP1 SLOAD SWAP1 PUSH2 0x100 EXP SWAP1 DIV PUSH20 0xFFFFFFFFFFFFFFFFFFFFFFFFFFFFFFFFFFFFFFFF AND DUP2 JUMP JUMPDEST PUSH1 0x8 PUSH1 0x0 SWAP1 SLOAD SWAP1 PUSH2 0x100 EXP SWAP1 DIV PUSH1 0xFF AND ISZERO PUSH2 0x3C8 JUMPI PUSH1 0x40 MLOAD PUSH32 0x8C379A000000000000000000000000000000000000000000000000000000000 DUP2 MSTORE PUSH1 0x4 ADD PUSH2 0x3BF SWAP1 PUSH2 0x689 JUMP JUMPDEST PUSH1 0x40 MLOAD DUP1 SWAP2 SUB SWAP1 REVERT JUMPDEST PUSH1 0x6 PUSH1 0x0 SWAP1 SLOAD SWAP1 PUSH2 0x100 EXP SWAP1 DIV PUSH20 0xFFFFFFFFFFFFFFFFFFFFFFFFFFFFFFFFFFFFFFFF AND PUSH20 0xFFFFFFFFFFFFFFFFFFFFFFFFFFFFFFFFFFFFFFFF AND PUSH2 0x8FC PUSH1 0x7 SLOAD SWAP1 DUP2 ISZERO MUL SWAP1 PUSH1 0x40 MLOAD PUSH1 0x0 PUSH1 0x40 MLOAD DUP1 DUP4 SUB DUP2 DUP6 DUP9 DUP9 CALL SWAP4 POP POP POP POP ISZERO DUP1 ISZERO PUSH2 0x432 JUMPI RETURNDATASIZE PUSH1 0x0 DUP1 RETURNDATACOPY RETURNDATASIZE PUSH1 0x0 REVERT JUMPDEST POP PUSH1 0x1 PUSH1 0x8 PUSH1 0x0 PUSH2 0x100 EXP DUP2 SLOAD DUP2 PUSH1 0xFF MUL NOT AND SWAP1 DUP4 ISZERO ISZERO MUL OR SWAP1 SSTORE POP PUSH1 0x0 PUSH1 0x5 PUSH1 0x0 PUSH2 0x100 EXP DUP2 SLOAD DUP2 PUSH1 0xFF MUL NOT AND SWAP1 DUP4 ISZERO ISZERO MUL OR SWAP1 SSTORE POP JUMP JUMPDEST PUSH1 0x0 DUP2 ISZERO ISZERO SWAP1 POP SWAP2 SWAP1 POP JUMP JUMPDEST PUSH2 0x480 DUP2 PUSH2 0x46B JUMP JUMPDEST DUP3 MSTORE POP POP JUMP JUMPDEST PUSH1 0x0 PUSH1 0x20 DUP3 ADD SWAP1 POP PUSH2 0x49B PUSH1 0x0 DUP4 ADD DUP5 PUSH2 0x477 JUMP JUMPDEST SWAP3 SWAP2 POP POP JUMP JUMPDEST PUSH1 0x0 DUP2 SWAP1 POP SWAP2 SWAP1 POP JUMP JUMPDEST PUSH2 0x4B4 DUP2 PUSH2 0x4A1 JUMP JUMPDEST DUP3 MSTORE POP POP JUMP JUMPDEST PUSH1 0x0 PUSH1 0x20 DUP3 ADD SWAP1 POP PUSH2 0x4CF PUSH1 0x0 DUP4 ADD DUP5 PUSH2 0x4AB JUMP JUMPDEST SWAP3 SWAP2 POP POP JUMP JUMPDEST PUSH1 0x0 PUSH20 0xFFFFFFFFFFFFFFFFFFFFFFFFFFFFFFFFFFFFFFFF DUP3 AND SWAP1 POP SWAP2 SWAP1 POP JUMP JUMPDEST PUSH1 0x0 PUSH2 0x500 DUP3 PUSH2 0x4D5 JUMP JUMPDEST SWAP1 POP SWAP2 SWAP1 POP JUMP JUMPDEST PUSH2 0x510 DUP2 PUSH2 0x4F5 JUMP JUMPDEST DUP3 MSTORE POP POP JUMP JUMPDEST PUSH1 0x0 PUSH1 0x20 DUP3 ADD SWAP1 POP PUSH2 0x52B PUSH1 0x0 DUP4 ADD DUP5 PUSH2 0x507 JUMP JUMPDEST SWAP3 SWAP2 POP POP JUMP JUMPDEST PUSH1 0x0 DUP1 REVERT JUMPDEST PUSH2 0x53F DUP2 PUSH2 0x4A1 JUMP JUMPDEST DUP2 EQ PUSH2 0x54A JUMPI PUSH1 0x0 DUP1 REVERT JUMPDEST POP JUMP JUMPDEST PUSH1 0x0 DUP2 CALLDATALOAD SWAP1 POP PUSH2 0x55C DUP2 PUSH2 0x536 JUMP JUMPDEST SWAP3 SWAP2 POP POP JUMP JUMPDEST PUSH1 0x0 DUP1 PUSH1 0x0 DUP1 PUSH1 0x80 DUP6 DUP8 SUB SLT ISZERO PUSH2 0x57C JUMPI PUSH2 0x57B PUSH2 0x531 JUMP JUMPDEST JUMPDEST PUSH1 0x0 PUSH2 0x58A DUP8 DUP3 DUP9 ADD PUSH2 0x54D JUMP JUMPDEST SWAP5 POP POP PUSH1 0x20 PUSH2 0x59B DUP8 DUP3 DUP9 ADD PUSH2 0x54D JUMP JUMPDEST SWAP4 POP POP PUSH1 0x40 PUSH2 0x5AC DUP8 DUP3 DUP9 ADD PUSH2 0x54D JUMP JUMPDEST SWAP3 POP POP PUSH1 0x60 PUSH2 0x5BD DUP8 DUP3 DUP9 ADD PUSH2 0x54D JUMP JUMPDEST SWAP2 POP POP SWAP3 SWAP6 SWAP2 SWAP5 POP SWAP3 POP JUMP JUMPDEST PUSH32 0x4E487B7100000000000000000000000000000000000000000000000000000000 PUSH1 0x0 MSTORE PUSH1 0x11 PUSH1 0x4 MSTORE PUSH1 0x24 PUSH1 0x0 REVERT JUMPDEST PUSH1 0x0 PUSH2 0x603 DUP3 PUSH2 0x4A1 JUMP JUMPDEST SWAP2 POP PUSH2 0x60E DUP4 PUSH2 0x4A1 JUMP JUMPDEST SWAP3 POP DUP3 DUP3 SUB SWAP1 POP DUP2 DUP2 GT ISZERO PUSH2 0x626 JUMPI PUSH2 0x625 PUSH2 0x5C9 JUMP JUMPDEST JUMPDEST SWAP3 SWAP2 POP POP JUMP JUMPDEST PUSH1 0x0 DUP3 DUP3 MSTORE PUSH1 0x20 DUP3 ADD SWAP1 POP SWAP3 SWAP2 POP POP JUMP JUMPDEST PUSH32 0x5061796D656E742068617320616C7265616479206265656E206D616465000000 PUSH1 0x0 DUP3 ADD MSTORE POP JUMP JUMPDEST PUSH1 0x0 PUSH2 0x673 PUSH1 0x1D DUP4 PUSH2 0x62C JUMP JUMPDEST SWAP2 POP PUSH2 0x67E DUP3 PUSH2 0x63D JUMP JUMPDEST PUSH1 0x20 DUP3 ADD SWAP1 POP SWAP2 SWAP1 POP JUMP JUMPDEST PUSH1 0x0 PUSH1 0x20 DUP3 ADD SWAP1 POP DUP2 DUP2 SUB PUSH1 0x0 DUP4 ADD MSTORE PUSH2 0x6A2 DUP2 PUSH2 0x666 JUMP JUMPDEST SWAP1 POP SWAP2 SWAP1 POP JUMP INVALID LOG2 PUSH5 0x6970667358 0x22 SLT KECCAK256 0xD1 0xD5 STOP 0xD1 0xD0 DIV SIGNEXTEND CHAINID PUSH28 0x6F0B0612B6CFDA749EBA167FE8855BB951E24AC0883D1864736F6C63 NUMBER STOP ADDMOD SLT STOP CALLER "
				},
				"gasEstimates": {
					"creation": {
						"codeDepositCost": "351800",
						"executionCost": "infinite",
						"totalCost": "infinite"
					},
					"external": {
						"humidity()": "2429",
						"isContractActive()": "2538",
						"isPaymentMade()": "2472",
						"lastVibrationTime()": "2452",
						"owner()": "2559",
						"paymentAmount()": "2495",
						"pressure()": "2451",
						"setSensorValues(uint256,uint256,uint256,uint256)": "infinite",
						"temperature()": "2473",
						"transporter()": "2674",
						"vibration()": "2517"
					},
					"internal": {
						"payTransporter()": "infinite"
					}
				},
				"methodIdentifiers": {
					"humidity()": "a113efa3",
					"isContractActive()": "8f5949f9",
					"isPaymentMade()": "18853cef",
					"lastVibrationTime()": "52b74691",
					"owner()": "8da5cb5b",
					"paymentAmount()": "c35905c6",
					"pressure()": "ab09891d",
					"setSensorValues(uint256,uint256,uint256,uint256)": "96af2ca6",
					"temperature()": "adccea12",
					"transporter()": "e42b0212",
					"vibration()": "d75acda1"
				}
			},
			"storageLayout": {
				"storage": [
					{
						"astId": 121,
						"contract": "contracts/SensorContract.sol:SensorContract",
						"label": "temperature",
						"offset": 0,
						"slot": "0",
						"type": "t_uint256"
					},
					{
						"astId": 123,
						"contract": "contracts/SensorContract.sol:SensorContract",
						"label": "humidity",
						"offset": 0,
						"slot": "1",
						"type": "t_uint256"
					},
					{
						"astId": 125,
						"contract": "contracts/SensorContract.sol:SensorContract",
						"label": "pressure",
						"offset": 0,
						"slot": "2",
						"type": "t_uint256"
					},
					{
						"astId": 127,
						"contract": "contracts/SensorContract.sol:SensorContract",
						"label": "vibration",
						"offset": 0,
						"slot": "3",
						"type": "t_uint256"
					},
					{
						"astId": 129,
						"contract": "contracts/SensorContract.sol:SensorContract",
						"label": "lastVibrationTime",
						"offset": 0,
						"slot": "4",
						"type": "t_uint256"
					},
					{
						"astId": 132,
						"contract": "contracts/SensorContract.sol:SensorContract",
						"label": "isContractActive",
						"offset": 0,
						"slot": "5",
						"type": "t_bool"
					},
					{
						"astId": 134,
						"contract": "contracts/SensorContract.sol:SensorContract",
						"label": "transporter",
						"offset": 1,
						"slot": "5",
						"type": "t_address_payable"
					},
					{
						"astId": 136,
						"contract": "contracts/SensorContract.sol:SensorContract",
						"label": "owner",
						"offset": 0,
						"slot": "6",
						"type": "t_address_payable"
					},
					{
						"astId": 139,
						"contract": "contracts/SensorContract.sol:SensorContract",
						"label": "paymentAmount",
						"offset": 0,
						"slot": "7",
						"type": "t_uint256"
					},
					{
						"astId": 142,
						"contract": "contracts/SensorContract.sol:SensorContract",
						"label": "isPaymentMade",
						"offset": 0,
						"slot": "8",
						"type": "t_bool"
					}
				],
				"types": {
					"t_address_payable": {
						"encoding": "inplace",
						"label": "address payable",
						"numberOfBytes": "20"
					},
					"t_bool": {
						"encoding": "inplace",
						"label": "bool",
						"numberOfBytes": "1"
					},
					"t_uint256": {
						"encoding": "inplace",
						"label": "uint256",
						"numberOfBytes": "32"
					}
				}
			},
			"userdoc": {
				"kind": "user",
				"methods": {},
				"version": 1
			}
		}
	}
}